:1000000038C200005EC200005CC200005AC200009C
:1000100058C200007BC4000054C2000052C200005D
:1000200050C200004EC200004CC2000054C4000088
:1000300048C2000046C2000044C2000042C20000A4
:1000400040C200003EC200003CC200003AC20000B4
:1000500038C2000036C2000034C2000032C20000C4
:1000600030C200002EC200006364696E6F70737549
:1000700078585B00200030001B5D303B46554F43F5
:100080004F205354455007001B5B334A001B5B3025
:100090003B3048001B5B324A000A0D001B5B3144B9
:1000A000201B5B3144000D0A000D0A417573776116
:1000B000686C3A202845292D416E7AC3BC6E646570
:1000C000722C20285429616C6F6E2C204162627260
:1000D000756368206D697420616E64657265722055
:1000E00054617374653A2000452D414E5AC39C4EAD
:1000F00044455220283230206D73290054414C4F22
:100100004E202832207329000D0A4465727A6569F1
:10011000742065696E67657374656C6C74657320B3
:10012000416E7AC3BC6E646D697474656C0D0A3D72
:100130003D3D3D3D3D3D3D3D3D3D3D3D3D3D3D3DEF
:100140003D3D3D3D3D3D3D3D3D3D3D3D3D3D3D3DDF
:100150003D0D0A0A000D0A41444D55583A20000D44
:100160000A44757263687363686E6974743A200038
:100170000D0A000D0A0A0054726967676572000D66
:100180000A0A002C2000547269676765720046698C
:100190007865643A20005661726961626C650D0A87
:1001A000202020202020202020202020200020206F
:1001B000202020202020202020002053202020202C
:1001C0002020202020202046697865643A2054723F
:1001D00069676765720D0A0A000D0A0A5363686150
:1001E0006C746572706F732E20466573742F566140
:1001F00072696162656C0A0D0053004465727A652C
:10020000697469676520536368616C746572706FA7
:10021000736974696F6E3A20003D3D3D3D3D3D3D43
:100220003D3D3D3D3D3D3D3D3D3D3D3D3D3D3D0A31
:100230000D000A0D416B7475656C6C652045696E27
:100240007374656C6C756E67656E0A0D00496E7629
:10025000616C696420466F726D617400496E7661ED
:100260006C6964206368617220696E2074696D65D1
:10027000737472696E670A000D0A000D0A000D0A98
:100280005374657070696E74657276616C2028664F
:1002900029657374206F64657220287629617269FC
:1002A0006162656C3A20000D0A0A00547269676742
:1002B0006572000D0A5365747A6520496E74657223
:1002C00076616C6C206175663A20000D0A4E65758A
:1002D000657220576572742028537465703A203017
:1002E0003A30302E3030202D20393A35392E3939F8
:1002F0002C20742066C3BC722067657472696767BE
:10030000657274656E2042657472696562293A206F
:10031000000D0A496E74657276616C6C6E756D6D58
:1003200065722028312D31352C2030206E696368AC
:100330007420C3A46E646572626172293A20000D54
:100340000A004D6F64757320766572C3A46E646590
:10035000726E20284D292C20496E74657276616C6E
:100360006C20766572C3A46E6465726E202849297C
:10037000206F6465722061626272656368656E20D9
:1003800028616E64657265205461737465293F202D
:10039000000D0A0A000D0A00547269676765720051
:1003A000293A20002D002028002030202853746195
:1003B0007274293A20547269676765720D0A005693
:1003C00061726961626C6520496E74657276616CF8
:1003D0006C653A0D0A000D0A0A0054726967676578
:1003E000720046657374657320496E746572766138
:1003F0006C6C3A20003A0D0A000D0A0A0A0A0046FF
:10040000657374657320496E74657276616C6C20D7
:10041000286E6963687420C3A46E64657262617239
:10042000293A205472696767657200533A0D0A00D1
:100430000A0D45696E7374656C6C756E67656E2028
:10044000646572206465727A6569746967656E2097
:10045000536368616C7465727374656C6C756E67F8
:1004600020000A0D001B5B31440020001B5B31445F
:10047000000014BE0FB6F894A895809160008861C2
:1004800080936000109260000FBE11241FBECFEF5A
:10049000D8E0DEBFCDBF11E0A0E0B1E0EEECFBE2C2
:1004A00002C005900D92AE38B107D9F721E0AEE851
:1004B000B1E001C01D92A639B207E1F74CD20C940D
:1004C000E5159ECD9C01F999FECF32BD21BDF89A6C
:1004D00080B512BC11BC08959B01F999FECF32BDC5
:1004E00021BD80BDFA9AF99A12BC11BC08951F93E0
:1004F000CF93DF93182F892FEB01EEDFBE016F5FE3
:100500007F4F812FDF91CF911F91E6CF40980895C3
:100510002B982D982A989EBD0DB407FEFDCF8EBD59
:100520000DB407FEFDCF84E083B983B9089580E858
:100530009DE8ABE5B0E00197A109B1090097A105DD
:10054000B10539F02091C00027FFF5CF8091C6009A
:10055000089580E0089540E85DE86BE570E0415063
:10056000510961097109411551056105710521F0B4
:100570009091C00095FFF3CF8093C60080E008956E
:10058000CF93DF93EC0190E08881882311F09923C9
:1005900019F0DF91CF9108952196DDDF982FF4CFE8
:1005A000CF93DF93FC01EC012196849181110BC064
:1005B000DF91CF9108959E012F5F3F4FFE018491FF
:1005C0008823B1F3E901C7DF8823A9F3F1CF84E9D8
:1005D00090E0E6DF8DE890E0E3DF88E890E0E0DFA0
:1005E00088E790E0DDCFFC01DB018C9190818111E7
:1005F00004C081E0911105C00895319611969817B5
:10060000A1F380E0F9CFCF92DF92EF92FF921F9398
:10061000CF93DF93CDB7DEB7A1970FB6F894DEBFC7
:100620000FBECDBF1A821982FE0133962FE1DF0182
:100630001D922A95E9F74836C1F510E011C0E1E0B6
:10064000F0E0EC0FFD1FE10FF11D262F2F7020832E
:1006500034E095958795779567953A95D1F71F5F23
:10066000611571058105910551F7112341F310FDC5
:100670001F5F11110EC0A1960FB6F894DEBF0FBE1A
:10068000CDBFDF91CF911F91FF90EF90DF90CF9082
:100690000895FE01E10FF11D80818A3020F0895C10
:1006A0005ADF1150E6CF805DFBCF10E02AE0C22E6A
:1006B000D12CE12CF12C611571058105910581F496
:1006C00086E790E0A1960FB6F894DEBF0FBECDBFCF
:1006D000DF91CF911F91FF90EF90DF90CF9060CF8F
:1006E000A70196010E94A10FE1E0F0E0EC0FFD1FD1
:1006F000E10FF11D1F5F6083B901CA01611571052A
:100700008105910511F0113259F7112309F4B3CF86
:10071000FE01E10FF11D8081805D1DDF1150F5CFDD
:100720009FEB980F9A3130F0843C21F0863D11F018
:100730008C3D09F4806208958F929F92AF92BF9290
:10074000FF920F931F93CF93DF93D62F172F082F6E
:10075000F92E462F572F682F792F80E08F5F4A019F
:100760005B0199E0890E911CA11CB11C41E050E095
:1007700060E070E093E189169104A104B10470F780
:10078000833078F044E66D2F712F802F9F2DDF91FD
:10079000CF911F910F91FF90BF90AF909F908F903E
:1007A00032CFC2E0C81BCC2369F384E790E0F8DEC7
:1007B000C150F9CFCF93DF93CDB7DEB768970FB6AF
:1007C000F894DEBF0FBECDBF88E1E0E0F1E0DE01CE
:1007D000119601900D928A95E1F780917C00887FB7
:1007E00080937C0080917C00846080937C0020E278
:1007F00080E090E030917A00306430937A0030915C
:100800007A0036FDFCCF4091780050917900840F3A
:10081000951F21502111EECF9C01205F3F4F45E0F5
:10082000369527954A95E1F780E0E82FF0E0EE0F46
:10083000FF1F41E050E04C0F5D1FE40FF51F4081AA
:1008400051812417350720F08F5F8C3071F780E0DD
:1008500068960FB6F894DEBF0FBECDBFDF91CF9183
:100860000895EF92FF921F93CF93DF939C01462F41
:10087000E72F20368AEE380740F5C90160E777E1B7
:100880000E948D0FF62F172F7C01C4E6D0E0C9011E
:10089000BE010E948D0F9F938F93C701BE010E94DE
:1008A0008D0F7F936F931F93FF938EE291E09F9341
:1008B0008F93EF934F930E9416108DB79EB70A96B1
:1008C0000FB6F8949EBF0FBE8DBFDF91CF911F91E1
:1008D000FF90EF9008958F938FB78F939F938091A0
:1008E00091019091920101969093920180939101D0
:1008F00080918F0190919001009719F081E0809391
:100900008E019F918F918FBF8F9118958F938FB785
:100910008F939F9389B18C7090919501982798300F
:1009200051F09C3091F0943049F491E0843031F4EE
:100930009093930103C091E090939401809395016B
:100940009F918F918FBF8F91189591E09093940113
:100950008430A1F7EDCFCDB7DEB7C55ED1400FB67D
:10096000F894DEBF0FBECDBF0FB6F894A895809166
:100970006000886180936000109260000FBE45980F
:100980003D9A86E1E8E1F1E0DE01AF56BE4F01900D
:100990000D928A95E1F79E012F5F3F4F19018AE47E
:1009A00091E0D901FC011D923197E9F7FE01E9546C
:1009B000FE4F1192119289E0DF011D928A95E9F7AD
:1009C000FE01E955FE4F119211928EE0DF011D925A
:1009D0008A95E9F780E06FE0E82FF0E0689F9001EA
:1009E0001124EE0FFF1F41E951E04C0F5D1FE40F92
:1009F000F51F4081518190E0F901E90FF11DEE0FE3
:100A0000FF1FE20DF31D518340839F5F9F30A1F7CD
:100A10008F5F8B3009F710E0D12CFE01E55BFE4FB4
:100A20001192119282E2DF011D928A95E9F7439AB1
:100A3000239A3B9A229A259A2B982A982D9893E0EC
:100A400020E234E084E123B923B981508111FBCF46
:100A500033B933B991509111F5CFEBEDF5E0319702
:100A6000F1F700C0000043988CB581658CBD809182
:100A70006400806C8093640080B7806880BF8BE4E2
:100A80009DE1909389008093880080918100886027
:100A90008093810080916F00826080936F005B9AE9
:100AA00053988091680084608093680080916D0005
:100AB000886080936D005298809168008460809374
:100AC000680045983D9A4198399A5C98549A1EDD81
:100AD000389A42983A9A80B7806880BF84E48093BD
:100AE0007C0080917A00856080937A0080917A0002
:100AF000806880937A0080917A00806480937A0085
:100B000080917A0086FDFCCF8091780090917900E9
:100B1000CE52DE4F99838883C25DD140CE52DE4FE4
:100B200088819981C25DD1408FB7F8941092C50039
:100B300096E29093C40098E19093C10096E0909360
:100B4000C2008FBF81E090E0BDDC00E08F3F09F480
:100B500005C1E02EF12CC7010296B4DCE7EBF1E011
:100B6000EC0FFD1FEE0DFF1D8083EE0CFF1CC70177
:100B70000D96A8DCC82EC7010E96A4DCE1E9F1E0D1
:100B8000EC0FFD1FEE0DFF1D9C2D918380830F5FE9
:100B90000B30F9F600E03FE0432E2EE1209F4001AC
:100BA000112433E2830E911C409E30011124C12C8C
:100BB000EC2CF12C5701AA0CBB1CA80CB91CE60CA0
:100BC000F71CC5017FDC582EC50101967BDCEE0CBD
:100BD000FF1CF101EE0DFF1D952D91838083C394C1
:100BE000FFE0CF12E5CF0F5F0B30B9F68DE691E055
:100BF00069DC682E58EC851711F0E2E06E2E89B1A1
:100C00008C708093950181E0809394017894CE510B
:100C1000DE4F1882C25ED140712CC352DE4F188263
:100C2000CD5DD14001E0C552DE4F19821882CB5D07
:100C3000D1406FE671E06C0F7D1F6E5F7F4FCC512E
:100C4000DE4F79836883C45ED1408091940188230C
:100C500009F446C0FFB6F8941092940135B516BC5D
:100C600071E075BB80EA86BD95E095BD90E085E5B5
:100C70002FEF280F2E3F08F4BEC0983008F4BBC0F9
:100C800035BDE1E0C352DE4FE883CD5DD14088231E
:100C900009F4C2C0C352DE4F1882CD5DD1404598E1
:100CA00080916D008B7F80936D001B7C109293016F
:100CB00080E090E02DDCF1E0F6BB10928500109210
:100CC000840080918100887F809381005C984298A5
:100CD0001DDCC552DE4F19821882CB5DD140FFBEAC
:100CE0008091C00087FB10F910FFC8C1CFB6F894FF
:100CF0001E7F419A1CDCC55BDE4F8883CB54D140FC
:100D0000813509F49CC008F091C028EF280F2630E7
:100D100038F495E201C096952A95EAF790FD89C0CE
:100D2000FFDCC55BDE4F8883CB54D14014DCF12C53
:100D3000FEDBF6DCE82E4DE0841719F05AE085134F
:100D400015C2ECE4F1E0EC0FFD1FEF0DF11D108278
:100D500080E001DCFF2009F416C226C2E02EF12C4F
:100D6000B7016E5F7F4FE7EBF1E0EC0FFD1FEE0D7B
:100D7000FF1D8081B1DBEE0CFF1CB701635F7F4F6D
:100D800041E951E04C0F5D1FE40EF51ED7018D9136
:100D90009C91ADDB0F5F0B3009F700E0BEE19B2EAD
:100DA000E02EF12C909E5001112423E2A20EB11CE2
:100DB000C12CEE0CFF1C41E951E04C0F5D1FE40E0D
:100DC000F51E6C2D70E0660F771F6A0D7B1DF70115
:100DD000808191818CDBC394FFE0CF12F2CF0F5F53
:100DE0000B30F1F661E070E080E076DB6DE671E0FB
:100DF00082E072DBFBCE880F29B123FB222720F98A
:100E0000822BA89BFECFA1E0A5BBB0EAB6BD98306F
:100E100008F02ECF9F5F2CCFCDDC782E80916D0017
:100E2000846080936D005C9A01E059CF8F3709F0A0
:100E300077CFC55BDE4F1882CB54D14029C081E506
:100E40008ADB75DBF82EC45BDE4F8883CC54D1403F
:100E50006EDBC35BDE4F8883CD54D14027E7F212AF
:100E600017C0813AA9F473E0F72E61DBEBE4F1E0FF
:100E7000EC0FFD1FEF0DF11D8083F39433E2F312AD
:100E8000F4CFC259DE4F1882CE56D1406894D5F8BF
:100E90006DE371E0CE01855B9E4FA5DB811110648F
:100EA00062E471E0CE01855B9E4F9DDB8823F1F00B
:100EB00088E091E075DB98EC691287C18CEF90E0D7
:100EC0006FDB89EA90E06CDB32DBF82E8823E1F3FC
:100ED00042DB86EA90E064DB8F2D8062853609F480
:100EE00077C168ECF62E843709F474C16AE471E0C6
:100EF000CE01855B9E4F77DB882311F06894D1F893
:100F00006FE471E0CE01855B9E4F6DDB882311F0AD
:100F10006894D2F862E571E0CE01855B9E4F63DB99
:100F2000882319F0A1E0A09393016AE571E0CE0156
:100F3000855B9E4F58DB81114ADB6EE571E0CE0187
:100F4000855B9E4F50DB882311F06894D3F863E6ED
:100F500071E0CE01855B9E4F46DB882331F061E076
:100F600070E08FEFB9DA6894D3F86BE671E0CE01E8
:100F7000855B9E4F38DB882309F473C080917C0029
:100F8000887F80937C0080917C00846080937C00CB
:100F900040E2B42EE12CF12C80917A0080648093A1
:100FA0007A0080917A0086FDFCCF80917800909144
:100FB0007900E80EF91E9C0140E050E0CA52DE4F75
:100FC000288339834A835B83C65DD14044E6CA5295
:100FD000DE4F688179818A819B81C65DD14013DBB8
:100FE00080E791E0DDDABA94B110D6CF30E1E30EBC
:100FF000F11C8FE591E0D4DA35E0F694E7943A9568
:10100000E1F7A70160E070E0CA52DE4F48835983E0
:101010006A837B83C65DD14044E6CA52DE4F688155
:1010200079818A819B81C65DD140EDDA85E591E0C9
:10103000B7DA80917C00282F30E040E050E0CA52BF
:10104000DE4F288339834A835B83C65DD14048E6FF
:10105000CA52DE4F688179818A819B81C65DD14009
:10106000D2DA4198C55BDE4F8881CB54D1408150A4
:101070008E3F18F482E694E093DACFBE16FFE1C00B
:101080005FB6F8941F7B96DB782EA1DA82E392E0BC
:1010900087DA89E192E084DA8BEF91E081DA8ADB0A
:1010A000A82E882309F49EC090E0A0E0B0E044E6BA
:1010B000BC01CD01A8DA89ED91E072DA82E791E016
:1010C0005FDA8AEB91E06CDAC12C4A2D4150550B66
:1010D0005A012FE0422EEC2CF12C88E791E0EA1423
:1010E000FB0411F082E791E04BDAC70101969C0105
:1010F000990F440B550BCA52DE4F288339834A831C
:101100005B83C65DD140CA01B90116DB8EEA91E06E
:1011100047DAE7EBF1E0EC0FFD1FEE0DFF1D8081DC
:10112000882309F468C086E991E03ADA4E9C4001D0
:101130004F9C900C1124F12CF401EF0DF11DEE0FDA
:10114000FF1FE20DF31D8081918180364AEE9407E6
:1011500009F066C086E891E023DA5EE0F51609F44E
:1011600068C083E891E01CDAF394E6CF68E0861764
:1011700019F07FE787131CC0F1100FC0C45BDE4F6E
:101180001882CC54D1408CE694E00ADA8AE694E0E6
:1011900007DA85E694E004DA4CCEFA948CE990E024
:1011A000FFD98DE1F812C4CD89E990E0F9D970CE6C
:1011B000ECE4F1E0EC0FFD1FEF0DF11D8083CBD9C6
:1011C000EE2009F4C7CDF394ECCF88EE90E078CE12
:1011D00052E0F52E6F1421F06DE671E08F2D7CD971
:1011E0006F2C84CE89EF91E0DBD989ED91E0D8D9DD
:1011F00088E791E065CF8EE891E0D2D9EE0CFF1C34
:10120000E20CF31CF701E057FE4F8081918180369C
:101210003AEE930709F00FC187E791E0C1D913C1F6
:10122000BE0161597E4F1DDBCE0181599E4FA8D969
:1012300094CF8FE791E0B4D9C3946BE0C6124BCF43
:101240005FBED1FE21C07FB7CD51DE4F7883C35E34
:10125000D140F894E894D1F8ADDA782EABDAF82ED4
:1012600080E394E09DD9F110F1C08BE294E098D92D
:101270008FEF93E095D989EF93E092D9CD51DE4F6E
:10128000E881C35ED140EFBFD2FE44C0EFB6F89410
:10129000E894D2F88FDA782EC159DE4F198218827D
:1012A000CF56D14080E2CC51DE4FA881B981C45ED7
:1012B000D1401D928A95E9F77DDA811139C42AEE71
:1012C00090E68F5FE82FF0E0EE0FFF1F4FE651E052
:1012D0004C0F5D1FE40FF51F208391838F3089F73A
:1012E00081EAC159DE4F8883CF56D14081E9C15789
:1012F000DE4F8883CF58D140F12CEFE6F1E0EC0FC0
:10130000FD1FEF0DF11D808126D9F394B2E2FB128F
:10131000F4CFEFBED5FE7BC0CFB6F894E894D5F8F5
:1013200049DA2FEF280F2B3008F070C0C25BDE4F78
:101330009881CE54D140392F3F70831367C0E22E7D
:10134000F12CE7EBF1E0EC0FFD1FEE0DFF1D97FF19
:101350004EC481E080838FE08E9DA0018F9D500D53
:10136000112460E0A62FB0E09D01220F331FA40FCF
:10137000B51FAA0FBB1F5D01A20CB31C8FE491E047
:101380008C0F9D1F820F931FDC018C9190E0982F92
:101390008827A0E5B1E0AC0FBD1F2A0F3B1FD90184
:1013A0002C91820F911DD5018D939C936F5F6F30AF
:1013B000C9F6B080B7016E5F7F4F8B2D8DD8BB20F3
:1013C00009F42FC48EE18E9D50018F9DB00C112425
:1013D000B3E2AB0EB11C8FE08E9D40018F9D900C4F
:1013E0001124F12CEF2DF0E0BF01660F771F6A0D7D
:1013F0007B1DE80DF91DEE0FFF1FE20DF31D80812F
:10140000918175D8F394EFE0FE12ECCFCFBEFD2DA5
:10141000F870BF2EFF2309F413C4F894439A88E1AF
:101420009EE00FB6F894A895809360000FBE90934D
:101430006000CDD8FFCFBE0161597E4F12DACE01D8
:1014400081599E4F9DD883E791E0F5CE8F2D90E096
:10145000A0E0B0E0CA52DE4F88839983AA83BB83A1
:10146000C65DD14044E6BC01CD01CDD8FA94CA5244
:10147000DE4FF882C65DD14085EF93E091D8CA5225
:10148000DE4F9881C65DD140933709F4F7CE492EDF
:10149000512CB7EBAB2EBB24B394AC0EBD1EA40CE9
:1014A000B51CD501CC90C11035C082EE93E078D840
:1014B000F201EE0FFF1FE20DF31DE057FE4F80819A
:1014C00091818036BAEE9B0709F1BE016E537E4FC3
:1014D000C8D9CE018E539E4F53D886ED93E060D885
:1014E00082E493E05DD823D8F82E8823E1F333D843
:1014F0008FE393E055D88F2D8062893609F487C039
:101500008D3609F4E9C288E792E0B7CE8AED93E020
:1015100047D8E3CF8FEB93E043D889EA93E040D8F4
:101520008FE0849D4001859D900C1124C652DE4FB2
:101530001882CA5DD140C652DE4FE881CA5DD140F3
:10154000EE2EF12CC70101969C01990F440B550B0F
:10155000C252DE4F288339834A835B83CE5DD140FC
:10156000CA01B901E9D886EA93E01AD8C252DE4F1F
:10157000688179818A819B81CE5DD140DDD884EA02
:1015800093E00ED8C7010296AC01990F660B770B5A
:10159000C252DE4F488359836A837B83CE5DD1403C
:1015A000CB01BA01C9D880EA93E00E94D002F701CA
:1015B000E80DF91DEE0FFF1FE20DF31D80819181F3
:1015C00080365AEE9507F1F0BE016E537E4F49D931
:1015D000CE018E539E4F0E94C00285E993E00E9487
:1015E000D002C652DE4F6881CA5DD1406F5FC652DD
:1015F000DE4F6883CA5DD1406F3009F09CCF81E92E
:1016000093E06DCF88E993E00E94D002E6CFCE014F
:1016100081599E4F7C0199249A94CC2009F445C0AD
:1016200081E193E00E94D0025E0194E3A91A9EEF4B
:10163000B90AD5011D921C92F70111821082138202
:101640001282912C0E94970290ED980F292D30E084
:101650009A3028F08A3011F08D3029F480E0F701BB
:10166000E20FF31F80832E0D3F1DD9018C91811154
:101670003FC0BF92AF9284E891E09F938F93FF9217
:10168000EF92F4D4F501808191819C0121503109C0
:101690000F900F900F900F900F900F9099249A94A5
:1016A000980E2F30310508F02ECF8BEC92E00E947F
:1016B000D002F7011192119288E0DF011D928A9504
:1016C000E9F7B12C0E949702982F90629437B9F4F1
:1016D00084E50E94AB0283EB92E00E94D0028BEA89
:1016E00092E00E94D00260E6E62E6AEEF62EB8C1C5
:1016F0000E94AB029394F3E09F12A4CFBACF2B2D9C
:1017000030E090ED980F9A3060F08A3009F49AC07A
:101710008D3009F497C08A3321F08E3211F08C326B
:1017200021F4F701E20FF31F80832E0D3F1DF90115
:101730008081811189C09E0120533E4FD9011196AD
:101740001C921E92129711961C921E925E01E4E367
:10175000AE1AEEEFBE0AF50111821082F701118672
:1017600001900020E9F73197CF018E199F09982F3A
:10177000822E432F5A2F6B2F893008F088E099234F
:1017800009F4C1CE70E020E090E034E1AEE2F70170
:10179000E90FF11DB081BC3209F4A083E081EA3386
:1017A00009F059C0213009F463C021E09F5F981708
:1017B00070F3DE01A053BE4FCC52DE4FB983A88335
:1017C000C45DD140220F772309F457C090E0EDE6C5
:1017D000F1E0EC0FFD1FE80FF91F70817E3261F41C
:1017E000F701E80FF91F70E37083E0E7F1E0EC0F19
:1017F000FD1FE80FF91F10823D5FF701E30FF11D98
:10180000108281E0820FF70190819A3309F04CC079
:10181000833009F488C0813009F0B5C0BF92AF921F
:10182000CE0182539E4F9F938F9381E891E09F93C7
:101830008F93FF92EF921AD40FB6F894DEBF0FBECB
:10184000CDBF6AC080E06DCF0E94AB02B394F9E0D7
:10185000BF1238CF70CFEE3229F4713049F0392FF2
:1018600071E0A4CFEF3221F0EE52ED3008F49ECFBC
:101870008CE592E00E94D00246CE822FD7019C9147
:101880009A3391F5223009F07EC06F935F934F93A6
:101890008F9287E891E09F938F93FF92EF92E6D328
:1018A000D5011D921C924DC09E3201F1833009F08A
:1018B000B2CFBF92AF92CE0182539E4F9F938F9330
:1018C000CB52DE4FF881C55DD140FF93CC52DE4F45
:1018D0002881C45DD1402F938EE791E09F938F9331
:1018E000FF92EF92C3D32DC09E3261F6823069F22F
:1018F0008330F9F2813009F046C0BF92AF9283E89D
:1019000091E09F938F93FF92EF92B0D30F900F903F
:101910000F900F900F900F90C053DE4F19821882D6
:10192000C05DD14013C0BF92AF92CE0182539E4F93
:101930009F938F9380E891E09F938F93FF92EF9214
:1019400095D30FB6F894DEBF0FBECDBFC053DE4FA8
:1019500088819981C05DD1408A30910508F0BBCE65
:10196000892B41F0C253DE4F88819981CE5CD140F2
:10197000CC9730F4F5012081318124363105F8F01F
:101980008DE492E077CFCE0182539E4F9F938F9349
:1019900084E891E09F938F93FF92EF9267D3C053B7
:1019A000DE4F19821882C05DD140D5011D921C9274
:1019B0000F900F900F900F900F900F90C7CFC253C2
:1019C000DE4F88819981CE5CD1408C33910578F0CF
:1019D0006CE370E0A2D2C053DE4F79836883C05DB0
:1019E000D140C253DE4F99838883CE5CD140C0532F
:1019F000DE4F48815981C05DD14080E797E1489F23
:101A00007001499FF00C589FF00C1124C253DE4F17
:101A100048815981CE5CD14064E6649FC001659FD6
:101A2000900D1124E80EF91EE20EF31EFFEFEF16E3
:101A3000FF0609F468CD83EB92E00E94D00220E615
:101A4000E2162AEEF20609F44ACEBE016E537E4F2C
:101A5000C7010E943104CE018E539E4F0E94C002E6
:101A600087EA92E00E94D002CA52DE4F3881C65DFA
:101A7000D140832F90E0CC2001F1292D30E04FE0C0
:101A8000489FF001499FF00D1124E20FF31FEE0F64
:101A9000FF1FE20DF31DF182E0824EE1489FB0018D
:101AA000499F700D11246D5D7F4F220F331F620F10
:101AB000731FC7010E94770226CDF201EE0FFF1FB0
:101AC000E20DF31DE057FE4FF182E082880F991F6F
:101AD000BC01635F7F4FEDCF8EE792E00E94D002A2
:101AE0000E949702F82E8823D9F30E94AB028BE75D
:101AF00092E00E94D0028F2D8062863699F4D50143
:101B00001C92D5018C91C81609F4FDCCCA52DE4F47
:101B1000B881C65DD1406B2F70E06E5F7F4F0E9431
:101B20006C02F1CC863769F781E0F5018083E9CF5B
:101B30002FEF280F8F7030E0E7EBF1E0EC0FFD1F87
:101B4000E20FF31F908191112AC0C059DE4F8883A4
:101B5000C057D140220F331FE1E9F1E0EC0FFD1F28
:101B6000E20FF31F218140815181542745275427DB
:101B7000CF58DE4F59834883C157D140E2E0E90F87
:101B8000F0E0EE0FFF1F6FE671E06C0F7D1FE60FB8
:101B9000F71F808321839F5F9E3081F7A1CB805800
:101BA000C059DE4F8883C057D1404FE0429FC001EB
:101BB000439F900D112420E0E22FF0E0DC01AE0FF6
:101BC000BF1FAA0FBB1FA20DB31D3C9111964C91D4
:101BD0003196EE0FFF1FAFE6B1E0AC0FBD1FEA0F6D
:101BE000FB1F408331832F5F2F3031F779CB108279
:101BF000D701AA0FBB1FA20DB31DA057BE4FC15BDB
:101C0000DE4F8881CF54D14090E0982F8827C05B69
:101C1000DE4F2881C055D140820F911D8D939C933A
:101C2000C8CBEE0CFF1CB701635F7F4FE20CF31CC7
:101C3000F701E057FE4F808191810E947702E6CB49
:101C400015FDF2C0CE51DE4FC880C25ED1408091FA
:101C500093018823E9F0FFB6F8941092930115FDE3
:101C600016C0409A8091940181114EC1C352DE4F3B
:101C70008881CD5DD140882309F443C11460772069
:101C800031F0106280916D008B7F80936D00FFBEFC
:101C900012FF4AC09FB6F8941B7FC352DE4F988153
:101CA000CD5DD140992309F43EC00023E1F101311B
:101CB000D0F51061429AAA24A394A00EAC0C60E166
:101CC000E12CF12C202F30E0EE0CFF1C862F90E051
:101CD000A9014C0D511D8417950721F46894E0F873
:101CE000C110CA9461506111EFCF80918F01909122
:101CF0009001E82AF92A459AC7010E948802F092C9
:101D00009001E0928F01109292011092910181E076
:101D100086BB1092850010928400809181008260C1
:101D2000809381000A2D9FBE14FF39C080918E01DF
:101D30008823A9F17FB7F89410928E0113FB6627D0
:101D400060F940E050E021E030E080918F01909117
:101D5000900182239323892B61F0E7EAF1E0EC0FF5
:101D6000FD1FEB0DF11D80818F5F681608F4D0C058
:101D70008083220F331FB394A0E1BA12E6CF60FB39
:101D800013F980918F0190919001FA01E827F927CA
:101D9000C552DE4FF983E883CB5DD1407FBF13FF8F
:101DA0003CC0FFB6F894177FC552DE4F88819981F9
:101DB000CB5DD1400E948802C552DE4F2881398117
:101DC000CB5DD1403093900120938F01232B19F4E8
:101DD00045981F7E4298013188F01F7D80918100D7
:101DE000887F8093810081E086BB109285001092ED
:101DF0008400109292011092910101E015FD0CC037
:101E00000E948602809195018B7F8093950180913D
:101E10006D00846080936D00FFBECE51DE4FC8829E
:101E2000C25ED1400C942506772009F40BCF023016
:101E300008F408CF272D2150330BC901E7EBF1E05F
:101E4000EC0FFD1FE20FF31FC080CC2091F14FE09B
:101E5000489F9001499F300D1124F901E00FF11DB9
:101E60003297EE0FFF1FE20DF31D808191818036C6
:101E70004AEE940769F140919101509192014817FF
:101E8000590708F4DFCE81E0800FC12C813160F466
:101E9000F901E80FF11D3297EE0FFF1FE20DF31D60
:101EA00040815181452B11F01460D1CEC3948F5FD6
:101EB000EDCFF901EE0FFF1F61E971E06C0F7D1F9F
:101EC000E60FF71F8081918180367AEE970739F40B
:101ED0001F7D80916D00846080936D00B3CE209152
:101EE0009101309192012817390708F4ABCE892B64
:101EF000D9F6CC24C39481E0800F8131A8F2C12CA3
:101F0000D3CF0E948602C3CE81E080939301BFCEDF
:101F1000422B532B108261E02CCFAA1BBB1B51E13B
:101F200007C0AA1FBB1FA617B70710F0A61BB70B49
:101F3000881F991F5A95A9F780959095BC01CD01EE
:101F40000895052E97FB16F400940FD057FD05D089
:101F500014D007FC02D046F408C050954095309547
:101F600021953F4F4F4F5F4F089590958095709505
:101F700061957F4F8F4F9F4F0895A1E21A2EAA1BA4
:101F8000BB1BFD010DC0AA1FBB1FEE1FFF1FA21729
:101F9000B307E407F50720F0A21BB30BE40BF50B26
:101FA000661F771F881F991F1A9469F760957095AF
:101FB000809590959B01AC01BD01CF0108952F92B2
:101FC0003F924F925F926F927F928F929F92AF92C9
:101FD000BF92CF92DF92EF92FF920F931F93CF9316
:101FE000DF93CDB7DEB7CA1BDB0B0FB6F894DEBFAD
:101FF0000FBECDBF09942A88398848885F846E84D3
:102000007D848C849B84AA84B984C884DF80EE801C
:10201000FD800C811B81AA81B981CE0FD11D0FB625
:10202000F894DEBF0FBECDBFED010895AEE0B0E085
:10203000EBE1F0E1D2CF0D891E8986E08C831A8313
:1020400009838FEF9FE79E838D83AE01475E5F4FCD
:102050006F89788DCE0101961FD02F813885020FB0
:10206000131FF80110822E96E4E0D3CFAEE0B0E06B
:10207000EBE3F0E1B4CF85E08C838B899C899A8374
:102080008983AE01495E5F4F6D897E89CE010196DD
:102090007BD32E96E2E0BFCFAFE0B0E0E1E5F0E128
:1020A00091CF6C017B018A01DC0117961C921E9274
:1020B000169713968C9181FFDEC12AE0522EF6010D
:1020C0009381F70193FD859193FF81917F0188238F
:1020D00009F471C0853239F493FD859193FF8191A4
:1020E0007F01853221F4B60190E0C6D4E8CF912C6F
:1020F000612C712CFFE1F71508F445C08B32C1F15A
:10210000F0F48032B9F1833209F43AC0833609F42D
:1021100087C0833709F490C0833509F0B0C0F80157
:10212000A190B1908F01692D70E076FC02C06FEF35
:102130007FEFC5014CD44C01689477F85EC08D32B6
:10214000E1F0803351F020ED280F2A3048F18E3233
:1021500009F038C0689476F802C0689470F8F70106
:1021600093FD859193FF81917F018111C3CF32C08F
:10217000689471F8689472F8F2CF689473F8EFCFAE
:10218000689474F8ECCF77FC25C020ED280F2A3036
:1021900070F476FE05C0959C200D1124922EDFCFA1
:1021A000659C200D1124622E689475F8D8CF8E326C
:1021B00049F476FECFCFD60116968D919C912F963D
:1021C000EFE01CCF8C3619F4689477F8C8CF8836C6
:1021D00009F4C5CF982F9F7D9554933008F096CF82
:1021E0000C5F1F4F8FE3898388248394912CAE0169
:1021F0004F5F5F4F5A01E89477F873FC05C0862D56
:1022000090E08816990630F18114910449F5662012
:1022100009F455CFB60180E290E02ED46A94F7CF4E
:10222000D8018C9189830E5F1F4F88248394912C51
:10223000FE0131965F01DFCFD801AD90BD908D01D9
:10224000692D70E076FC02C06FEF7FEFC501CAD345
:102250004C01D1CFB60180E290E00ED46A94CFCF8A
:10226000F50177FC859177FE81915F01B60190E0E1
:1022700003D461106A94F1E08F1A9108C5CF8436B7
:1022800019F0893609F07DC0F80177FE73C06191BD
:102290007191819191918F01272D2F76822E97FF39
:1022A00009C090958095709561957F4F8F4F9F4F96
:1022B000689487F82AE030E0AE014F5F5F4F5A0123
:1022C00023D48A19A82EBA2C782C86FE0CC0E89448
:1022D00070F8A91440F484FE05C082FC03C0782D78
:1022E0007E7E772EB92C74FEA1C0FE01EA0DF11D91
:1022F0008081803309F093C0872D897E782E73FC0E
:102300000EC070FEA1C09A2CB61418F4960C9B183F
:10231000B62C862D8B196B1408F480E0B80EB61419
:1023200008F094C06B1874FE93C0B60180E390E08F
:10233000A3D372FE08C088E590E071FC02C088E774
:1023400090E0B60199D3A91408F48FC0AA94B12CD7
:102350009FEFA91AB90ADE0111964D01AA0EBB1E04
:10236000F50182915F01B60190E086D38A149B0447
:10237000B9F74DCF61917191072E000C880B990B25
:102380008ACF872CE89484F82AE030E0853769F01A
:10239000572D597F852E803769F110F5883569F101
:1023A0008F3609F008CF28E030E0F80187FE2DC015
:1023B00081919191A191B1918C879D87AE87BF87C3
:1023C0008F01BE016F5F7F4F5B01AB016C857D8527
:1023D0008E859F8599D38A19A82EE89487F873CFA4
:1023E000883709F0E8CE84FE02C0689482F820E1C4
:1023F00030E0DBCF689484F8F6CF74FE03C0652F1D
:102400006660862E20E132E0D0CF81919191AC01BF
:1024100060E070E04C875D876E877F87D1CF72FC6C
:1024200002C0B3946CCFB394B39469CF872D8678F0
:10243000882309F464CFF5CFB60180E290E01CD385
:1024400083948614C8F365CF8B2CFBCF612C6BCFA4
:10245000872D8678882309F476CF8BE271FE80E29F
:1024600077FC8DE2B60190E06DCFB60180E390E09D
:1024700003D39A9468CF8FEF9FEFA1CEFC01CA01DE
:10248000DB0120FD08C023FD05C022FF02C0B3838D
:10249000A283918380830895CF92DF92EF92FF927F
:1024A000CF93DF9300D000D0CDB7DEB76B017C01B6
:1024B00083E044FD10C084E046FD0DC0D601F70165
:1024C000AA0FBB1FEE1FFF1F1094D1F7CA0EDB1E11
:1024D000EE1EFF1E81E0CC0CDD1CEE1CFF1C8150AB
:1024E0008111F9CFD701C601820F911DA11DB11D28
:1024F000BC01CD010F900F900F900F90DF91CF9105
:10250000FF90EF90DF90CF9008950F931F93CF939C
:10251000DF938C01C80171D2EC0197FD06C044D253
:10252000892BC1F7B801CE01D7D2CE01DF91CF916F
:102530001F910F910895A0E0B0E0E0EAF2E146CDEE
:10254000082F992EC62F5A01122F57D2FC01992716
:10255000EB3219F08D9779F41068C150C11105C0A4
:1025600080E0CDB7DEB7EBE04DCD802F992D45D281
:10257000FC0197FDF5CFD12FDD7F812F8073811175
:102580002EC0E03361F5EE24EA94EC0EC13031F058
:10259000802F992D32D2FC0197FF14C0C12CD12C71
:1025A0007601D7FF08C0F094E094D094C094C11C89
:1025B000D11CE11CF11C2D2FB701A601C5015EDF66
:1025C00081E0CFCF8F7D883519F5D264C250CC23FE
:1025D00029F3802F992D11D2FC0197FDDFCFC12C5B
:1025E000D12C760120ED2E0F2830D0F0D4FD09C07B
:1025F0002A30B0F0D6FF05C02F7D8FEE820F8630D7
:1026000070F0602F792DCF0167D2D1FDCACFA8CF4E
:1026100016FF03C0D260CE2DE2CFD261FCCF27508F
:102620004D2FC701B60138DF6B017C01D260C1506C
:10263000CC2309F4B6CF802F992DDFD1FC0197FF71
:10264000D1CFE3CFA0E2B0E0E7E2F3E1BCCC6C0194
:10265000962E7A01CE0101965C0180E2F50111927D
:102660008A95E9F7F6018380890120E030E0B0E047
:10267000712CA0E041E050E0F80183FC959183FECD
:102680009191892F8F01911106C000E010E0C801DF
:10269000A096EEE0B4CC9E3539F42115310539F51C
:1026A000A1E02F5F3F4FE8CF6A2F70E062177307FA
:1026B000F4F49D3539F19D32D1F47720F1F0E82F13
:1026C000E695E695E695EA0DFB2DF11D682F6770FE
:1026D0003A0102C0660C771C6A95E2F79081962950
:1026E00090838B1769F08B1730F48F5FE8CF7110F0
:1026F000E6CFB92FE4CF8150E2CF77247394D1CFC6
:10270000712CCFCF772019F08E8180628E83AA231F
:1027100061F0F5019E012F5D3F4F8081DF01319611
:1027200080958C93E217F307C1F788248394C60140
:1027300064D197FD15C0E82FE695E695E695EA0D7C
:10274000FB2DF11D208130E0AC014770552702C000
:10275000359527954A95E2F720FD05C0B601BCD115
:10276000882059F092CFE114F10419F0F701819318
:102770007F019A94812C9110DACFE114F10409F4CD
:1027800086CFF701108283CFA6E0B0E0E9ECF3E159
:102790001ACC5C016D837E83742E652EDC01179646
:1027A0001C921E921697C12CD5011396FC90ED81B8
:1027B000FE81F3FC8591F3FE8191182FFE83ED835A
:1027C0008823D9F090E0F0D0892B19F0C5019DDE67
:1027D000EBCF153251F4ED81FE81F3FC1591F3FE40
:1027E0001191FE83ED83153259F4C50106D197FD91
:1027F0009EC01817C9F2B5016FD18C2D90E09BC017
:1028000000E01A3249F4ED81FE81F3FC1591F3FEEC
:102810001191FE83ED8301E0D12C20ED210F2A30B0
:1028200050F101FF3FC0DD2041F3183609F43DC0EF
:102830001C3609F446C0112301F3612F70E088E6CD
:1028400090E0BAD0892BC9F2E12CF12C00FD06C032
:10285000E72DF62DE190F1907E2E6F2E1E3609F0B9
:102860003AC0D50116964D915C9160E070E0202F42
:10287000C70104DE99CF02608D2D90E0A0E0B0E0AA
:1028800089839A83AB83BC8340E2BC01CD0104DE23
:10289000D62EED81FE81F3FC1591F3FE1191FE839E
:1028A000ED83BBCFDD24DA94C0CFED81FE81F3FC54
:1028B0001591F3FE1191FE83ED83183609F0BBCF1D
:1028C00008600460ED81FE81F3FC1591F3FE119127
:1028D000FE83ED83B0CF1336A9F401FD02C0DD24E1
:1028E000D394C5018AD097FD22C0E114F10419F0F8
:1028F000F70181937F01DA94D110F3CF00FD54CF1B
:10290000C39452CF1B35D1F42D813E81A7016D2D8B
:10291000C50198DE8D839E83ED81FE81EF2B71F7DB
:10292000D50113968C918073882309F466CF8FEFBD
:102930009FEFC11062CF2696EEE061CBC501E5DDC9
:1029400097FDF5CF1F3671F130F4143641F019368A
:1029500039F0006405C0133799F01537D1F70062DC
:10296000202FA7016D2DC501E6DD8823D8CFE11406
:10297000F10419F0F70181927F01DA94DD2059F01A
:10298000C5013BD04C0197FD06C00ED0892B79F3D1
:10299000B501C401A1D0E114F10409F4AFCFF701EE
:1029A0001082ACCF0061DCCF91110CC1803219F0E4
:1029B00089508550D0F70895FC010590061621F046
:1029C0000020D9F7C00108953197CF010895FC0187
:1029D0000590615070400110D8F7809590958E0F4A
:1029E0009F1F0895FC016150704001900110D8F7BD
:1029F000809590958E0F9F1F0895CF93DF93EC01E4
:102A00008B8180FF1BC086FF0CC08F7B8B838E81E8
:102A10009F8101969F838E838A8190E0DF91CF9181
:102A2000089582FF19C0E881F9819081292F092E2C
:102A3000000C330B911105C080628B838FEF9FEFE9
:102A4000EDCF3196F983E8838E819F8101969F8334
:102A50008E83C9019927E2CFEA85FB85CE010995CE
:102A60009C0197FFF1CF8B812F3F3F4F19F490E1ED
:102A7000892BE3CF90E2FCCF0F931F93CF93DF938B
:102A8000182F092FEB018B8181FD09C01FEF0FEF7C
:102A9000812F902FDF91CF911F910F91089582FF89
:102AA00014C02E813F818C819D81281739073CF409
:102AB000E881F981CF0101969983888310838E8103
:102AC0009F8101969F838E83E3CFE885F985812FCF
:102AD0000995892BA1F3DACFFB01238120FF11C0D7
:102AE00026FD0FC08F3F980771F082832F7D2064F1
:102AF0002383268137812150310937832683992703
:102B000008958FEF9FEF0895FA01AA27283051F119
:102B1000203181F1E8946F936E7F6E5F7F4F8F4F0E
:102B20009F4FAF4FB1E03ED0B4E03CD0670F781F6D
:102B3000891F9A1FA11D680F791F8A1F911DA11D52
:102B40006A0F711D811D911DA11D20D009F468948B
:102B50003F912AE0269F11243019305D3193DEF633
:102B6000CF010895462F4770405D4193B3E00FD0E9
:102B7000C9F7F6CF462F4F70405D4A3318F0495DD4
:102B800031FD4052419302D0A9F7EACFB4E0A695B7
:102B90009795879577956795BA95C9F700976105D9
:102BA000710508959B01AC010A2E0694579547952F
:102BB00037952795BA95C9F7620F731F841F951F24
:0E2BC000A01D0895992788270895F894FFCF47
:102BCE002F008C00E9004601A30100025D02BA024B
:102BDE0017037403D1030004FA00F401EE02E803B4
:102BEE00E204DC05D606D007C409B80BA00F2530C9
:102BFE0032753A253032752E25303275006C697378
:102C0E00740069676E697465720065646974007139
:102C1E0072007472696767657200636C73006B692A
:102C2E006C6C0064656661756C74006164636361ED
:102C3E006C001B5B33376D001B5B33336D002575EA
:0E2C4E003A25752E25750025753A257500006E
:00000001FF
