:100000000C943A020C9463020C9463020C94630205
:100010000C9463020C94B6080C9463020C94630273
:100020000C9463020C9463020C9463020C949B087E
:100030000C9463020C9463020C9463020C946302AC
:100040000C9463020C9463020C9463020C9463029C
:100050000C9463020C9463020C9463020C9463028C
:100060000C9463020C9463026364696E6F70737521
:1000700078585B000D0A41444D55583A20000D0A4E
:1000800044757263687363686E6974743A20000D16
:100090000A000A0D001B5B31440020001B5B314449
:1000A000000D0A000D0A4175737761686C3A2028CB
:1000B00045292D416E7AC3BC6E6465722C2028548C
:1000C00029616C6F6E2C2041626272756368206DCD
:1000D000697420616E646572657220546173746521
:1000E0003A2000452D414E5AC39C4E44455220288B
:1000F0003230206D73290054414C4F4E202832205D
:100100007329000D0A4465727A6569742065696E09
:1001100067657374656C6C74657320416E7AC3BCDB
:100120006E646D697474656C0D0A3D3D3D3D3D3DE9
:100130003D3D3D3D3D3D3D3D3D3D3D3D3D3D3D3DEF
:100140003D3D3D3D3D3D3D3D3D3D3D3D0D0A0A00B2
:100150000D0A0A0054726967676572000D0A0A0089
:100160002C2000547269676765720046697865647F
:100170003A20005661726961626C650D0A20202088
:10018000202020202020202020200020202020208F
:10019000202020202020002053202020202020204C
:1001A0002020202046697865643A20547269676788
:1001B00065720D0A0A000D0A0A536368616C746562
:1001C00072706F732E20466573742F566172696169
:1001D00062656C0A0D0053004465727A6569746942
:1001E000676520536368616C746572706F736974BE
:1001F000696F6E3A20003D3D3D3D3D3D3D3D3D3DFD
:100200003D3D3D3D3D3D3D3D3D3D3D3D0A0D000AF1
:100210000D416B7475656C6C652045696E73746512
:100220006C6C756E67656E0A0D000D0A000D0A0094
:100230000D0A5374657070696E74657276616C2016
:10024000286629657374206F646572202876296199
:1002500072696162656C3A20000D0A0A0054726985
:1002600067676572000D0A5365747A6520496E747C
:10027000657276616C6C206175663A20000D0A4EDD
:100280006575657220576572742028537465703ADD
:1002900020303A30302E3030202D20393A35392E6A
:1002A00039392C20742066C3BC722067657472696A
:1002B0006767657274656E2042657472696562294C
:1002C0003A20000D0A496E74657276616C6C6E7529
:1002D0006D6D65722028312D31352C2030206E69EE
:1002E00063687420C3A46E646572626172293A20E7
:1002F000000D0A004D6F64757320766572C3A46E9D
:100300006465726E20284D292C20496E74657276C2
:10031000616C6C20766572C3A46E6465726E202871
:100320004929206F64657220616262726563686545
:100330006E2028616E64657265205461737465294E
:100340003F20000D0A0A000D0A00547269676765B4
:100350007200293A20002D00202800203020285348
:1003600074617274293A20547269676765720D0A64
:10037000005661726961626C6520496E74657276BF
:10038000616C6C653A0D0A000D0A0A0054726967C7
:100390006765720046657374657320496E74657293
:1003A00076616C6C3A20003A0D0A000D0A0A0A0ABE
:1003B0000046657374657320496E74657276616C6E
:1003C0006C20286E6963687420C3A46E64657262D1
:1003D0006172293A205472696767657200533A0D59
:1003E0000A000A0D45696E7374656C6C756E6765FD
:1003F0006E20646572206465727A656974696765E8
:100400006E20536368616C7465727374656C6C758F
:100410006E67200020001B5D303B46554F434F2048
:100420005354455007001B5B334A001B5B303B3085
:1004300048001B5B324A00496E76616C6964204655
:100440006F726D617400496E76616C6964206368D7
:10045000617220696E2074696D65737472696E676C
:100460000A002D0030000A0D001B5B3144201B5B8D
:100470003144000014BE0FB6F894A8958091600036
:10048000886180936000109260000FBE11241FBE2F
:10049000CFEFD8E0DEBFCDBF11E0A0E0B1E0E6E3F2
:1004A000FFE202C005900D92AE38B107D9F721E006
:1004B000AEE8B1E001C01D92A639B207E1F70E9493
:1004C0003F040C9499170C940000CF93DF9300D055
:1004D000CDB7DEB780B7806880BF84E480937C00AE
:1004E00080917A00856080937A0080917A0080689C
:1004F00080937A0080917A00806480937A00809162
:100500007A0086FDFCCF80917800909179009A83E3
:10051000898389819A810F900F90DF91CF910895FF
:10052000CF93DF93CDB7DEB768970FB6F894DEBFF1
:100530000FBECDBF28E1E0E0F1E0DE0111960190B1
:100540000D922A95E1F720917C00287F20937C0072
:1005500090917C00982B90937C0020E290E080E0CA
:1005600030917A00306430937A0030917A0036FD11
:10057000FCCF4091780050917900840F951F215055
:1005800079F740969C0185E0369527958A95E1F7A5
:10059000FE01319680E0419151912417350720F0FA
:1005A0008F5F8C30C1F780E068960FB6F894DEBF9D
:1005B0000FBECDBFDF91CF9108951F93CF93DF93EF
:1005C00000D000D000D0CDB7DEB720917C00287FCE
:1005D00020937C0090917C00982B90937C0010E2FB
:1005E0001E821D8280917A00806480937A008091BF
:1005F0007A0086FDFCCF80917800909179002D8162
:100600003E81280F391F3E832D839C0150E040E03E
:1006100029833A834B835C8344E669817A818B81A9
:100620009C810E94FB0F8FE890E00E94DE0F11502A
:10063000C9F64D815E81405F5F4F5A8349838EE7E3
:1006400090E00E94DE0F89819A8125E0969587953A
:100650002A95E1F79C0150E040E029833A834B83DF
:100660005C8344E669817A818B819C810E94FB0FC7
:1006700084E790E00E94DE0F80917C00282F30E01C
:1006800050E040E029833A834B835C8348E66981EC
:100690007A818B819C8126960FB6F894DEBF0FBEBF
:1006A000CDBFDF91CF911F910C94FB0F9C01F99965
:1006B000FECF32BD21BDF89A80B512BC11BC0895A1
:1006C0009B01F999FECF32BD21BD80BDFA9AF99AFE
:1006D00012BC11BC08951F93CF93DF93EC010E94CD
:1006E0005603182FCE0101960E945603912FDF91D9
:1006F000CF911F9108951F93CF93DF93182F892FC8
:10070000EB010E946003BE016F5F7F4F812FDF917D
:10071000CF911F910C946003419A089582E086B9AD
:100720000895419808955C9A089580E189B90895E3
:100730005C980895409A089581E086B9089540989C
:100740000895429A089584E086B9089542980895DC
:10075000429840985C9841980895429A409A5C9AD1
:10076000419A089586B18695817030998260329958
:1007700084604C99886008950E949103399A0E9480
:100780009803549A0E949F03389A0E94A6033A9AAB
:100790000895439A239A3B9A229A259A2B982A984D
:1007A0002D9893E020E234E084E123B923B981500D
:1007B000E1F733B933B99150B9F78BED95E0019773
:1007C000F1F700C0000043988CB581658CBD089599
:1007D00043980895439A08952B982D982A989EBD82
:1007E0000DB407FEFDCF8EBD0DB407FEFDCF84E036
:1007F00083B983B908955B9A5398E8E6F0E0808165
:1008000084608083ADE6B0E08C9188608C935298D0
:1008100080818460808345983D9A0895FC0175B578
:1008200016BC81E085BB80EA86BD85E085BD41E0E0
:1008300050E002C0440F551F6A95E2F780E095E54D
:10084000B1E0A0EA208130E02423352361E01216D4
:1008500013060CF060E0990F962BA89BFECFB5BB5A
:10086000A6BD883008F48F5F2FEF290F2E3F50F37D
:10087000883040F375BD81E0911180E00895CDB7D7
:10088000DEB7C65AD1400FB6F894DEBF0FBECDBF5B
:100890000FB6F894A89580916000886180936000FD
:1008A000109260000FBE45983D9A86E1E8E1F1E0C4
:1008B000DE01A159BE4F01900D928A95E1F79E018C
:1008C0002F5F3F4F39018AE491E0D901FC011D926D
:1008D0003197E9F7FE01EB56FE4F1192119289E034
:1008E000DF011D928A95E9F7FE01EB57FE4F119249
:1008F00011928EE0DF011D928A95E9F7FE01E15920
:10090000FE4F2F011901C901DF0130E020E04D91B8
:100910005D91FC016FE0C056DE4F6883C05AD14044
:1009200041935193C056DE4F6881C05AD140615007
:10093000C056DE4F6883C05AD1406111F1CF4E9648
:10094000215F3F4F253A310511F710E000E0FE012D
:10095000E55BFE4F1192119282E2DF011D928A95B2
:10096000E9F70E94C90380916400806C8093640061
:1009700080B7806880BF0E94360F0E94FB030E94F0
:10098000BC030E94650260E875E280E090E00E948E
:100990005C0F81E090E00E9456038F3F09F4EBC0AA
:1009A000FE01EB56FE4F5F016DE0C62ED12C72E0CA
:1009B000E72EF12CC7010E945603D5018D935D01EE
:1009C000C6010E946B03F201819391932F01FFEF07
:1009D000EF1AFF0A22E0C20ED11C3DE0E316F1043B
:1009E00049F741E4C42ED12C53E2A52EB12C41018C
:1009F0007501C7010E946B03D4018D939D934D0136
:100A0000B2E0EB0EF11CEC14FD0499F7EEE1AE0E32
:100A1000B11CFEE12F0E311C2EE1C20ED11C3BE8B1
:100A2000C31631E0D30619F78DE691E00E94560314
:100A3000582E48EC841711F0B2E05B2E89B18C700F
:100A400080938E0181E0809394017894812C912C85
:100A500044244394F12CE12C8BE491E08C0F9D1FF6
:100A60008396CD55DE4F99838883C35AD140FBE4EA
:100A70002F2E332433942C0E3D1E9FEF291A390A52
:100A8000ABE4AA2EBB24B394AC0EBD1EA3E0AA0E09
:100A9000B11CE5E8F1E0EC0FFD1F7096CB55DE4F81
:100AA000F983E883C55AD140809194018823F9F0F5
:100AB000DFB6F8941092940163E089E290E00E941E
:100AC0000E04C056DE4F8883C05AD140882309F4F3
:100AD000A3C084E00E949002982E80916D008460F3
:100AE00080936D000E94930344244394DFBE809161
:100AF000C00087FB10F910FF67C1FFB7CF55DE4F6D
:100B0000F883C15AD140F8941E7F0E948C030E9442
:100B1000AC0FC55BDE4F8883CB54D140813509F4DF
:100B20009EC008F093C098EF980F963048F421E0EB
:100B300001C0220F9A95EAF7922F957209F089C0A9
:100B40000E940411C55BDE4F8883CB54D1400E94C4
:100B5000BD0FC1010E940A118111B8C08CE990E05B
:100B60000E94DE0F8AE990E00E94DE0F85E990E0A6
:100B70000E94DE0F6EC0CE018B569E4F4C01DE01EF
:100B8000A159BE4F5D012DE0C22ED12C32E0E32EE3
:100B9000F12CB701F40181914F010E946003B6016D
:100BA000D5018D919D915D010E947B03BFEFEB1AF2
:100BB000FB0AE2E0CE0ED11CFDE0EF16F10449F78E
:100BC00081E4C82ED12C93E2A92EB12C7501B70176
:100BD000D2018D919C910E947B03B2E0EB0EF11C3F
:100BE000CE14DF04A1F7EEE1AE0EB11CF2E04F0E21
:100BF000511C2EE1C20ED11C3BE8C31631E0D306D6
:100C000029F761E070E080E00E9460036DE671E02A
:100C100082E00E94600308CF459880916D008B7F31
:100C200080936D001B7C1092950190E080E00E9403
:100C3000EC030E94530F0E944D0F0E9498030E94E4
:100C4000A6030E949F03F12CE12C50CF8F3709F0AF
:100C500077CFC55BDE4F1882CB54D14037C081E5DA
:100C60000E94BD0F0E94AC0FC45BDE4F8883CC5442
:100C7000D1400E94AC0FC35BDE4F8883CD54D1407E
:100C8000C45BDE4F9881CC54D1409737F9F4813A58
:100C9000E9F4EBE4CE2EDD24D394CC0EDD1E33E05C
:100CA000C30ED11C0E94AC0FD6018D936D01CD55A2
:100CB000DE4FE881F981C35AD140AE17BF0791F7E3
:100CC000C259DE4F1882CE56D14000626EE271E00A
:100CD000CE01855B9E4F0E94ED0F8111106463E38E
:100CE00071E0CE01855B9E4F0E94ED0FD52C8823CD
:100CF00051F0852D0E94900DD82E581621F06DE6EA
:100D000071E00E9460036BE371E0CE01855B9E4F52
:100D10000E94ED0F8111026060E471E0CE01855BFD
:100D20009E4F0E94ED0F8111046063E471E0CE01DB
:100D3000855B9E4F0E94ED0F882319F0F1E0F09340
:100D400095016BE471E0CE01855B9E4F0E94ED0F33
:100D500081110E94DB086FE471E0CE01855B9E4F3C
:100D60000E94ED0F8111086064E571E0CE01855BA2
:100D70009E4F0E94ED0F882331F061E070E08FEF0D
:100D80000E94600308606CE571E0CE01855B9E4FB8
:100D90000E94ED0F882319F084E00E94DD020E947A
:100DA0009103C55BDE4F8881CB54D14081508E3F8B
:100DB00020F482E990E00E94DE0FCF55DE4F2881BB
:100DC000C15AD1402FBF5D2C16FF11C0DFB6F89479
:100DD0001F7B84E00E949002982EAE014B565E4F1E
:100DE000BE0161597E4FC3010E94960CDFBE01FF18
:100DF00011C0DFB6F8940D7F84E00E949002982E17
:100E0000AE014B565E4FBE0161597E4FC3010E9439
:100E10005809DFBE02FF11C0DFB6F8940B7F84E0F3
:100E20000E949002982EAE014B565E4FBE01615952
:100E30007E4FC3010E94680BDFBE05FF0DC08FB758
:100E4000F8940F7D9E012B563E4FAE0141595E4FE7
:100E5000B301C5010E94FA0B03FF10C0F8940E9471
:100E6000EA0388E19EE00FB6F894A89580936000AD
:100E70000FBE909360000E94DB08FFCF15FF48C0B3
:100E8000992009F445C031E0341508F041C0A92D7E
:100E9000A150BB0BCD01E5E9F1E0EC0FFD1FEA0F1E
:100EA000FB1F2081222309F412C1BFE0B89F9001EB
:100EB000B99F300D1124F901E40DF11D3297EE0FA9
:100EC000FF1FE60DF71D808191818036EAEE9E07B7
:100ED00009F42AC140919101509192014817590794
:100EE000B8F081E0840DE82FF0E0E250F048E20F26
:100EF000F31FEE0FFF1FE60DF71D812C982D980FA5
:100F0000913128F421913191232B09F4DEC0146032
:100F1000809195018823F1F0DFB6F8941092950145
:100F200015FD17C00E949A03809194018111F3C0AE
:100F3000C056DE4F2881C05AD140222309F4E8C0B0
:100F40001460992031F0106280916D008B7F809346
:100F50006D00DFBE12FF56C04FB7CF55DE4F48833E
:100F6000C15AD140F8941B7FC056DE4F6881C05AE9
:100F7000D140662309F440C0442009F43DC080E11B
:100F80008415D0F110610E94A10381E0840D880DC9
:100F9000CE55DE4F8883C25AD14080E190E0D12CFB
:100FA000C12C242D30E0CC0CDD1CA901480D511DB5
:100FB0008417950721F46894C0F881108A940197EA
:100FC00091F780918F0190919001C82AD92A459A72
:100FD000C6010E94EC03D0929001C0928F01109242
:100FE0009201109291010E94530F0E94470FCE551B
:100FF000DE4F4880C25AD140CF55DE4F9881C15A4A
:10100000D1409FBF14FF35C080919301882389F19F
:101010005FB7F8941092930113FB442740F9FE0147
:10102000EB57FE4FF12CE12C81E090E020918F01F5
:101030003091900128233923232B31F020812F5F19
:10104000251508F06CC02083880F991F3196CB5569
:10105000DE4FA881B981C55AD140AE17BF0731F71D
:1010600040FB13F980918F0190919001E826F926B9
:101070005FBF13FF19CDDFB6F894177FC7010E9439
:10108000EC03F0929001E0928F01E114F10421F45D
:1010900045981F7E0E94A603B0E1B41558F41F7D49
:1010A0000E944D0F0E94530F1092920110929101D5
:1010B0004424439415FD07C00E949F0380916D0056
:1010C000846080936D00DFBEEFCC839417CF880FD0
:1010D000991FEFE6F1E0EC0FFD1FE80FF91F80818B
:1010E00091818036FAEE9F07F9F04091910150917D
:1010F00092014817590708F40BCF892B31F421E0EE
:1011000081E0840D813108F020E01460822E00CF50
:101110000E949F031ECF31E0309395011ACFE82A39
:10112000F92A108241E090CF1F7D80916D0084608C
:1011300080936D00EDCE8F938FB78F939F938091A7
:101140009101909192010196909392018093910167
:1011500080918F0190919001009719F081E0809328
:1011600093019F918F918FBF8F9118958F938FB718
:101170008F939F9389B18C7090918E0198279830AE
:1011800051F09C3091F0943049F491E0843031F486
:101190009093950103C091E09093940180938E0108
:1011A0009F918F918FBF8F91189591E090939401AB
:1011B0008430A1F7EDCF82E394E00E94DE0F8BE252
:1011C00094E00E94DE0F86E294E00E94DE0F86E14A
:1011D00094E00C94DE0FCF92DF92EF92FF921F9378
:1011E000CF93DF93CDB7DEB72A970FB6F894DEBF63
:1011F0000FBECDBF69837A838B839C83142F29878D
:1012000089819A81AB81BC818D839E83AF83B887AE
:101210001A868AE0C82ED12CE12CF12C8D819E817A
:10122000AF81B885892B8A2B8B2B19F589819A81FF
:10123000AB81BC81B7FF05C09985992311F091500E
:101240009987A985BA85AB1720F5412F69817A81E5
:101250008B819C812A960FB6F894DEBF0FBECDBF5E
:10126000DF91CF911F91FF90EF90DF90CF900C9482
:10127000FB0F6D817E818F819885A70196010E9469
:1012800078112D833E834F8358879A859F5F9A8775
:10129000C5CF89859A85891B8D83BD81BB23A9F222
:1012A00084E194E00E94DE0FAD81A150AD83F5CFC3
:1012B0003F924F925F926F927F928F929F92AF92E6
:1012C000BF92CF92DF92EF92FF920F931F93CF9333
:1012D000DF93CDB7DEB76A970FB6F894DEBF0FBEC7
:1012E000CDBF6C012B018A0184E00E949002782E10
:1012F00082EE93E00E94DE0F711024C08DED93E02A
:101300000E94DE0F81EB93E00E94DE0F8BEA93E0F8
:101310000E94DE0F6A960FB6F894DEBF0FBECDBFF7
:10132000DF91CF911F910F91FF90EF90DF90CF90C1
:10133000BF90AF909F908F907F906F905F904F90F5
:101340003F900895872D90E0B0E0A0E08F8B988FBC
:10135000A98FBA8F44E6BC01CD010E94FB0F7A949D
:1013600087EA93E00E94DE0F93E7791699F2E72C63
:10137000F12C0E0D1F1DD8018C9181113BC084E909
:1013800093E00E94DE0FF701EE0FFF1FE40DF51D45
:10139000808191818036BAEE9B0739F1BE01655F8D
:1013A0007F4F0E94020FCE010B960E94CE0F88E85D
:1013B00093E00E94DE0F84EF92E00E94DE0F0E9415
:1013C000AC0FB82E8823D9F30E94BD0F81EF92E0B5
:1013D0000E94DE0F8B2D8062893609F476C08D362F
:1013E00009F44FC18AE292E093CF8CE893E00E9427
:1013F000DE0FDDCF81E793E00E94DE0F8BE593E007
:101400000E94DE0FEFE07E9E50011124AA0CBB1C4F
:10141000AC0CBD1C81E090E0A0E0B0E08F8B988F19
:10142000A98FBA8F22E044E66F89788D898D9A8DD5
:101430000E94EB0888E593E00E94DE0F22E044E67C
:101440006F89788D898D9A8D0E94EB0886E593E0EF
:101450000E94DE0F8F89988DA98DBA8D0196A11DEE
:10146000B11D8F8B988FA98FBA8F22E044E6BC0103
:10147000CD010E94EB0882E593E00E94DE0FD501CA
:101480008D919D915D018036BAEE9B07C9F0BE013A
:10149000655F7F4F0E94020FCE010B960E94CE0F18
:1014A00087E493E00E94DE0F8F89988DA98DBA8D15
:1014B0004097A105B10509F0B5CF83E493E079CF5A
:1014C0008AE493E00E94DE0FEBCFD8018C91FE01FD
:1014D00031965F0181115BC066246A948DE792E0CA
:1014E0000E94DE0F1A821982FE01339688E0DF0126
:1014F0001D928A95E9F7450179E0372E3A0C0E9452
:10150000AC0F982F9062943709F087C084E50E9451
:10151000BD0F60E6A62E6AEEB62E85E692E00E942A
:10152000DE0FE0E6AE16EAEEBE0609F49AC0BE0192
:10153000655F7F4FC5010E94020FCE010B960E948E
:10154000CE0F89E592E00E94DE0FD8018C918823AE
:1015500009F48CC0862D90E09C01BFE07B9E200D9D
:10156000311D1124220F331FC20ED31EF601B1828A
:10157000A082FEE17F9EB00111246D5D7F4F880F38
:10158000991F680F791FC5010E947B032BCF83EC45
:1015900092E00E94DE0F1E8A1D8A1A8219821C8226
:1015A0001B824501E3E06E2E6A0C0E94AC0F90EDA9
:1015B000980F9A3028F08A3011F08D3019F480E0BD
:1015C000D4018C93F40181914F01811121C0CE018E
:1015D00045969F938F9385E791E09F938F93BF925A
:1015E000AF920E94BA116D897E89CB0101970F904D
:1015F0000F900F900F900F900F9066246A94660ED4
:101600000F9708F46BCFD8018C918111EBCE64CF8A
:101610000E94BD0F6810C9CFDACF90ED980F9A30B5
:1016200050F08A30B9F08D30A9F08A3321F0982F2C
:101630009D7F9C3211F4F4018083D4018D914D0182
:1016400081110AC0C5010E94BA0D5C01019609F41E
:10165000C9CE63CF80E0EFCF0E94BD0F38104FCFCF
:10166000F1CF8DE592E00E94DE0F6BCFEE0CFF1CF8
:10167000F201EE0DFF1DB182A082B701635F7F4FC3
:1016800082CF80E392E00E94DE0F0E94AC0FD82E42
:101690008823D9F30E94BD0F8DE292E00E94DE0FF5
:1016A000D8019C918D2D8062863661F41C92D80100
:1016B0008C91891709F496CEB7016E5F7F4F0E9417
:1016C000600390CE863799F781E0F8018083EFCFF1
:1016D000CF92DF92EF92FF920F931F93CF93DF93FE
:1016E000CDB7DEB7A2970FB6F894DEBF0FBECDBF61
:1016F0008C017B016A011A821982FE01339680E215
:10170000DF011D928A95E9F784E00E949002811121
:101710002EC0FE013196CE014F963AEE20E632837E
:10172000238332968E179F07D1F781EA898381E957
:1017300089A38E010F5F1F4F7E01E3E2EE0EF11CC5
:10174000D8018D918D010E94BD0FE016F106C1F701
:10175000A2960FB6F894DEBF0FBECDBFDF91CF913A
:101760001F910F91FF90EF90DF90CF900895EFEFD2
:10177000E80F8F702E2F30E0D601A20FB31F9C917F
:1017800040E0911140E8840F8A83911119C0F9015A
:10179000EE0FFF1FEE0DFF1D918120813181322759
:1017A000232732273C832B83FE0131969E01235E43
:1017B0003F4F848395833296E217F307D1F7B5CF75
:1017C000BFE0EB9FF0011124EE0FFF1FE00FF11FB0
:1017D000DE011196CE014F9620813181329612960C
:1017E0003C93129713962C9313971296A817B90748
:1017F00099F79BCF8F929F92AF92BF92CF92DF9239
:10180000EF92FF921F93CF93DF93EC016B014A019C
:10181000790184E00E9490021FEF180F1B3008F03E
:1018200051C09881292F2F7028134CC0A12EB12CA4
:10183000EA0CFB1C97FF52C081E0F70180834FE068
:10184000149FF0011124EE0FFF1FEC0DFD1D9E01F2
:10185000225E3F4F898190E0982F88274A81840F2C
:10186000911D8193919322962C173D0799F7B5010D
:101870006E5F7F4FF70180810E946003F7018081D6
:101880008823E9F1FEE11F9F900111244FE0149F8E
:10189000C0011124880F991FE601C80FD91F7901D3
:1018A00083E2E80EF11C6901E1E4CE0ED11CB70120
:1018B000899199910E947B03F2E0EF0EF11CCE1406
:1018C000DF04A9F7DF91CF911F91FF90EF90DF9098
:1018D000CF90BF90AF909F908F900895F7011082A6
:1018E000F501EE0FFF1FE80DF91D898190E0982F9B
:1018F00088272A81820F911D91838083B8CFAA0CFB
:10190000BB1CB501635F7F4FA80CB91CF50180813A
:101910009181DF91CF911F91FF90EF90DF90CF9059
:10192000BF90AF909F908F900C947B032F923F922B
:101930004F925F926F927F928F929F92AF92BF92DF
:10194000CF92DF92EF92FF920F931F93CF93DF938B
:10195000CDB7DEB72E970FB6F894DEBF0FBECDBF62
:101960005C014B01D42E152F0E94DB088FE092E022
:101970000E94DE0F86EF91E00E94DE0F88ED91E07D
:101980000E94DE0F84E00E949002082F882309F451
:1019900091C090E0B0E0A0E044E6BC01CD010E941F
:1019A000FB0F86EB91E00E94DE0F83E691E00023BF
:1019B00011F089E691E00E94CE0F87E991E00E9444
:1019C000DE0FED2CF12E412C512C32010150110B68
:1019D00083E691E00415150511F089E691E00E9477
:1019E000CE0FD301C2010196A11DB11D8B879C872B
:1019F000AD87BE8722E044E6BC01CD010E94EB0822
:101A00008BE891E00E94DE0F6701D7018C9188235B
:101A100009F45AC083E791E00E94DE0FBFEFEB1A92
:101A2000FB0AF6018081882309F45BC0FEE1F49D86
:101A30006001F59DD00C1124CA0CDB1C512CD60181
:101A40008D919D916D018036BAEE9B0709F03FC0E4
:101A500083E691E00E94DE0FEEE080E691E05E1208
:101A600002C08CE591E00E94DE0F5394FFE05F120C
:101A7000E6CF8B859C85AD85BE850B97A105B1050D
:101A8000F1F42E960FB6F894DEBF0FBECDBFDF91F6
:101A9000CF911F910F91FF90EF90DF90CF90BF906B
:101AA000AF909F908F907F906F905F904F903F90FE
:101AB0002F90089586ED91E00E94DE0F72CF4B8447
:101AC0005C846D847E8484CF8BE691E0A5CFBE01DB
:101AD0006F5F7F4F0E94020FCE0101960E94CE0FD2
:101AE000BBCF1201220C331C280C391CD1018D9163
:101AF0009C918036BAEE9B0771F0BE016F5F7F4FFD
:101B00000E94020FCE0101960E94CE0F80E591E067
:101B10000E94DE0FAECF84E591E00E94DE0FF6CF8B
:101B2000CF93DF93D82F83E091E00E94DE0F87EF01
:101B300090E0D83C11F083EE90E00E94DE0F84EA42
:101B400090E00E94DE0F0E94AC0FC82F8823D9F3CB
:101B50000E94BD0F81EA90E00E94DE0FC062C53690
:101B600039F0C43709F4D8EC8D2FDF91CF91089567
:101B7000D2E0FACFFF920F931F93CF93DF9300D061
:101B800000D000D0CDB7DEB7FC011E821D821C82C2
:101B90001B821A8219821186DC010D900020E9F760
:101BA0001197FA2EF81A88E08F1508F455C0F11035
:101BB00055C08FEF9FEF17C19E3239F09F3209F465
:101BC00066C09E529D3030F062C0313009F45FC073
:101BD000242F31E04F5FF41247C03323A1F0BF013F
:101BE0006F0D711DAB0142505109DA019C919E327B
:101BF00029F490E3DB019C9311961C92DF01A20F64
:101C0000B11D13961C92880F830F90819A3309F0AF
:101C100043C0982F9460823009F484C0833009F463
:101C200042C0813009F0A4C09E012F5F3F4F93FF57
:101C30008BC03F932F9384E791E09F938F93FF9303
:101C4000EF930E94BA110F900F900F900F900F908A
:101C50000F901E821D8240C088E0F82EBF0140E038
:101C600024E130E080E05EE2DB019D91BD018D0169
:101C7000015011099C3211F4D8015C93D8019C9158
:101C80009A3309F099CF8F5F823009F0A3CF86E4B1
:101C900094E00E94DE0F8DCF9E3219F4982F986049
:101CA000BACF982FB8CFAE014F5F5F4F9E012D5F27
:101CB0003F4F92FF26C05F934F933F932F9381E74F
:101CC00091E09F938F93FF93EF930E94BA110FB609
:101CD000F894DEBF0FBECDBF8D819E818A30910505
:101CE00008F08DC0892B21F08B819C81CC9730F43A
:101CF00029813A812436310508F451C087E394E004
:101D0000C8CF5F934F933F932F93CE0105969F9338
:101D10008F938FE691E09F938F93FF93EF930E94B1
:101D2000BA11D5CFCE0103969F938F9302969F93BE
:101D30008F9388E791E09F938F93FF93EF930E9497
:101D4000BA111A821982C3CF3F932F93CE01039603
:101D50009F938F9382E791E09F938F93FF93EF93ED
:101D60000E94BA110FB6F894DEBF0FBECDBF71CF7F
:101D7000CE0103969F938F9385E791E09F938F9376
:101D8000FF93EF930E94BA111E821D821A8219825C
:101D90000F900F900F900F900F900F909DCF8B8111
:101DA0009C818C33910540F06CE370E00E944211FD
:101DB0007E836D839C838B836D817E8140E757E1B9
:101DC000649FC001659F900D749F900D11246B81DD
:101DD0007C81E4E6E69FA001E79F500D1124840F6B
:101DE000951F820F931F26960FB6F894DEBF0FBE85
:101DF000CDBFDF91CF911F910F91FF90089580E6A5
:101E00009AEEF1CFCF93DF939C01462FE72F203638
:101E10008AEE380748F5C4E6D0E0C901BE010E9449
:101E200042119F938F93C90160E777E10E944211AD
:101E30009B01BE010E9442117F936F933F932F93AA
:101E40008EE791E09F938F93EF934F930E949711AA
:101E50008DB79EB70A960FB6F8949EBF0FBE8DBF82
:101E600080E0DF91CF91089581E0FBCF8BE49DE18D
:101E70009093890080938800E1E8F0E08081886099
:101E80008083EFE6F0E08081826080830895E1E85E
:101E9000F0E08081826080830895E1E8F0E0808155
:101EA000887F8083089581E086BB10928500109220
:101EB00084000895089508950F931F93CF93DF939F
:101EC00000D000D00F92CDB7DEB78B019C014FB789
:101ED0004D83F894DC01CB0143E0880F991FAA1FC2
:101EE000BB1F4A95D1F7AC01BD0140585247644A27
:101EF0007F4F49835A836B837C83A901980164E0F7
:101F0000220F331F441F551F6A95D1F769817A81CB
:101F10008B819C810E945611BA01A901415051093F
:101F200061097109BB27A72F962F852F8093C500C4
:101F30004093C40088E18093C10086E08093C20092
:101F40005D815FBF0F900F900F900F900F90DF910A
:101F5000CF911F910F91089580E89DE8ABE5B0E027
:101F60000197A109B10939F02091C00027FFF8CFEE
:101F70008091C600089580E0089540E85DE86BE533
:101F800070E0415051096109710921F09091C00040
:101F900095FFF7CF8093C60080E00895CF93DF933D
:101FA000EC0190E08991882311F0992319F0DF91D9
:101FB000CF9108950E94BD0F982FF4CFCF93DF9358
:101FC000EC01FE018491882329F00E94BD0F219627
:101FD0008823B9F3DF91CF910895DB01FC018D9146
:101FE0009191811104C081E0911103C00895891776
:101FF000B1F380E0FBCF4F925F926F927F928F920E
:102000009F92AF92BF92CF92DF92EF92FF920F9387
:102010001F93CF93DF93CDB7DEB7A1970FB6F89498
:10202000DEBF0FBECDBF6B017C011A821982FE019B
:1020300033968FE1DF011D928A95E9F7423661F10F
:1020400020F5423449F1483411F1C114D104E104BE
:10205000F10409F09DC084E694E0A1960FB6F894CF
:10206000DEBF0FBECDBFDF91CF911F910F91FF90CB
:10207000EF90DF90CF90BF90AF909F908F907F9028
:102080006F905F904F900C94DE0F4836F1F680E031
:102090008E010F5F1F4F62C0D701C601F7FE07C058
:1020A00088279927DC018C199D09AE09BF0940E8F2
:1020B000842E912CA12CB12C8F3F9105A105B10547
:1020C00081F07CF0812C912CA12C50E8B52E8F3F13
:1020D0009F4FA105B1052CF4812C30E8932EA12C43
:1020E000B12CD701C60188219921AA21BB21892BB6
:1020F0008A2B8B2B19F580E30E94BD0FB694A79411
:102100009794879481149104A104B10451F7A19686
:102110000FB6F894DEBF0FBECDBFDF91CF911F91F8
:102120000F91FF90EF90DF90CF90BF90AF909F9076
:102130008F907F906F905F904F90089581E3DCCFF8
:10214000F801E80FF11D9C2D9F70908394E0F594A9
:10215000E794D794C7949A95D1F78F5FC114D104AF
:10216000E104F10469F7882359F380FD8F5F78015A
:10217000E80EF11CE016F10651F2D7018E917D01B7
:102180008A3020F0895C0E94BD0FF4CF805DFBCFC8
:1021900010E0F7FE09C0F094E094D094C094C11C04
:1021A000D11CE11CF11C11E0FE0131965F014F01D1
:1021B00000E08AE0482E512C612C712C0F5FC70182
:1021C000B601A30192010E947811D4016D934D01D3
:1021D00069017A01C114D104E104F10411F0013262
:1021E00069F7112321F082E694E00E94DE0F0A0DC8
:1021F0001B2D111DF80182918F01805D0E94BD0F82
:10220000A016B106B9F783CF9FEB980F9A3108F467
:10221000806208950F931F93CF93DF938C01D0E0DA
:102220000E94AC0F0E940411C82F8D30B1F08A308B
:10223000A1F0883011F08F3789F4D11108C0F8016E
:1022400010828D2FDF91CF911F910F910895D15062
:1022500089E694E00E94DE0FE3CFC0E0F801ED0FC5
:10226000F11DC0838C2F0E94BD0FCC2341F0DF5F96
:10227000DD31B1F686E694E00E94DE0FE2CFDD2389
:1022800001F3F8CFAA1BBB1B51E107C0AA1FBB1F5C
:10229000A617B70710F0A61BB70B881F991F5A95F2
:1022A000A9F780959095BC01CD010895A1E21A2E61
:1022B000AA1BBB1BFD010DC0AA1FBB1FEE1FFF1FEA
:1022C000A217B307E407F50720F0A21BB30BE40B3A
:1022D000F50B661F771F881F991F1A9469F7609581
:1022E0007095809590959B01AC01BD01CF0108953B
:1022F000052E97FB1EF400940E948F1157FD07D006
:102300000E94561107FC03D04EF40C948F11509587
:102310004095309521953F4F4F4F5F4F08959095D1
:102320008095709561957F4F8F4F9F4F0895AEE0D8
:10233000B0E0EDE9F1E10C9470170D891E8986E09B
:102340008C831A8309838FEF9FE79E838D83AE0171
:10235000475E5F4F6F89788DCE0101960E94D31141
:102360002F813885020F131FF80110822E96E4E0AA
:102370000C948C17AEE0B0E0E0ECF1E10C94721735
:1023800085E08C838B899C899A838983AE01495E21
:102390005F4F6D897E89CE0101960E9432152E967F
:1023A000E2E00C948E17AFE0B0E0E9EDF1E10C94BF
:1023B00062177C013B018A01DC0117961C921E9278
:1023C000169713968C9181FFC3C19AE0292EFE01C6
:1023D00031964F01D70113969C91F30193FD85919E
:1023E00093FF81913F01882309F448C1853239F474
:1023F00093FD859193FF81913F01853229F4B701C7
:1024000090E00E94B916E6CFB12C412C512CBFE1CF
:10241000B51538F08B3209F188F4803201F183323E
:1024200021F157FC3AC020ED280F2A3040F556FE26
:102430001FC0B29C200D1124B22E06C08D3291F027
:10244000803379F7689450F8F30193FD859193FFF9
:1024500081913F018111DBCF20C0689451F86894CD
:1024600052F8F2CF689453F8EFCF689454F8ECCF59
:10247000429C200D1124422E689455F8E5CF8E32EF
:1024800029F456FCFBC0689456F8DECF8C3619F45C
:10249000689457F8D9CF8836B9F2982F9F7D955414
:1024A0009330C0F08336A1F18337C1F1833509F051
:1024B0005BC0D801CD90DD908D016B2D70E056FC96
:1024C00002C06FEF7FEFC6010E9465165C01689441
:1024D00057F80AC00C5F1F4FEFE3E983AA24A394C7
:1024E000B12C6401E89457F853FC04C04A141B044F
:1024F00009F018F5342CA114B10431F5332009F496
:1025000069CFB70180E290E00E94B9163A94F6CF05
:10251000D8018C9189830E5F1F4FE0CFF801C190E5
:10252000D1908F016B2D70E056FC02C06FEF7FEFF2
:10253000C6010E9470165C01D5CFB70180E290E021
:102540000E94B9164A94D2CFF60157FC859157FEE6
:1025500081916F01B70190E00E94B91631103A9451
:10256000B1E0AB1AB108C7CF843619F0893609F04B
:1025700074C0F80157FE6AC0619171918191919187
:102580008F01E52DEF76DE2E97FF09C0909580959F
:10259000709561957F4F8F4F9F4F6894D7F82AE0D1
:1025A00030E0A4010E940117C82EC818AC2C5D2C85
:1025B000D6FE0CC0E89450F8CB1440F4D4FE05C00D
:1025C000D2FC03C05D2D5E7E552EAB2C54FE98C010
:1025D000FE01EC0DF11D8081803309F08AC0652D6C
:1025E000697E562E752D7870372E53FC98C050FE9C
:1025F00092C0BC2CA41418F44C0CB42CBA1854FE81
:1026000094C0B70180E390E00E94B91652FE09C061
:1026100088E790E051FE02C088E590E0B7010E9493
:10262000B916CB1408F48DC0CA94D12C8FEFC81AF8
:10263000D80AC80CD91CD6018E916D01B70190E063
:102640000E94B9168C149D04B1F758CF6191719115
:10265000072E000C880B990B93CFD52CE894D4F857
:102660002AE030E0853739F1F52DF97FDF2E80370C
:10267000A9F058F48835A9F08F36D9F0F701868192
:1026800097812F96E2E10C947E178837B9F7D4FE34
:1026900002C06894D2F820E130E00DC06894D4F80C
:1026A000F6CF54FE03C02F2F2660D22E20E132E059
:1026B00002C028E030E0F801D7FE15C041915191E9
:1026C000619171914C875D876E877F878F01A4012F
:1026D0006C857D858E859F850E940117C82EC81840
:1026E000E894D7F863CF81919191AC0170E060E0FC
:1026F000E9CF52FC02C0A39475CFA394A39472CFE8
:10270000852D867809F46ECFF6CFB70180E290E090
:102710000E94B916A394A414C0F3312C70CF342CAA
:102720003A18A41408F46BCFF8CF852D867809F4F5
:1027300078CF8BE251FE80E257FC8DE2B70190E04A
:102740006ECFB70180E390E00E94B916BA9469CFCA
:102750008FEF9FEF96CFFC01CA01DB0120FD08C07F
:1027600023FD05C022FF02C0B383A283918380832F
:102770000895CF92DF92EF92FF92CF93DF9300D034
:1027800000D0CDB7DEB76B017C0183E044FD10C003
:1027900084E046FD0DC0D601F701AA0FBB1FEE1F56
:1027A000FF1F1094D1F7CA0EDB1EEE1EFF1E81E044
:1027B000CC0CDD1CEE1CFF1C8150D1F7D701C601EB
:1027C000820F911DA11DB11DBC01CD010F900F9075
:1027D0000F900F90DF91CF91FF90EF90DF90CF900F
:1027E00008950F931F93CF93DF938C01C8010E942C
:1027F0007B16EC0197FD08C00E945116892BB1F79A
:10280000B801CE010E94E916CE01DF91CF911F9150
:102810000F910895B0E0A0E0E0E1F4E10C946A17B4
:102820008C01C62F5A01F22E0E947B16FC019927BB
:10283000EB3221F08D9781F46894F7F8C15031F4B0
:1028400080E0CDB7DEB7EAE00C948617C8010E949D
:102850007B16FC0197FDF4CFDF2DDD7F8F2D80737C
:1028600009F5E033F9F4EE24EA94EC0EC13091F06E
:10287000C8010E947B16FC0197FD0CC08F7D883536
:1028800069F4D264C25031F0C8010E947B16FC0189
:1028900097FF08C0C12CD12C76011CC0F6FE2CC0BD
:1028A000D260CE2DC12CD12C760120ED2E0F2830F8
:1028B00030F1D4FD09C02A3010F1D6FF05C02F7DBC
:1028C0008FEE820F8630D0F0B801CF010E94E9165A
:1028D000D1FFB6CFD7FF08C0F094E094D094C09455
:1028E000C11CD11CE11CF11C2D2FB701A601C50193
:1028F0000E94AB1381E0A5CFD261D3CF27504D2FDB
:10290000C701B6010E94B9136B017C01D260C150AE
:1029100009F3C8010E947B16FC0197FFC6CFD8CFF0
:10292000A0E2B0E0E6E9F4E10C9468176C01962EA1
:102930007A01CE0101965C0180E2F50111928A953F
:10294000E9F7F6018380890150E040E0B0E020E043
:10295000A0E061E070E0F80183FC959183FE919125
:10296000892F8F01911107C010E000E0C801A096E7
:10297000ECE00C9484179E3519F44115510531F1A2
:10298000A4171506ECF49D3549F19D32C9F42223B4
:1029900009F1E82FE695E695E695EA0DFB2DF11D88
:1029A000982F97709B0101C0220F9A95EAF79081AA
:1029B000292B20838B1781F08B1730F48F5FE9CFA1
:1029C0002111E7CFB92FE5CF8150E3CFA1E04F5FD1
:1029D0005F4FC1CF21E0FBCF20E0F9CF222319F0D8
:1029E0008E8180628E83AA2361F0F5019E012F5DA6
:1029F0003F4F8081DF01319680958C93E217F3077A
:102A0000C1F788248394C6010E947B1697FD16C0E7
:102A1000E82FE695E695E695EA0DFB2DF11D208160
:102A200030E0AC014770552702C0359527954A958F
:102A3000E2F720FD06C0B6010E94E916882059F091
:102A400093CFE114F10419F0F70181937F019A9477
:102A5000812C9110D8CFE114F10409F487CFF7014C
:102A6000108284CFA6E0B0E0E8E3F5E10C946617AD
:102A70005C016D837E83742E652EDC0117961C929B
:102A80001E921697C12CD5011396FC90ED81FE8104
:102A9000F3FC8591F3FE8191182FFE83ED8388234B
:102AA000F9F090E00E945116892B21F0C5010E9497
:102AB000F113E9CF153251F4ED81FE81F3FC15914C
:102AC000F3FE1191FE83ED83153269F4C5010E9476
:102AD0007B1697FDA2C01817B1F2B5010E94E91646
:102AE0008C2D90E09EC000E01A3249F4ED81FE8109
:102AF000F3FC1591F3FE1191FE83ED8301E0D12CDF
:102B000020ED210F2A3060F101FF42C0DD2041F3AA
:102B1000183609F440C01C3609F449C0112301F3EA
:102B2000612F70E088E690E00E945A16892BC1F26E
:102B3000F12CE12C00FD06C0E72DF62DE190F1907F
:102B40007E2E6F2E1E3609F03CC0D50116964D9193
:102B50005C9170E060E0202FC7010E94AB1393CF1F
:102B600002608D2D90E0B0E0A0E089839A83AB8372
:102B7000BC8340E2BC01CD010E94B913D62EED8189
:102B8000FE81F3FC1591F3FE1191FE83ED83B8CF26
:102B9000DD24DA94BDCFED81FE81F3FC1591F3FEC7
:102BA0001191FE83ED83183609F0B8CF08600460F8
:102BB000ED81FE81F3FC1591F3FE1191FE83ED830F
:102BC000ADCF1336B1F401FD02C0DD24D394C501AD
:102BD0000E947B1697FD21C0E114F10419F0F70162
:102BE00081937F01DA94D110F2CF00FD4CCFC394D2
:102BF0004ACF1B35D1F42D813E81A7016D2DC50132
:102C00000E9490148D839E83ED81FE81EF2B69F7E6
:102C1000F5018381807309F463CF8FEF9FEFC110BB
:102C20005FCF2696EEE00C948217C5010E94F11347
:102C300097FDF3CF1F3699F130F4143641F0193671
:102C400039F0006405C01337A9F01537D1F70062D9
:102C5000202FA7016D2DC5010E940A148111C5CF37
:102C6000D7CFE114F10419F0F70181927F01DA94D2
:102C7000DD2071F0C5010E947B164C0197FD08C054
:102C80000E945116892B69F3B501C4010E94E9160F
:102C9000E114F10409F4A9CFD7011C92A6CF006179
:102CA000D7CF91110C945F17803219F0895085505D
:102CB000C8F70895FC010590061621F00020D9F709
:102CC000C00108953197CF010895FC01059061502E
:102CD00070400110D8F7809590958E0F9F1F089532
:102CE000FC016150704001900110D8F780959095DB
:102CF0008E0F9F1F0895CF93DF93EC018B8180FF90
:102D000033C086FF0CC08F7B8B838E819F810196A1
:102D10009F838E838A8190E0DF91CF91089582FF17
:102D200015C0E881F9819081292F092E000C330B01
:102D300080629923C1F03196F983E8838E819F8167
:102D400001969F838E83C9019927E6CFEA85FB858B
:102D5000CE0109959C0197FFF1CF8B812F3F3F4F0B
:102D600031F090E2892B8B838FEF9FEFD5CF90E1ED
:102D7000F9CF0F931F93CF93DF93182F092FEB01F8
:102D80008B8181FD09C01FEF0FEF812F902FDF9105
:102D9000CF911F910F91089582FF14C02E813F8122
:102DA0008C819D81281739073CF4E881F981CF0196
:102DB00001969983888310838E819F8101969F83DA
:102DC0008E83E3CFE885F985812F0995892BA1F3BF
:102DD000DACFFB01238120FF11C026FD0FC08F3FFA
:102DE000980771F082832F7D2064238326813781A9
:102DF0002150310937832683992708958FEF9FEF5C
:102E00000895FA01AA27283051F1203181F1E89480
:102E10006F936E7F6E5F7F4F8F4F9F4FAF4FB1E0CD
:102E20003ED0B4E03CD0670F781F891F9A1FA11DC8
:102E3000680F791F8A1F911DA11D6A0F711D811DC9
:102E4000911DA11D20D009F468943F912AE0269F8E
:102E500011243019305D3193DEF6CF010895462FED
:102E60004770405D4193B3E00FD0C9F7F6CF462FCE
:102E70004F70405D4A3318F0495D31FD4052419337
:102E800002D0A9F7EACFB4E0A695979587957795F4
:102E90006795BA95C9F700976105710508959B017B
:102EA000AC010A2E06945795479537952795BA9504
:102EB000C9F7620F731F841F951FA01D08959927DE
:102EC000882708952F923F924F925F926F927F9240
:102ED0008F929F92AF92BF92CF92DF92EF92FF922A
:102EE0000F931F93CF93DF93CDB7DEB7CA1BDB0BD6
:102EF0000FB6F894DEBF0FBECDBF09942A8839887B
:102F000048885F846E847D848C849B84AA84B98481
:102F1000C884DF80EE80FD800C811B81AA81B9818D
:102F2000CE0FD11D0FB6F894DEBF0FBECDBFED01A1
:062F30000895F894FFCFA4
:102F36002F008C00E9004601A30100025D02BA02DF
:102F460017037403D1030004FA00F401EE02E80348
:102F5600E204DC05D606D007C409B80BA00F6C69DD
:102F660073740069676E69746572006564697400DC
:102F76007172007472696767657200636C73006BC7
:102F8600696C6C0064656661756C7400616463638A
:102F9600616C001B5B33336D001B5B33376D0025A3
:102FA600753A25752E25750025753A257500253047
:0E2FB60032753A253032752E25303275000006
:00000001FF
