:100000000C943A020C9463020C9463020C94630205
:100010000C9463020C948E080C9463020C9463029B
:100020000C9463020C9463020C9463020C947308A6
:100030000C9463020C9463020C9463020C946302AC
:100040000C9463020C9463020C9463020C9463029C
:100050000C9463020C9463020C9463020C9463028C
:100060000C9463020C9463026364696E6F70737521
:1000700078585B000D0A41444D55583A20000D0A4E
:1000800044757263687363686E6974743A20000D16
:100090000A000A0D001B5B31440020001B5B314449
:1000A000000D0A000D0A4175737761686C3A2028CB
:1000B00045292D416E7AC3BC6E6465722C2028548C
:1000C00029616C6F6E2C2041626272756368206DCD
:1000D000697420616E646572657220546173746521
:1000E0003A2000452D414E5AC39C4E44455220288B
:1000F0003230206D73290054414C4F4E202832205D
:100100007329000D0A4465727A6569742065696E09
:1001100067657374656C6C74657320416E7AC3BCDB
:100120006E646D697474656C0D0A3D3D3D3D3D3DE9
:100130003D3D3D3D3D3D3D3D3D3D3D3D3D3D3D3DEF
:100140003D3D3D3D3D3D3D3D3D3D3D3D0D0A0A00B2
:100150000D0A0A0054726967676572000D0A0A0089
:100160002C2000547269676765720046697865647F
:100170003A20005661726961626C650D0A20202088
:10018000202020202020202020200020202020208F
:10019000202020202020002053202020202020204C
:1001A0002020202046697865643A20547269676788
:1001B00065720D0A0A000D0A0A536368616C746562
:1001C00072706F732E20466573742F566172696169
:1001D00062656C0A0D0053004465727A6569746942
:1001E000676520536368616C746572706F736974BE
:1001F000696F6E3A20003D3D3D3D3D3D3D3D3D3DFD
:100200003D3D3D3D3D3D3D3D3D3D3D3D0A0D000AF1
:100210000D416B7475656C6C652045696E73746512
:100220006C6C756E67656E0A0D000D0A000D0A0094
:100230000D0A5374657070696E74657276616C2016
:10024000286629657374206F646572202876296199
:1002500072696162656C3A20000D0A0A0054726985
:1002600067676572000D0A5365747A6520496E747C
:10027000657276616C6C206175663A20000D0A4EDD
:100280006575657220576572742028537465703ADD
:1002900020303A30302E3030202D20393A35392E6A
:1002A00039392C20742066C3BC722067657472696A
:1002B0006767657274656E2042657472696562294C
:1002C0003A20000D0A496E74657276616C6C6E7529
:1002D0006D6D65722028312D31352C2030206E69EE
:1002E00063687420C3A46E646572626172293A20E7
:1002F000000D0A004D6F64757320766572C3A46E9D
:100300006465726E20284D292C20496E74657276C2
:10031000616C6C20766572C3A46E6465726E202871
:100320004929206F64657220616262726563686545
:100330006E2028616E64657265205461737465294E
:100340003F20000D0A0A000D0A00547269676765B4
:100350007200293A20002D00202800203020285348
:1003600074617274293A20547269676765720D0A64
:10037000005661726961626C6520496E74657276BF
:10038000616C6C653A0D0A000D0A0A0054726967C7
:100390006765720046657374657320496E74657293
:1003A00076616C6C3A20003A0D0A000D0A0A0A0ABE
:1003B0000046657374657320496E74657276616C6E
:1003C0006C20286E6963687420C3A46E64657262D1
:1003D0006172293A205472696767657200533A0D59
:1003E0000A000A0D45696E7374656C6C756E6765FD
:1003F0006E20646572206465727A656974696765E8
:100400006E20536368616C7465727374656C6C758F
:100410006E67200020001B5D303B46554F434F2048
:100420005354455007001B5B334A001B5B303B3085
:1004300048001B5B324A00496E76616C6964204655
:100440006F726D617400496E76616C6964206368D7
:10045000617220696E2074696D65737472696E676C
:100460000A002D0030000A0D001B5B3144201B5B8D
:100470003144000014BE0FB6F894A8958091600036
:10048000886180936000109260000FBE11241FBE2F
:10049000CFEFD8E0DEBFCDBF11E0A0E0B1E0E4E5F2
:1004A000FEE202C005900D92AE38B107D9F721E007
:1004B000AEE8B1E001C01D92A639B207E1F70E9493
:1004C0003F040C9428170C940000CF93DF9300D0C6
:1004D000CDB7DEB780B7806880BF84E480937C00AE
:1004E00080917A00856080937A0080917A0080689C
:1004F00080937A0080917A00806480937A00809162
:100500007A0086FDFCCF80917800909179009A83E3
:10051000898389819A810F900F90DF91CF910895FF
:10052000CF93DF93CDB7DEB768970FB6F894DEBFF1
:100530000FBECDBF28E1E0E0F1E0DE0111960190B1
:100540000D922A95E1F720917C00287F20937C0072
:1005500090917C00982B90937C0020E290E080E0CA
:1005600030917A00306430937A0030917A0036FD11
:10057000FCCF4091780050917900840F951F215055
:1005800079F740969C0185E0369527958A95E1F7A5
:10059000FE01319680E0419151912417350720F0FA
:1005A0008F5F8C30C1F780E068960FB6F894DEBF9D
:1005B0000FBECDBFDF91CF9108951F93CF93DF93EF
:1005C00000D000D000D0CDB7DEB720917C00287FCE
:1005D00020937C0090917C00982B90937C0010E2FB
:1005E0001E821D8280917A00806480937A008091BF
:1005F0007A0086FDFCCF80917800909179002D8162
:100600003E81280F391F3E832D839C0150E040E03E
:1006100029833A834B835C8344E669817A818B81A9
:100620009C810E948A0F8FE890E00E946D0F11500C
:10063000C9F64D815E81405F5F4F5A8349838EE7E3
:1006400090E00E946D0F89819A8125E096958795AB
:100650002A95E1F79C0150E040E029833A834B83DF
:100660005C8344E669817A818B819C810E948A0F38
:1006700084E790E00E946D0F80917C00282F30E08D
:1006800050E040E029833A834B835C8348E66981EC
:100690007A818B819C8126960FB6F894DEBF0FBEBF
:1006A000CDBFDF91CF911F910C948A0F9C01F999D6
:1006B000FECF32BD21BDF89A80B512BC11BC0895A1
:1006C0009B01F999FECF32BD21BD80BDFA9AF99AFE
:1006D00012BC11BC08951F93CF93DF93EC010E94CD
:1006E0005603182FCE0101960E945603912FDF91D9
:1006F000CF911F9108951F93CF93DF93182F892FC8
:10070000EB010E946003BE016F5F7F4F812FDF917D
:10071000CF911F910C946003419A089582E086B9AD
:100720000895419808955C9A089580E189B90895E3
:100730005C980895409A089581E086B9089540989C
:100740000895429A089584E086B9089542980895DC
:10075000429840985C9841980895429A409A5C9AD1
:10076000419A089586B18695817030998260329958
:1007700084604C99886008950E949103399A0E9480
:100780009803549A0E949F03389A0E94A6033A9AAB
:100790000895439A239A3B9A229A259A2B982A984D
:1007A0002D9893E020E234E084E123B923B981500D
:1007B000E1F733B933B99150B9F78BED95E0019773
:1007C000F1F700C0000043988CB581658CBD089599
:1007D00043980895439A08952B982D982A989EBD82
:1007E0000DB407FEFDCF8EBD0DB407FEFDCF84E036
:1007F00083B983B908955B9A5398E8E6F0E0808165
:1008000084608083ADE6B0E08C9188608C935298D0
:1008100080818460808345983D9A0895FC0175B578
:1008200016BC81E085BB80EA86BD85E085BD41E0E0
:1008300050E002C0440F551F6A95E2F780E095E54D
:10084000B1E0A0EA208130E02423352361E01216D4
:1008500013060CF060E0990F962BA89BFECFB5BB5A
:10086000A6BD883008F48F5F2FEF290F2E3F50F37D
:10087000883040F375BD81E0911180E00895CDB7D7
:10088000DEB7C45AD1400FB6F894DEBF0FBECDBF5D
:100890000FB6F894A89580916000886180936000FD
:1008A000109260000FBE45983D9A86E1E8E1F1E0C4
:1008B000DE01A159BE4F01900D928A95E1F79E018C
:1008C0002F5F3F4F39018AE491E0D901FC011D926D
:1008D0003197E9F7FE01EB56FE4F1192119289E034
:1008E000DF011D928A95E9F7FE01EB57FE4F119249
:1008F00011928EE0DF011D928A95E9F7FE01E15920
:10090000FE4F2F011901C901DF0130E020E04D91B8
:100910005D91FC016FE0C056DE4F6883C05AD14044
:1009200041935193C056DE4F6881C05AD140615007
:10093000C056DE4F6883C05AD1406111F1CF4E9648
:10094000215F3F4F253A310511F710E000E0FE012D
:10095000E55BFE4F1192119282E2DF011D928A95B2
:10096000E9F70E94C90380916400806C8093640061
:1009700080B7806880BF0E94C50E0E94FB030E9462
:10098000BC030E94650260E875E280E090E00E948E
:10099000EB0E81E090E00E9456038F3F09F4E0C027
:1009A000FE01EB56FE4F5F01FDE0CF2ED12CA2E001
:1009B000EA2EF12CC7010E945603D5018D935D01EB
:1009C000C6010E946B03F201819391932F01FFEF07
:1009D000EF1AFF0A22E0C20ED11C3DE0E316F1043B
:1009E00049F771E4C72ED12CE3E2AE2EB12C4101C0
:1009F0007501C7010E946B03D4018D939D934D0136
:100A0000B2E0EB0EF11CEC14FD0499F7EEE1AE0E32
:100A1000B11CFEE12F0E311C2EE1C20ED11C3BE8B1
:100A2000C31631E0D30619F78DE691E00E94560314
:100A3000382E48EC841711F022E0322E89B18C70E8
:100A400080938E0181E0809394017894412C512C05
:100A5000DD24D394F12CE12C222423948BE4882EE2
:100A6000992493948C0E9D1E6FEF861A960A9BE430
:100A7000A92EBB24B394AC0EBD1E83E0A80EB11CFE
:100A8000A5E8B1E0AC0FBD1F5096CD55DE4FB98340
:100A9000A883C35AD140809194018823F9F0CFB63E
:100AA000F8941092940163E089E290E00E940E04B1
:100AB000C056DE4F8883C05AD140882309F4A2C0B3
:100AC00084E00E949002582E80916D008460809393
:100AD0006D000E949303DD24D394CFBE8091C000AB
:100AE00087FB10F910FF49C1BFB7CF55DE4FB88360
:100AF000C15AD140F8941E7F0E948C030E943B0F84
:100B0000C55BDE4F8883CB54D1408E3008F094C053
:100B1000883058F098EF980FE22D01C0EE0F9A95AB
:100B2000EAF79E2F957209F08AC00E949310C55B68
:100B3000DE4F8883CB54D1400E944C0FC4010E94E9
:100B40009910811181C08CE990E00E946D0F8AE9B3
:100B500090E00E946D0F85E990E00E946D0F6FC0DC
:100B6000CE018B569E4F4C01DE01A159BE4F5D0157
:100B70005DE0C52ED12C62E0E62EF12CB701F40128
:100B800081914F010E946003B601D5018D919D9125
:100B90005D010E947B03BFEFEB1AFB0AE2E0CE0E81
:100BA000D11CFDE0EF16F10449F731E4A32EB12C7E
:100BB00043E2C42ED12C7601B701D2018D919C91D4
:100BC0000E947B03B2E0EB0EF11CEA14FB04A1F7D8
:100BD000EEE1CE0ED11CF2E04F0E511C9701225EC9
:100BE0003F4F59013DE6E31631E0F30621F761E09E
:100BF00070E080E00E9460036DE671E082E00E9498
:100C0000600312CF459880916D008B7F80936D00BB
:100C10001B7C1092950190E080E00E94EC030E9402
:100C2000E20E0E94DC0E0E9498030E94A6030E941E
:100C30009F03F12CE12C51CF8F3709F076CFC55BA4
:100C4000DE4F1882CB54D1406EE271E0CE01855B5D
:100C50009E4F0E947C0F8111106463E371E0CE010E
:100C6000855B9E4F0E947C0FC32C882351F0832DFF
:100C70000E941F0DC82E381621F06DE671E00E940B
:100C800060036BE371E0CE01855B9E4F0E947C0F99
:100C90008111026060E471E0CE01855B9E4F0E948D
:100CA0007C0F81110460C55BDE4F8881CB54D1403D
:100CB0008137B1F4C45BDE4F8881CC54D140873793
:100CC00079F4C35BDE4F8881CD54D140813A41F441
:100CD000C359DE4F8881CD56D140813909F4006275
:100CE00063E471E0CE01855B9E4F0E947C0F811111
:100CF000209295016BE471E0CE01855B9E4F0E94CE
:100D00007C0F81110E94B3086FE471E0CE01855B16
:100D10009E4F0E947C0F8111086064E571E0CE0156
:100D2000855B9E4F0E947C0F882331F061E070E06C
:100D30008FEF0E94600308606CE571E0CE01855B77
:100D40009E4F0E947C0F882319F084E00E94DD02F0
:100D50000E949103C55BDE4F8881CB54D140815006
:100D60008E3F20F482E990E00E946D0FCF55DE4F58
:100D7000F881C15AD140FFBF3C2C16FF11C0CFB63D
:100D8000F8941F7B84E00E949002582EAE014B56CF
:100D90005E4FBE0161597E4FC3010E94250CCFBE3C
:100DA00001FF11C0CFB6F8940D7F84E00E9490023D
:100DB000582EAE014B565E4FBE0161597E4FC301A6
:100DC0000E943009CFBE02FF11C0CFB6F8940B7F4E
:100DD00084E00E949002582EAE014B565E4FBE0139
:100DE00061597E4FC3010E94400BCFBE05FF0DC06D
:100DF0008FB7F8940F7D9E012B563E4FAE0141599F
:100E00005E4FB301C5010E94D20B03FF10C0F894DE
:100E10000E94EA0388E19EE00FB6F894A8958093BB
:100E200060000FBE909360000E94B308FFCF15FFD3
:100E300048C0552009F445C021E02D1508F041C0F7
:100E4000A52DA150BB0BCD01E5E9F1E0EC0FFD1F95
:100E5000EA0FFB1F2081222309F412C1BFE0B89FD3
:100E60009001B99F300D1124F901ED0DF11D32975C
:100E7000EE0FFF1FE60DF71D808191818036EAEEAF
:100E80009E0709F429C140919101509192014817A0
:100E90005907B8F081E08D0DE82FF0E0E250F048FE
:100EA000E20FF31FEE0FFF1FE60DF71D412C942DEF
:100EB000980F913128F421913191232B09F4DEC050
:100EC0001460809195018823F1F0CFB6F8941092C8
:100ED000950115FD17C00E949A038091940181111C
:100EE000F3C0C056DE4F2881C05AD140222309F4F6
:100EF000E8C01460552031F0106280916D008B7F46
:100F000080936D00CFBE12FF56C03FB7CF55DE4F66
:100F10003883C15AD140F8941B7FC056DE4F4881B8
:100F2000C05AD140442309F440C0DD2009F43DC03B
:100F300060E16D15D0F110610E94A10381E08D0D7B
:100F4000840DCE55DE4F8883C25AD14020E130E077
:100F500090E080E04D2D50E0880F991FBA01640D9C
:100F6000711D2617370719F4816041104A942150EA
:100F7000310991F7C0908F01D0909001C82AD92AE9
:100F8000459AC6010E94EC03D0929001C0928F0155
:100F900010929201109291010E94E20E0E94D60ED0
:100FA000CE55DE4FD880C25AD140CF55DE4F888112
:100FB000C15AD1408FBF14FF35C08091930188235F
:100FC00089F15FB7F8941092930113FB442740F91D
:100FD000FE01EB57FE4FF12CE12C81E090E02091D7
:100FE0008F013091900128233923232B31F0208168
:100FF0002F5F231508F06BC02083880F991F31964F
:10100000CD55DE4FA881B981C35AD140AE17BF0775
:1010100031F740FB13F980918F0190919001E82600
:10102000F9265FBF13FF37CDCFB6F894177FC701FE
:101030000E94EC03F0929001E0928F01E114F10420
:1010400021F445981F7E0E94A603B0E1BD1558F417
:101050001F7D0E94DC0E0E94E20E109292011092FF
:101060009101DD24D39415FD07C00E949F03809158
:101070006D00846080936D00CFBE0DCD439417CF7B
:10108000880F991FEFE6F1E0EC0FFD1FE80FF91F45
:10109000808191818036FAEE9F07F1F040919101B5
:1010A000509192014817590708F40BCF892B31F45E
:1010B00021E081E08D0D813108F020E01460422EA6
:1010C00000CF0E949F031ECF209295011BCFE82ADC
:1010D000F92A108241E091CF1F7D80916D008460DC
:1010E00080936D00EECE8F938FB78F939F938091F7
:1010F00091019091920101969093920180939101B8
:1011000080918F0190919001009719F081E0809378
:1011100093019F918F918FBF8F9118958F938FB768
:101120008F939F9389B18C7090918E0198279830FE
:1011300051F09C3091F0943049F491E0843031F4D6
:101140009093950103C091E09093940180938E0158
:101150009F918F918FBF8F91189591E090939401FB
:101160008430A1F7EDCF82E394E00E946D0F8BE213
:1011700094E00E946D0F86E294E00E946D0F86E17C
:1011800094E00C946D0FCF92DF92EF92FF921F9339
:10119000CF93DF93CDB7DEB72A970FB6F894DEBFB3
:1011A0000FBECDBF69837A838B839C83142F2987DD
:1011B00089819A81AB81BC818D839E83AF83B887FF
:1011C0001A868AE0C82ED12CE12CF12C8D819E81CB
:1011D000AF81B885892B8A2B8B2B19F589819A8150
:1011E000AB81BC81B7FF05C09985992311F091505F
:1011F0009987A985BA85AB1720F5412F69817A8136
:101200008B819C812A960FB6F894DEBF0FBECDBFAE
:10121000DF91CF911F91FF90EF90DF90CF900C94D2
:101220008A0F6D817E818F819885A70196010E942A
:1012300007112D833E834F8358879A859F5F9A8736
:10124000C5CF89859A85891B8D83BD81BB23A9F272
:1012500084E194E00E946D0FAD81A150AD83F5CF84
:101260003F924F925F926F927F928F929F92AF9236
:10127000BF92CF92DF92EF92FF920F931F93CF9383
:10128000DF93CDB7DEB76A970FB6F894DEBF0FBE17
:10129000CDBF6C012B018A0184E00E949002782E60
:1012A00082EE93E00E946D0F711024C08DED93E0EB
:1012B0000E946D0F81EB93E00E946D0F8BEA93E02B
:1012C0000E946D0F6A960FB6F894DEBF0FBECDBFB9
:1012D000DF91CF911F910F91FF90EF90DF90CF9012
:1012E000BF90AF909F908F907F906F905F904F9046
:1012F0003F900895872D90E0B0E0A0E08F8B988F0D
:10130000A98FBA8F44E6BC01CD010E948A0F7A945E
:1013100087EA93E00E946D0F93E7791699F2E72C24
:10132000F12C0E0D1F1DD8018C9181113BC084E959
:1013300093E00E946D0FF701EE0FFF1FE40DF51D06
:10134000808191818036BAEE9B0739F1BE01655FDD
:101350007F4F0E94910ECE010B960E945D0F88E890
:1013600093E00E946D0F84EF92E00E946D0F0E9447
:101370003B0FB82E8823D9F30E944C0F81EF92E0E7
:101380000E946D0F8B2D8062893609F476C08D36F0
:1013900009F44FC18AE292E093CF8CE893E00E9477
:1013A0006D0FDDCF81E793E00E946D0F8BE593E039
:1013B0000E946D0FEFE07E9E50011124AA0CBB1C11
:1013C000AC0CBD1C81E090E0A0E0B0E08F8B988F6A
:1013D000A98FBA8F22E044E66F89788D898D9A8D26
:1013E0000E94C30888E593E00E946D0F22E044E666
:1013F0006F89788D898D9A8D0E94C30886E593E068
:101400000E946D0F8F89988DA98DBA8D0196A11DAF
:10141000B11D8F8B988FA98FBA8F22E044E6BC0153
:10142000CD010E94C30882E593E00E946D0FD501B3
:101430008D919D915D018036BAEE9B07C9F0BE018A
:10144000655F7F4F0E94910ECE010B960E945D0F4B
:1014500087E493E00E946D0F8F89988DA98DBA8DD6
:101460004097A105B10509F0B5CF83E493E079CFAA
:101470008AE493E00E946D0FEBCFD8018C91FE01BE
:1014800031965F0181115BC066246A948DE792E01A
:101490000E946D0F1A821982FE01339688E0DF01E7
:1014A0001D928A95E9F7450179E0372E3A0C0E94A2
:1014B0003B0F982F9062943709F087C084E50E9413
:1014C0004C0F60E6A62E6AEEB62E85E692E00E94EC
:1014D0006D0FE0E6AE16EAEEBE0609F49AC0BE0154
:1014E000655F7F4FC5010E94910ECE010B960E9451
:1014F0005D0F89E592E00E946D0FD8018C918823E1
:1015000009F48CC0862D90E09C01BFE07B9E200DED
:10151000311D1124220F331FC20ED31EF601B182DA
:10152000A082FEE17F9EB00111246D5D7F4F880F88
:10153000991F680F791FC5010E947B032BCF83EC95
:1015400092E00E946D0F1E8A1D8A1A8219821C82E7
:101550001B824501E3E06E2E6A0C0E943B0F90ED6A
:10156000980F9A3028F08A3011F08D3019F480E00D
:10157000D4018C93F40181914F01811121C0CE01DE
:1015800045969F938F9385E791E09F938F93BF92AA
:10159000AF920E9449116D897E89CB0101970F900E
:1015A0000F900F900F900F900F9066246A94660E24
:1015B0000F9708F46BCFD8018C918111EBCE64CFDB
:1015C0000E944C0F6810C9CFDACF90ED980F9A3077
:1015D00050F08A30B9F08D30A9F08A3321F0982F7D
:1015E0009D7F9C3211F4F4018083D4018D914D01D3
:1015F00081110AC0C5010E94490D5C01019609F4E0
:10160000C9CE63CF80E0EFCF0E944C0F38104FCF90
:10161000F1CF8DE592E00E946D0F6BCFEE0CFF1CB9
:10162000F201EE0DFF1DB182A082B701635F7F4F13
:1016300082CF80E392E00E946D0F0E943B0FD82E74
:101640008823D9F30E944C0F8DE292E00E946D0F27
:10165000D8019C918D2D8062863661F41C92D80150
:101660008C91891709F496CEB7016E5F7F4F0E9467
:10167000600390CE863799F781E0F8018083EFCF41
:10168000CF92DF92EF92FF920F931F93CF93DF934E
:10169000CDB7DEB7A2970FB6F894DEBF0FBECDBFB1
:1016A0008C017B016A011A821982FE01339680E265
:1016B000DF011D928A95E9F784E00E949002811172
:1016C0002EC0FE013196CE014F963AEE20E63283CF
:1016D000238332968E179F07D1F781EA898381E9A8
:1016E00089A38E010F5F1F4F7E01E3E2EE0EF11C16
:1016F000D8018D918D010E944C0FE016F106C1F7C3
:10170000A2960FB6F894DEBF0FBECDBFDF91CF918A
:101710001F910F91FF90EF90DF90CF900895EFEF22
:10172000E80F8F702E2F30E0D601A20FB31F9C91CF
:1017300040E0911140E8840F8A83911119C0F901AA
:10174000EE0FFF1FEE0DFF1D9181208131813227A9
:10175000232732273C832B83FE0131969E01235E93
:101760003F4F848395833296E217F307D1F7B5CFC5
:10177000BFE0EB9FF0011124EE0FFF1FE00FF11F00
:10178000DE011196CE014F9620813181329612965C
:101790003C93129713962C9313971296A817B90798
:1017A00099F79BCFCF92DF92EF92FF920F931F9307
:1017B000CF93DF93EC017B016A01890184E00E94F1
:1017C00090029FEF980F9B3038F54881242F2F709F
:1017D000281322C0292F30E0F801E20FF31F47FF42
:1017E00024C081E080832FE0929FC0011124880FE4
:1017F000991FF701E80FF91FAE01425E5F4F898123
:1018000090E0982F88272A81820F911D81939193D0
:1018100022964C175D0799F7DF91CF911F910F9199
:10182000FF90EF90DF90CF9008951082220F331F2A
:10183000C20ED31E898190E0982F88272A81820FBB
:10184000911DF60191838083E7CF2F923F924F92B3
:101850005F926F927F928F929F92AF92BF92CF9240
:10186000DF92EF92FF920F931F93CF93DF93CDB749
:10187000DEB72E970FB6F894DEBF0FBECDBF5C016A
:101880004B01D42E152F0E94B3088FE092E00E94E6
:101890006D0F86EF91E00E946D0F88ED91E00E9440
:1018A0006D0F84E00E949002082F882309F491C0F4
:1018B00090E0B0E0A0E044E6BC01CD010E948A0FB8
:1018C00086EB91E00E946D0F83E691E0002311F01A
:1018D00089E691E00E945D0F87E991E00E946D0F1B
:1018E000ED2CF12E412C512C32010150110B83E6CD
:1018F00091E00415150511F089E691E00E945D0F55
:10190000D301C2010196A11DB11D8B879C87AD87B4
:10191000BE8722E044E6BC01CD010E94C3088BE8EB
:1019200091E00E946D0F6701D7018C91882309F423
:101930005AC083E791E00E946D0FBFEFEB1AFB0ADC
:10194000F6018081882309F45BC0FEE1F49D60010B
:10195000F59DD00C1124CA0CDB1C512CD6018D91A5
:101960009D916D018036BAEE9B0709F03FC083E67A
:1019700091E00E946D0FEEE080E691E05E1202C001
:101980008CE591E00E946D0F5394FFE05F12E6CF6B
:101990008B859C85AD85BE850B97A105B105F1F4BE
:1019A0002E960FB6F894DEBF0FBECDBFDF91CF915C
:1019B0001F910F91FF90EF90DF90CF90BF90AF906D
:1019C0009F908F907F906F905F904F903F902F905F
:1019D000089586ED91E00E946D0F72CF4B845C8478
:1019E0006D847E8484CF8BE691E0A5CFBE016F5FCE
:1019F0007F4F0E94910ECE0101960E945D0FBBCFDA
:101A00001201220C331C280C391CD1018D919C91A0
:101A10008036BAEE9B0771F0BE016F5F7F4F0E9468
:101A2000910ECE0101960E945D0F80E591E00E942B
:101A30006D0FAECF84E591E00E946D0FF6CFCF938E
:101A4000DF93D82F83E091E00E946D0F87EF90E045
:101A5000D83C11F083EE90E00E946D0F84EA90E094
:101A60000E946D0F0E943B0FC82F8823D9F30E945C
:101A70004C0F81EA90E00E946D0FC062C53639F0CC
:101A8000C43709F4D8EC8D2FDF91CF910895D2E0BF
:101A9000FACFFF920F931F93CF93DF9300D000D024
:101AA00000D0CDB7DEB7FC011E821D821C821B82D6
:101AB0001A8219821186DC010D900020E9F7119736
:101AC000FA2EF81A88E08F1508F455C0F11055C0A9
:101AD0008FEF9FEF17C19E3239F09F3209F466C035
:101AE0009E529D3030F062C0313009F45FC0242F27
:101AF00031E04F5FF41247C03323A1F0BF016F0DF7
:101B0000711DAB0142505109DA019C919E3229F4BA
:101B100090E3DB019C9311961C92DF01A20FB11D93
:101B200013961C92880F830F90819A3309F043C05B
:101B3000982F9460823009F484C0833009F442C045
:101B4000813009F0A4C09E012F5F3F4F93FF8BC0EF
:101B50003F932F9384E791E09F938F93FF93EF93AD
:101B60000E9449110F900F900F900F900F900F90BF
:101B70001E821D8240C088E0F82EBF0140E024E1B3
:101B800030E080E05EE2DB019D91BD018D010150FE
:101B900011099C3211F4D8015C93D8019C919A33BD
:101BA00009F099CF8F5F823009F0A3CF86E494E0EB
:101BB0000E946D0F8DCF9E3219F4982F9860BACF86
:101BC000982FB8CFAE014F5F5F4F9E012D5F3F4F03
:101BD00092FF26C05F934F933F932F9381E791E04D
:101BE0009F938F93FF93EF930E9449110FB6F89440
:101BF000DEBF0FBECDBF8D819E818A30910508F07A
:101C00008DC0892B21F08B819C81CC9730F4298168
:101C10003A812436310508F451C087E394E0C8CFF7
:101C20005F934F933F932F93CE0105969F938F938E
:101C30008FE691E09F938F93FF93EF930E9449115A
:101C4000D5CFCE0103969F938F9302969F938F9348
:101C500088E791E09F938F93FF93EF930E94491140
:101C60001A821982C3CF3F932F93CE0103969F937D
:101C70008F9382E791E09F938F93FF93EF930E945E
:101C800049110FB6F894DEBF0FBECDBF71CFCE01A4
:101C900003969F938F9385E791E09F938F93FF9394
:101CA000EF930E9449111E821D821A8219820F90A1
:101CB0000F900F900F900F900F909DCF8B819C8174
:101CC0008C33910540F06CE370E00E94D1107E836C
:101CD0006D839C838B836D817E8140E757E1649F98
:101CE000C001659F900D749F900D11246B817C81C4
:101CF000E4E6E69FA001E79F500D1124840F951F95
:101D0000820F931F26960FB6F894DEBF0FBECDBF8D
:101D1000DF91CF911F910F91FF90089580E69AEE89
:101D2000F1CFCF93DF939C01462FE72F20368AEE29
:101D3000380748F5C4E6D0E0C901BE010E94D110C1
:101D40009F938F93C90160E777E10E94D1109B01B7
:101D5000BE010E94D1107F936F933F932F938EE724
:101D600091E09F938F93EF934F930E9426118DB72D
:101D70009EB70A960FB6F8949EBF0FBE8DBF80E047
:101D8000DF91CF91089581E0FBCF8BE49DE19093AB
:101D9000890080938800E1E8F0E08081886080839A
:101DA000EFE6F0E08081826080830895E1E8F0E072
:101DB0008081826080830895E1E8F0E08081887FFF
:101DC0008083089581E086BB109285001092840084
:101DD0000895089508950F931F93CF93DF9300D034
:101DE00000D00F92CDB7DEB78B019C014FB74D836A
:101DF000F894DC01CB0143E0880F991FAA1FBB1F99
:101E00004A95D1F7AC01BD0140585247644A7F4F13
:101E100049835A836B837C83A901980164E0220F74
:101E2000331F441F551F6A95D1F769817A818B81D1
:101E30009C810E94E510BA01A90141505109610934
:101E40007109BB27A72F962F852F8093C50040933C
:101E5000C40088E18093C10086E08093C2005D8168
:101E60005FBF0F900F900F900F900F90DF91CF9169
:101E70001F910F91089580E89DE8ABE5B0E00197D0
:101E8000A109B10939F02091C00027FFF8CF809156
:101E9000C600089580E0089540E85DE86BE570E0D5
:101EA000415051096109710921F09091C00095FFDD
:101EB000F7CF8093C60080E00895CF93DF93EC01C5
:101EC00090E08991882311F0992319F0DF91CF9147
:101ED00008950E944C0F982FF4CFCF93DF93EC011D
:101EE000FE018491882329F00E944C0F21968823BB
:101EF000B9F3DF91CF910895DB01FC018D919191B0
:101F0000811104C081E0911103C008958917B1F3D4
:101F100080E0FBCF4F925F926F927F928F929F9261
:101F2000AF92BF92CF92DF92EF92FF920F931F93E7
:101F3000CF93DF93CDB7DEB7A1970FB6F894DEBF8E
:101F40000FBECDBF6B017C011A821982FE01339650
:101F50008FE1DF011D928A95E9F7423661F120F5A4
:101F6000423449F1483411F1C114D104E104F104BF
:101F700009F09DC084E694E0A1960FB6F894DEBF08
:101F80000FBECDBFDF91CF911F910F91FF90EF90CA
:101F9000DF90CF90BF90AF909F908F907F906F9089
:101FA0005F904F900C946D0F4836F1F680E08E01F3
:101FB0000F5F1F4F62C0D701C601F7FE07C0882719
:101FC0009927DC018C199D09AE09BF0940E8842ED0
:101FD000912CA12CB12C8F3F9105A105B10581F069
:101FE0007CF0812C912CA12C50E8B52E8F3F9F4F77
:101FF000A105B1052CF4812C30E8932EA12CB12C35
:10200000D701C60188219921AA21BB21892B8A2BBE
:102010008B2B19F580E30E944C0FB694A7949794EC
:10202000879481149104A104B10451F7A1960FB6CD
:10203000F894DEBF0FBECDBFDF91CF911F910F91FE
:10204000FF90EF90DF90CF90BF90AF909F908F90D8
:102050007F906F905F904F90089581E3DCCFF801FF
:10206000E80FF11D9C2D9F70908394E0F594E79408
:10207000D794C7949A95D1F78F5FC114D104E10426
:10208000F10469F7882359F380FD8F5F7801E80E2A
:10209000F11CE016F10651F2D7018E917D018A30D4
:1020A00020F0895C0E944C0FF4CF805DFBCF10E0E4
:1020B000F7FE09C0F094E094D094C094C11CD11CE8
:1020C000E11CF11C11E0FE0131965F014F0100E0BF
:1020D0008AE0482E512C612C712C0F5FC701B6018C
:1020E000A30192010E940711D4016D934D01690172
:1020F0007A01C114D104E104F10411F0013269F74D
:10210000112321F082E694E00E946D0F0A0D1B2D31
:10211000111DF80182918F01805D0E944C0FA01665
:10212000B106B9F783CF9FEB980F9A3108F480621C
:1021300008950F931F93CF93DF938C01D0E00E94FB
:102140003B0F0E949310C82F8D30B1F08A30A1F060
:10215000883011F08F3789F4D11108C0F80110824E
:102160008D2FDF91CF911F910F910895D15089E666
:1021700094E00E946D0FE3CFC0E0F801ED0FF11D78
:10218000C0838C2F0E944C0FCC2341F0DF5FDD31E8
:10219000B1F686E694E00E946D0FE2CFDD2301F3F5
:1021A000F8CFAA1BBB1B51E107C0AA1FBB1FA61774
:1021B000B70710F0A61BB70B881F991F5A95A9F7F0
:1021C00080959095BC01CD010895A1E21A2EAA1B1D
:1021D000BB1BFD010DC0AA1FBB1FEE1FFF1FA217D7
:1021E000B307E407F50720F0A21BB30BE40BF50BD4
:1021F000661F771F881F991F1A9469F7609570955D
:10220000809590959B01AC01BD01CF010895052EED
:1022100097FB1EF400940E941E1157FD07D00E94E8
:10222000E51007FC03D04EF40C941E115095409518
:10223000309521953F4F4F4F5F4F08959095809572
:10224000709561957F4F8F4F9F4F0895AEE0B0E03E
:10225000ECE2F1E10C94FF160D891E8986E08C8377
:102260001A8309838FEF9FE79E838D83AE01475EBC
:102270005F4F6F89788DCE0101960E9462112F8188
:102280003885020F131FF80110822E96E4E00C949B
:102290001B17AEE0B0E0EFE4F1E10C94011785E02C
:1022A0008C838B899C899A838983AE01495E5F4FB9
:1022B0006D897E89CE0101960E94C1142E96E2E0BE
:1022C0000C941D17AFE0B0E0E8E6F1E10C94F116D4
:1022D0007C013B018A01DC0117961C921E92169725
:1022E00013968C9181FFC3C19AE0292EFE0131968D
:1022F0004F01D70113969C91F30193FD859193FFB4
:1023000081913F01882309F448C1853239F493FD56
:10231000859193FF81913F01853229F4B70190E0C7
:102320000E944816E6CFB12C412C512CBFE1B515C7
:1023300038F08B3209F188F4803201F1833221F1D7
:1023400057FC3AC020ED280F2A3040F556FE1FC03A
:10235000B29C200D1124B22E06C08D3291F0803334
:1023600079F7689450F8F30193FD859193FF81917B
:102370003F018111DBCF20C0689451F8689452F876
:10238000F2CF689453F8EFCF689454F8ECCF429CA6
:10239000200D1124422E689455F8E5CF8E3229F491
:1023A00056FCFBC0689456F8DECF8C3619F468945E
:1023B00057F8D9CF8836B9F2982F9F7D955493302E
:1023C000C0F08336A1F18337C1F1833509F05BC0DA
:1023D000D801CD90DD908D016B2D70E056FC02C0D0
:1023E0006FEF7FEFC6010E94F4155C01689457F807
:1023F0000AC00C5F1F4FEFE3E983AA24A394B12C1A
:102400006401E89457F853FC04C04A141B0409F013
:1024100018F5342CA114B10431F5332009F469CF37
:10242000B70180E290E00E9448163A94F6CFD801B6
:102430008C9189830E5F1F4FE0CFF801C190D1903E
:102440008F016B2D70E056FC02C06FEF7FEFC6016D
:102450000E94FF155C01D5CFB70180E290E00E9499
:1024600048164A94D2CFF60157FC859157FE8191C8
:102470006F01B70190E00E94481631103A94B1E024
:10248000AB1AB108C7CF843619F0893609F074C089
:10249000F80157FE6AC061917191819191918F010C
:1024A000E52DEF76DE2E97FF09C09095809570950B
:1024B00061957F4F8F4F9F4F6894D7F82AE030E0A7
:1024C000A4010E949016C82EC818AC2C5D2CD6FE14
:1024D0000CC0E89450F8CB1440F4D4FE05C0D2FCF4
:1024E00003C05D2D5E7E552EAB2C54FE98C0FE01C0
:1024F000EC0DF11D8081803309F08AC0652D697E65
:10250000562E752D7870372E53FC98C050FE92C011
:10251000BC2CA41418F44C0CB42CBA1854FE94C05F
:10252000B70180E390E00E94481652FE09C088E798
:1025300090E051FE02C088E590E0B7010E94481685
:10254000CB1408F48DC0CA94D12C8FEFC81AD80AC6
:10255000C80CD91CD6018E916D01B70190E00E9484
:1025600048168C149D04B1F758CF61917191072ED4
:10257000000C880B990B93CFD52CE894D4F82AE063
:1025800030E0853739F1F52DF97FDF2E8037A9F05E
:1025900058F48835A9F08F36D9F0F70186819781F4
:1025A0002F96E2E10C940D178837B9F7D4FE02C0DC
:1025B0006894D2F820E130E00DC06894D4F8F6CFEA
:1025C00054FE03C02F2F2660D22E20E132E002C03D
:1025D00028E030E0F801D7FE15C04191519161919A
:1025E00071914C875D876E877F878F01A4016C8511
:1025F0007D858E859F850E949016C82EC818E89408
:10260000D7F863CF81919191AC0170E060E0E9CFA0
:1026100052FC02C0A39475CFA394A39472CF852DCE
:10262000867809F46ECFF6CFB70180E290E00E9481
:102630004816A394A414C0F3312C70CF342C3A184C
:10264000A41408F46BCFF8CF852D867809F478CFE1
:102650008BE251FE80E257FC8DE2B70190E06ECF35
:10266000B70180E390E00E944816BA9469CF8FEFDB
:102670009FEF96CFFC01CA01DB0120FD08C023FDBE
:1026800005C022FF02C0B383A28391838083089593
:10269000CF92DF92EF92FF92CF93DF9300D000D0E2
:1026A000CDB7DEB76B017C0183E044FD10C084E050
:1026B00046FD0DC0D601F701AA0FBB1FEE1FFF1F7D
:1026C0001094D1F7CA0EDB1EEE1EFF1E81E0CC0C6B
:1026D000DD1CEE1CFF1C8150D1F7D701C601820F13
:1026E000911DA11DB11DBC01CD010F900F900F9048
:1026F0000F90DF91CF91FF90EF90DF90CF900895F2
:102700000F931F93CF93DF938C01C8010E940A1689
:10271000EC0197FD08C00E94E015892BB1F7B801C4
:10272000CE010E947816CE01DF91CF911F910F91BB
:102730000895B0E0A0E0EFE9F3E10C94F9168C0104
:10274000C62F5A01F22E0E940A16FC019927EB327D
:1027500021F08D9781F46894F7F8C15031F480E04E
:10276000CDB7DEB7EAE00C941517C8010E940A162F
:10277000FC0197FDF4CFDF2DDD7F8F2D807309F5F0
:10278000E033F9F4EE24EA94EC0EC13091F0C80184
:102790000E940A16FC0197FD0CC08F7D883569F4F4
:1027A000D264C25031F0C8010E940A16FC0197FFA2
:1027B00008C0C12CD12C76011CC0F6FE2CC0D26002
:1027C000CE2DC12CD12C760120ED2E0F283030F1EA
:1027D000D4FD09C02A3010F1D6FF05C02F7D8FEE41
:1027E000820F8630D0F0B801CF010E947816D1FF59
:1027F000B6CFD7FF08C0F094E094D094C094C11C29
:10280000D11CE11CF11C2D2FB701A601C5010E94AE
:102810003A1381E0A5CFD261D3CF27504D2FC70106
:10282000B6010E9448136B017C01D260C15009F3CC
:10283000C8010E940A16FC0197FFC6CFD8CFA0E2BC
:10284000B0E0E5E2F4E10C94F7166C01962E7A0103
:10285000CE0101965C0180E2F50111928A95E9F7BB
:10286000F6018380890150E040E0B0E020E0A0E084
:1028700061E070E0F80183FC959183FE9191892FCE
:102880008F01911107C010E000E0C801A096ECE0B4
:102890000C9413179E3519F44115510531F1A41705
:1028A0001506ECF49D3549F19D32C9F4222309F156
:1028B000E82FE695E695E695EA0DFB2DF11D982F9C
:1028C00097709B0101C0220F9A95EAF79081292BFE
:1028D00020838B1781F08B1730F48F5FE9CF2111A4
:1028E000E7CFB92FE5CF8150E3CFA1E04F5F5F4F36
:1028F000C1CF21E0FBCF20E0F9CF222319F08E8158
:1029000080628E83AA2361F0F5019E012F5D3F4F07
:102910008081DF01319680958C93E217F307C1F730
:1029200088248394C6010E940A1697FD16C0E82FDA
:10293000E695E695E695EA0DFB2DF11D208130E048
:10294000AC014770552702C0359527954A95E2F7A7
:1029500020FD06C0B6010E947816882059F093CF5A
:10296000E114F10419F0F70181937F019A94812C0D
:102970009110D8CFE114F10409F487CFF701108248
:1029800084CFA6E0B0E0E7ECF4E10C94F5165C012E
:102990006D837E83742E652EDC0117961C921E9229
:1029A0001697C12CD5011396FC90ED81FE81F3FCA6
:1029B0008591F3FE8191182FFE83ED838823F9F032
:1029C00090E00E94E015892B21F0C5010E94801340
:1029D000E9CF153251F4ED81FE81F3FC1591F3FE40
:1029E0001191FE83ED83153269F4C5010E940A1628
:1029F00097FDA2C01817B1F2B5010E9478168C2D70
:102A000090E09EC000E01A3249F4ED81FE81F3FCB3
:102A10001591F3FE1191FE83ED8301E0D12C20EDA1
:102A2000210F2A3060F101FF42C0DD2041F318364A
:102A300009F440C01C3609F449C0112301F3612F89
:102A400070E088E690E00E94E915892BC1F2F12C34
:102A5000E12C00FD06C0E72DF62DE190F1907E2ED1
:102A60006F2E1E3609F03CC0D50116964D915C9133
:102A700070E060E0202FC7010E943A1393CF0260FC
:102A80008D2D90E0B0E0A0E089839A83AB83BC8376
:102A900040E2BC01CD010E944813D62EED81FE819B
:102AA000F3FC1591F3FE1191FE83ED83B8CFDD2485
:102AB000DA94BDCFED81FE81F3FC1591F3FE119107
:102AC000FE83ED83183609F0B8CF08600460ED810D
:102AD000FE81F3FC1591F3FE1191FE83ED83ADCFE2
:102AE0001336B1F401FD02C0DD24D394C5010E9468
:102AF0000A1697FD21C0E114F10419F0F701819342
:102B00007F01DA94D110F2CF00FD4CCFC3944ACFAD
:102B10001B35D1F42D813E81A7016D2DC5010E9489
:102B20001F148D839E83ED81FE81EF2B69F7F501E4
:102B30008381807309F463CF8FEF9FEFC1105FCF64
:102B40002696EEE00C941117C5010E94801397FDA4
:102B5000F3CF1F3699F130F4143641F0193639F0BD
:102B6000006405C01337A9F01537D1F70062202F94
:102B7000A7016D2DC5010E9499138111C5CFD7CF33
:102B8000E114F10419F0F70181927F01DA94DD205C
:102B900071F0C5010E940A164C0197FD08C00E9401
:102BA000E015892B69F3B501C4010E947816E11480
:102BB000F10409F4A9CFD7011C92A6CF0061D7CFA9
:102BC00091110C94EE16803219F089508550C8F797
:102BD0000895FC010590061621F00020D9F7C001E8
:102BE00008953197CF010895FC0105906150704020
:102BF0000110D8F7809590958E0F9F1F0895FC01C6
:102C00006150704001900110D8F7809590958E0F1B
:102C10009F1F0895CF93DF93EC018B8180FF33C01A
:102C200086FF0CC08F7B8B838E819F8101969F8353
:102C30008E838A8190E0DF91CF91089582FF15C045
:102C4000E881F9819081292F092E000C330B8062D5
:102C50009923C1F03196F983E8838E819F81019693
:102C60009F838E83C9019927E6CFEA85FB85CE0134
:102C700009959C0197FFF1CF8B812F3F3F4F31F09A
:102C800090E2892B8B838FEF9FEFD5CF90E1F9CF27
:102C90000F931F93CF93DF93182F092FEB018B8195
:102CA00081FD09C01FEF0FEF812F902FDF91CF9192
:102CB0001F910F91089582FF14C02E813F818C8156
:102CC0009D81281739073CF4E881F981CF010196ED
:102CD0009983888310838E819F8101969F838E8341
:102CE000E3CFE885F985812F0995892BA1F3DACF08
:102CF000FB01238120FF11C026FD0FC08F3F9807E5
:102D000071F082832F7D20642383268137812150B7
:102D1000310937832683992708958FEF9FEF089510
:102D2000FA01AA27283051F1203181F1E8946F93FC
:102D30006E7F6E5F7F4F8F4F9F4FAF4FB1E03ED0A2
:102D4000B4E03CD0670F781F891F9A1FA11D680F40
:102D5000791F8A1F911DA11D6A0F711D811D911D73
:102D6000A11D20D009F468943F912AE0269F1124E8
:102D70003019305D3193DEF6CF010895462F47704C
:102D8000405D4193B3E00FD0C9F7F6CF462F4F70A7
:102D9000405D4A3318F0495D31FD4052419302D005
:102DA000A9F7EACFB4E0A6959795879577956795AB
:102DB000BA95C9F700976105710508959B01AC01AB
:102DC0000A2E06945795479537952795BA95C9F7D2
:102DD000620F731F841F951FA01D089599278827D0
:102DE00008952F923F924F925F926F927F928F92AF
:102DF0009F92AF92BF92CF92DF92EF92FF920F938A
:102E00001F93CF93DF93CDB7DEB7CA1BDB0B0FB693
:102E1000F894DEBF0FBECDBF09942A883988488850
:102E20005F846E847D848C849B84AA84B984C884E6
:102E3000DF80EE80FD800C811B81AA81B981CE0FDD
:102E4000D11D0FB6F894DEBF0FBECDBFED010895C2
:042E5000F894FFCF24
:102E54002F008C00E9004601A30100025D02BA02C2
:102E640017037403D1030004FA00F401EE02E8032B
:102E7400E204DC05D606D007C409B80BA00F6C69C0
:102E840073740069676E69746572006564697400BF
:102E94007172007472696767657200636C73006BAA
:102EA400696C6C0064656661756C7400616463636D
:102EB400616C001B5B33336D001B5B33376D002586
:102EC400753A25752E25750025753A25750025302A
:0E2ED40032753A253032752E253032750000E9
:00000001FF
