:100000000C943A020C9463020C9463020C94630205
:100010000C9463020C94E7070C9463020C94630243
:100020000C9463020C9463020C9463020C94CC074E
:100030000C9463020C9463020C9463020C946302AC
:100040000C9463020C9463020C9463020C9463029C
:100050000C9463020C9463020C9463020C9463028C
:100060000C9463020C9463026364696E6F70737521
:1000700078585B000D0A41444D55583A20000D0A4E
:1000800044757263687363686E6974743A20000D16
:100090000A000A0D001B5B31440020001B5B314449
:1000A000000D0A000D0A4175737761686C3A2028CB
:1000B00045292D416E7AC3BC6E6465722C2028548C
:1000C00029616C6F6E2C2041626272756368206DCD
:1000D000697420616E646572657220546173746521
:1000E0003A2000452D414E5AC39C4E44455220288B
:1000F0003230206D73290054414C4F4E202832205D
:100100007329000D0A4465727A6569742065696E09
:1001100067657374656C6C74657320416E7AC3BCDB
:100120006E646D697474656C0D0A3D3D3D3D3D3DE9
:100130003D3D3D3D3D3D3D3D3D3D3D3D3D3D3D3DEF
:100140003D3D3D3D3D3D3D3D3D3D3D3D0D0A0A00B2
:100150000D0A0A0054726967676572000D0A0A0089
:100160002C2000547269676765720046697865647F
:100170003A20005661726961626C650D0A20202088
:10018000202020202020202020200020202020208F
:10019000202020202020002053202020202020204C
:1001A0002020202046697865643A20547269676788
:1001B00065720D0A0A000D0A0A536368616C746562
:1001C00072706F732E20466573742F566172696169
:1001D00062656C0A0D0053004465727A6569746942
:1001E000676520536368616C746572706F736974BE
:1001F000696F6E3A20003D3D3D3D3D3D3D3D3D3DFD
:100200003D3D3D3D3D3D3D3D3D3D3D3D0A0D000AF1
:100210000D416B7475656C6C652045696E73746512
:100220006C6C756E67656E0A0D000D0A000D0A0094
:100230000D0A5374657070696E74657276616C2016
:10024000286629657374206F646572202876296199
:1002500072696162656C3A20000D0A0A0054726985
:1002600067676572000D0A5365747A6520496E747C
:10027000657276616C6C206175663A20000D0A4EDD
:100280006575657220576572742028537465703ADD
:1002900020303A30302E3030202D20393A35392E6A
:1002A00039392C20742066C3BC722067657472696A
:1002B0006767657274656E2042657472696562294C
:1002C0003A20000D0A496E74657276616C6C6E7529
:1002D0006D6D65722028312D31352C2030206E69EE
:1002E00063687420C3A46E646572626172293A20E7
:1002F000000D0A004D6F64757320766572C3A46E9D
:100300006465726E20284D292C20496E74657276C2
:10031000616C6C20766572C3A46E6465726E202871
:100320004929206F64657220616262726563686545
:100330006E2028616E64657265205461737465294E
:100340003F20000D0A0A000D0A00547269676765B4
:100350007200293A20002D00202800203020285348
:1003600074617274293A20547269676765720D0A64
:10037000005661726961626C6520496E74657276BF
:10038000616C6C653A0D0A000D0A0A0054726967C7
:100390006765720046657374657320496E74657293
:1003A00076616C6C3A20003A0D0A000D0A0A0A0ABE
:1003B0000046657374657320496E74657276616C6E
:1003C0006C20286E6963687420C3A46E64657262D1
:1003D0006172293A205472696767657200533A0D59
:1003E0000A000A0D45696E7374656C6C756E6765FD
:1003F0006E20646572206465727A656974696765E8
:100400006E20536368616C7465727374656C6C758F
:100410006E67200020001B5D303B46554F434F2048
:100420005354455007001B5B334A001B5B303B3085
:1004300048001B5B324A00496E76616C6964204655
:100440006F726D617400496E76616C6964206368D7
:10045000617220696E2074696D65737472696E676C
:100460000A002D0030000A0D001B5B3144201B5B8D
:100470003144000014BE0FB6F894A8958091600036
:10048000886180936000109260000FBE11241FBE2F
:10049000CFEFD8E0DEBFCDBF11E0A0E0B1E0E2E7F2
:1004A000FAE202C005900D92A839B107D9F721E010
:1004B000A8E9B1E001C01D92A13AB207E1F70E949C
:1004C00010040C9437150C940000CF93DF9300D0E8
:1004D000CDB7DEB780B7806880BF84E480937C00AE
:1004E00080917A00856080937A0080917A0080689C
:1004F00080937A0080917A00806480937A00809162
:100500007A0086FDFCCF80917800909179009A83E3
:10051000898389819A810F900F90DF91CF910895FF
:10052000CF93DF93CDB7DEB768970FB6F894DEBFF1
:100530000FBECDBF98E1E0E0F1E0DE011196019041
:100540000D929A95E1F790917C00987F90937C00B2
:1005500090917C00892B80937C0020E290E080E0E9
:1005600030917A00306430937A0030917A0036FD11
:10057000FCCF4091780050917900840F951F215055
:1005800079F740969C0185E0369527958A95E1F7A5
:10059000FE01319680E0419151912417350720F0FA
:1005A0008F5F8C30C1F780E068960FB6F894DEBF9D
:1005B0000FBECDBFDF91CF9108951F93CF93DF93EF
:1005C00090917C00987F90937C0090917C00892B87
:1005D00080937C0010E2D0E0C0E080917A008064DB
:1005E00080937A0080917A0086FDFCCF609178003C
:1005F00070917900C60FD71F90E080E044E60E941A
:10060000AC0D8FE890E00E948E0D115031F760968E
:100610008EE790E00E948E0D85E0D695C7958A956D
:10062000E1F7BE0190E080E044E60E94AC0D84E773
:1006300090E00E948E0D60917C0070E090E080E080
:1006400048E6DF91CF911F910C94AC0DF999FECF44
:1006500092BD81BDF89A80B512BC11BC0895F9997C
:10066000FECF72BD61BD80BDFA9AF99A12BC11BC71
:1006700008951F93CF93DF93EC010E942603182F58
:10068000CE0101960E942603912FDF91CF911F91F9
:1006900008951F93CF93DF93182FEB01892F0E94AA
:1006A0002F03BE016F5F7F4F812FDF91CF911F918D
:1006B0000C942F03419A089582E086B908954198D9
:1006C00008955C9A089580E189B908955C98089529
:1006D000409A089581E086B9089540980895429A15
:1006E000089584E086B90895429808954298409804
:1006F0005C9841980895429A409A5C9A419A08956C
:1007000086B18695817030998260329984604C9967
:10071000886008950E945F03399A0E946603549A84
:100720000E946D03389A0E9474033A9A0895439A7E
:10073000239A3B9A229A259A2B982A982D9893E0EF
:1007400020E234E084E123B923B98150E1F733B9E1
:1007500033B99150B9F78BED95E00197F1F700C0EF
:10076000000043988CB581658CBD08954398089529
:10077000439A08952B982D982A989EBD0DB407FE94
:10078000FDCF8EBD0DB407FEFDCF84E083B983B9E4
:1007900008955B9A5398E8E6F0E080818460808356
:1007A000ADE6B0E08C9188608C9352988081846033
:1007B000808345983D9A0895DC01E5B516BC81E03B
:1007C00085BB80EA86BD85E085BD21E030E0C901BA
:1007D00002C0880F991F6A95E2F7BC0140E095E5D9
:1007E00081E0F0EA2FEF290F2E3F38F0483028F053
:1007F000E5BD81E0911180E008952C9130E0262341
:10080000372351E0121613060CF050E0990F952B88
:10081000A89BFECF85BBF6BD483020F74F5FE2CFE7
:10082000CF93DF93CDB7DEB7C15AD1400FB6F8945E
:10083000DEBF0FBECDBF0FB6F894A89580916000C3
:10084000886180936000109260000FBE86E1E8E14D
:10085000F1E0DE01A759BE4F01900D928A95E1F7B4
:100860009E012F5F3F4F19018AE491E0F9019C013D
:10087000119221503040E1F7CE0181579E4FC6566C
:10088000DE4F99838883CA59D1408BE0C656DE4F2C
:10089000E881F981CA59D14011928A95E9F79E0100
:1008A00021583E4FC456DE4F39832883CC59D1405E
:1008B00080E1F90111928A95E9F726513109790110
:1008C0006101A9014A5E5F4FC101F9012191319196
:1008D000DC016FE02D933D936150E1F74E96E417F4
:1008E000F507A1F710E000E02E0135EB431A3EEFCB
:1008F000530A8EE1F20111928A95E9F70E9497035B
:1009000080916400806C8093640080B7806880BFB1
:100910000E94000D0E94C9030E948A030E94650282
:1009200060E875E280E090E00E94260D81E090E0B2
:100930000E9426038F3F09F4AEC09E0121573E4F0F
:1009400049015DE0A52EB12C62E0662E712CC30139
:100950000E942603F40181934F01C5010E943903CF
:10096000F701819391937F01FFEF6F1A7F0A22E0D5
:10097000A20EB11C3DE06316710449F741E4E42E78
:10098000F12C57018EE1A81AB1084601C5010E9459
:100990003903F401819391934F01F2E0AF0EB11C42
:1009A000AE14BF0499F72EE1C20ED11C3EE1E30E56
:1009B000F11C4BE8E41641E0F40619F78DE691E0EE
:1009C0000E942603A82E98EC891711F082E0A82E29
:1009D0004A99AFC090E089B183FB882780F9892BC1
:1009E00080939D0181E080939F017894B12CDD2458
:1009F000D394912C812CF12CE12CF2013196C2562A
:100A0000DE4FF983E883CE59D1402FE731E02C0F38
:100A10003D1F205F3F4FC056DE4F39832883C05AA9
:100A2000D14080919F018823D9F0CFB6F8941092DD
:100A30009F0163E089E290E00E94DC03882E882316
:100A400009F479C084E00E949002982E80916D0094
:100A5000846080936D000E946103DD24D394CFBE37
:100A60008091C00087FB10F910FFFAC07FB6F894A0
:100A70001E7F0E945A030E945C0DF20180838D301C
:100A800039F008F074C0883019F08A3009F020C1BC
:100A9000F20110827FC0FE01E157FE4F4F019E011F
:100AA00027593E4F59012DE0C22ED12C32E0632E42
:100AB000712CB301F40181914F010E942F03B60103
:100AC000F501819191915F010E944903FFEF6F1A37
:100AD0007F0A22E0C20ED11C3DE06316710449F783
:100AE00091E4C92ED12C56018EE1A81AB108B501A6
:100AF000F701808191810E944903F2E0AF0EB11CA1
:100B0000CA14DB04A1F722E0E20EF11C3EE1C30EA1
:100B1000D11C4BE8C41641E0D40629F761E070E02F
:100B200080E00E942F036DE671E082E00E942F03B7
:100B300045CF92E050CF459880916D008B7F809398
:100B40006D001B7F1F7D1F7E1092A00190E080E052
:100B50000E94BA030E941D0D0E94170D0E94660399
:100B60000E9474030E946D03F12CE12C78CF8F3723
:100B700009F48ECF8F3F09F0ABC00E945C0DF201EB
:100B800081830E945C0DF20182830E945C0DF20160
:100B9000838314826EE271E0C2010E949D0D811177
:100BA000106463E371E0C2010E949D0D882309F483
:100BB000ACC0006260E471E0C2010E949D0DCA2CCD
:100BC000882351F08A2D0E945D0BC82EA81621F0B3
:100BD0006DE671E00E942F0368E471E0C2010E949B
:100BE0009D0D811102606DE471E0C2010E949D0DB6
:100BF000882319F0F1E0F093A00165E571E0C201EE
:100C00000E949D0D81110E941D0869E571E0C201DD
:100C10000E949D0D811108606EE571E0C2010E9485
:100C20009D0D882331F061E070E08FEF0E942F036B
:100C3000086066E671E0C2010E949D0D882319F0EC
:100C400084E00E94DD020E945F03F20180818150F6
:100C50008E3F20F482E990E00E948E0D7FBEAC2C86
:100C600016FF11C0CFB6F8941F7B84E00E9490025B
:100C7000982EAE0141575E4FBE0167597E4FC101AC
:100C80000E946A0ACFBE01FF11C0CFB6F8940D7F53
:100C900084E00E949002982EAE0141575E4FBE0143
:100CA00067597E4FC1010E947008CFBE03FF35C057
:100CB000F8940E94B80388E19EE00FB6F894A895D6
:100CC000809360000FBE909360000E941D08FFCFCC
:100CD0000E94B10EF20180830E946D0DC256DE4F5C
:100CE00088819981CE59D1400E94BD0E811152CF89
:100CF0008CE990E00E948E0D8AE990E00E948E0DB2
:100D000085E990E00E948E0DC3CE67E371E0C201D9
:100D10000E949D0D81114DCF4DCF15FF48C09920E8
:100D200009F445C0F1E0FD1508F041C0292D21501E
:100D3000330BC901EFE8F1E0EC0FFD1FE20FF31FE9
:100D40002081222309F4F4C04FE0489F9001499F7D
:100D5000300D1124F901ED0DF11D3297EE0FFF1F3B
:100D6000E20DF31D808191818036EAEE9E0709F441
:100D70000CC140919A0150919B0148175907B8F056
:100D800081E08D0DE82FF0E0E250F048E20FF31F14
:100D9000EE0FFF1FE20DF31DB12C9B2D980F91312B
:100DA00028F421913191232B09F4C0C01460809163
:100DB000A0018823C9F0CFB6F8941092A00115FDC8
:100DC00012C00E94680380919F018111D5C08820C4
:100DD00009F4CFC01460992031F0106280916D0049
:100DE0008B7F80936D00CFBE12FF3DC06FB6F8942D
:100DF0001B7F8820B9F1DD20A9F130E13D1590F18C
:100E000010610E946F03772473947D0C7B0C20E1AA
:100E100030E090E080E04D2D50E0880F991FBA013E
:100E20006B0D711D6217730719F48160B110BA94CC
:100E30002150310991F7C0909801D0909901C82AAA
:100E4000D92A459AC6010E94BA03D0929901C0924C
:100E5000980110929B0110929A010E941D0D0E9410
:100E6000110DD72C6FBE14FF35C080919C018823D3
:100E700089F15FB7F89410929C0113FB442740F965
:100E8000FE01E158FE4F81E090E0F12CE12C209131
:100E900098013091990128233923232B31F02081A7
:100EA0002F5F2A1508F06CC02083880F991F319698
:100EB000C056DE4F28813981C05AD1402E173F07D6
:100EC00031F740FB13F98091980190919901E82640
:100ED000F9265FBF13FFA5CDCFB6F894177FC701E2
:100EE0000E94BA03F0929901E0929801E114F10492
:100EF00021F445981F7E0E94740330E13D1558F49B
:100F00001F7D0E94170D0E941D0D10929B011092D3
:100F10009A01DD24D39415FD07C00E946D038091D2
:100F20006D00846080936D00CFBE7BCDB39435CFD0
:100F3000880F991FE9E6F1E0EC0FFD1FE80FF91F9C
:100F4000808191818036FAEE9F07F9F040919A01F5
:100F500050919B014817590708F429CF31E03D0D06
:100F6000892B21F421E0313108F020E01460B22E09
:100F70001ECF0E946D0337CF21E02093A00133CF15
:100F8000E82AF92A108241E090CF1F7D80916D0000
:100F9000846080936D000BCF8F938FB78F939F9357
:100FA00080919A0190919B01019690939B0180936F
:100FB0009A018091980190919901009719F081E030
:100FC00080939C019F918F918FBF8F9118958F93E4
:100FD0008FB78F939F934A991EC090E089B183FB8E
:100FE000882780F9892B80939E0180919E019091A2
:100FF0009D018927823089F08330B9F0813011F466
:1010000080939F0180919E0180939D019F918F917C
:101010008FBF8F91189592E0E1CF4A9BF3CF4B9908
:10102000F1CF81E08093A001EDCF81E080939F011B
:101030004A9BE8CF4B99E6CFF5CF82E394E00E943C
:101040008E0D8BE294E00E948E0D86E294E00E9469
:101050008E0D86E194E00C948E0D8F929F92AF924C
:10106000BF92CF92DF92EF92FF921F93CF93DF93C5
:101070006B017C01142FC22FAC019B01D0E08AE0F0
:10108000882E912CA12CB12C21153105410551053B
:10109000B1F4F7FE02C0C111C150CD17C0F4412F09
:1010A000C701B601DF91CF911F91FF90EF90DF90C4
:1010B000CF90BF90AF909F908F900C94AC0DCA01D1
:1010C000B901A50194010E942B0FDF5FDDCFCD1B7D
:1010D000CC2329F384E194E00E948E0DC150F8CF17
:1010E0002F923F924F925F926F927F928F929F9238
:1010F000AF92BF92CF92DF92EF92FF920F931F9326
:10110000CF93DF93CDB7DEB766970FB6F894DEBF07
:101110000FBECDBF5C016B017A0184E00E9490029A
:10112000582E82EE93E00E948E0D511025C08DED59
:1011300093E00E948E0D81EB93E00E948E0D8BEA6E
:1011400093E00E948E0D66960FB6F894DEBF0FBE38
:10115000CDBFDF91CF911F910F91FF90EF90DF9066
:10116000CF90BF90AF909F908F907F906F905F9047
:101170004F903F902F900895652D70E090E080E0B3
:1011800044E60E94AC0D22242A94250C87EA93E0C1
:101190000E948E0D23E72216B1F2022D10E0E00E20
:1011A000F11EF701808181113BC084E993E00E9428
:1011B0008E0DF801EE0FFF1FEC0DFD1D808191815A
:1011C0008036FAEE9F0739F1BE01655F7F4F0E94BE
:1011D000CE0CCE010B960E947E0D88E893E00E9413
:1011E0008E0D84EF92E00E948E0D0E945C0D982E71
:1011F0008823D9F30E946D0D81EF92E00E948E0D3D
:10120000892D8062893609F465C08D3609F43CC1A8
:101210008AE292E096CF8CE893E00E948E0DDDCFBB
:1012200081E793E00E948E0D8BE593E00E948E0D86
:101230002FE0229E40011124880C991C8A0C9B1CD3
:10124000412C512C3201439422E044E6C301B20107
:101250000E942D0888E593E00E948E0D22E044E66E
:10126000C301B2010E942D0886E593E00E948E0D15
:101270004FEF441A540A640A740A22E044E6C30198
:10128000B2010E942D0882E593E00E948E0DF401C8
:10129000819191914F018036FAEE9F07B1F0BE0126
:1012A000655F7F4F0E94CE0CCE010B960E947E0D93
:1012B00087E493E00E948E0D20E142165104610400
:1012C000710411F683E493E08ACF8AE493E00E94EC
:1012D0008E0DEECFF7018081882309F43EC083ECA8
:1012E00092E00E948E0D1E8A1D8A19821A821B822C
:1012F0001C82CE0101964C013C01E3E04E2E480ECB
:101300000E945C0D90ED980F9A3028F08A3011F011
:101310008D3019F480E0F3018083F30181913F0166
:10132000811179C0CE0145969F938F938FE791E00D
:101330009F938F939F928F920E946D0F6D897E89EC
:10134000CB0101970F900F900F900F900F900F907F
:1013500044244A94460E0F9730F0F70180818111A2
:1013600057CF44244A948DE792E00E948E0DCE011F
:1013700001964C018AE0F40111928A95E9F7340153
:1013800079E0372E380C0E945C0D982F90629437CC
:1013900009F046C084E50E946D0D60E6862E6AEE77
:1013A000962E85E692E00E948E0D20E682162AEEA9
:1013B000920609F459C0BE01655F7F4FC4010E94C7
:1013C000CE0CCE010B960E947E0D89E592E00E9424
:1013D0008E0DF7018081882309F44BC0842D90E0A5
:1013E0009C01FFE02F9E200D311D1124220F331F81
:1013F000A20EB31EF50191828082FEE12F9EB00104
:1014000011246D5D7F4F880F991F680F791FC401EC
:101410000E944903FDCE0E946D0D461071CF82CF10
:1014200090ED980F9A3050F08A30B9F08D30A9F0D5
:101430008A3321F0982F9D7F9C3211F4F301808331
:10144000F30181913F0181110AC0C4010E94870B01
:101450004C01019609F4DCCEA4CF80E0EFCF0E94CE
:101460006D0D361090CFF1CF8DE592E00E948E0D7C
:10147000ACCF000F111FF601E00FF11F91828082A7
:10148000B801635F7F4FC3CF80E392E00E948E0D6F
:101490000E945C0DD82E8823D9F30E946D0D8DE239
:1014A00092E00E948E0DF70190818D2D806286362C
:1014B00061F41082F7018081891709F4A9CEB8017F
:1014C0006E5F7F4F0E942F03A3CE863799F781E08E
:1014D0008083F0CF2F923F924F925F926F927F92D4
:1014E0008F929F92AF92BF92CF92DF92EF92FF9234
:1014F0000F931F93CF93DF93CDB7DEB72C970FB623
:10150000F894DEBF0FBECDBF4C015B018A010E9483
:101510001D088FE092E00E948E0D86EF91E00E9400
:101520008E0D88ED91E00E948E0D84E00E94900265
:10153000D82E882309F491C0682F70E090E080E0F5
:1015400044E60E94AC0D86EB91E00E948E0D8DE684
:1015500091E0DD2011F083E791E00E947E0D87E9A4
:1015600091E00E948E0D7801412C512C3201439460
:1015700010E000E08D2D8150990B9C878B872EE128
:10158000222EEB85FC858DE691E0E017F10711F046
:1015900083E791E00E947E0D22E044E6C301B201A0
:1015A0000E942D088BE891E00E948E0D6701F701E3
:1015B0008081882309F456C083E791E00E948E0D54
:1015C000FFEFEF1AFF0AF6018081882309F457C064
:1015D000209E6001219ED00C1124C80CD91C312CF6
:1015E000F601819191916F018036FAEE9F07E9F53E
:1015F00083E691E00E948E0D2EE080E691E03212AB
:1016000002C08CE591E00E948E0D33948FE0381279
:10161000E7CF0F5F1F4FFFEF4F1A5F0A6F0A7F0A76
:101620000B30110509F0ADCF2C960FB6F894DEBF44
:101630000FBECDBFDF91CF911F910F91FF90EF9023
:10164000DF90CF90BF90AF909F908F907F906F90E2
:101650005F904F903F902F90089586ED91E00E940B
:101660008E0D71CF8BE691E0A9CFBE016F5F7F4FEA
:101670000E94CE0CCE0101960E947E0DBDCFF801D6
:10168000EE0FFF1FEA0DFB1D808191818036EAEE8F
:101690009E0771F0BE016F5F7F4F0E94CE0CCE019E
:1016A00001960E947E0D80E591E00E948E0DB1CFE3
:1016B00084E591E00E948E0DF6CFCF93DF93D82F73
:1016C00083E091E00E948E0D87EF90E0D83C11F00E
:1016D00083EE90E00E948E0D84EA90E00E948E0DD1
:1016E0000E945C0DC82F8823D9F30E946D0D81EAFA
:1016F00090E00E948E0DC062C53639F0C43709F4FF
:10170000D8EC8D2FDF91CF910895D2E0FACF1F93BF
:10171000CF93DF9300D000D000D0CDB7DEB7FC016F
:101720001E821D821C821B821A8219821286DC0193
:101730000D900020E9F711971A2F181B193008F0A7
:1017400051C0111150C08FEF9FEF14C19E3209F0AC
:1017500042C0313009F441C0242F31E04F5F1413EF
:1017600048C03323A1F0BF01610F711DAB0142508E
:101770005109DA019C919E3229F490E3DB019C939C
:1017800011961C92DF01A20FB11D13961C92880FB7
:10179000830F90819A3309F03FC0823009F49DC0D5
:1017A000833009F45EC0813009F0A9C0CE010196F2
:1017B0009F938F9302969F938F938CE791E09F93D3
:1017C0008F93FF93EF930E946D0F0FB6F894DEBFD7
:1017D0000FBECDBF40C09F32C1F486E494E00E94AA
:1017E0008E0DB1CF18E0BF0140E024E130E080E091
:1017F0005EE2DB019C919C3209F45C93DB019D91DC
:10180000BD019A3309F0A2CF8F5F9E529D3028F719
:10181000823009F0A3CFE1CF9E3209F0B8C0982FF3
:101820009860823009F459C08330C1F0813009F0EA
:1018300066C0CE0101969F938F938EE791E09F93B0
:101840008F93FF93EF930E946D0F0F900F900F9067
:101850000F900F900F901E821D8217C0892F82FF5C
:1018600029C0CE0101969F938F9302969F938F93E9
:101870008BE791E09F938F93FF93EF930E946D0FFF
:101880000FB6F894DEBF0FBECDBF8D819E818A302A
:10189000910508F079C0892B21F08B819C81CC9730
:1018A00030F429813A812436310508F43FC087E3BA
:1018B00094E095CFCE0101969F938F9302969F93CC
:1018C0008F9302969F938F9389E791E09F938F93D5
:1018D000FF93EF930E946D0FD3CFCE0103969F939A
:1018E0008F9302969F938F9382E891E09F938F93BB
:1018F000FF93EF930E946D0F1A821982C1CFCE0120
:1019000003969F938F938FE791E09F938F93FF931D
:10191000EF930E946D0F1E821D821A8219820F9012
:101920000F900F900F900F900F90AFCF8B819C81F5
:101930008C33910540F06CE370E00E94F50E7E83DD
:101940006D839C838B836D817E8140E757E1649F2B
:10195000C001659F900D749F900D11246B817C8157
:10196000E4E6E69FA001E79F500D1124840F951F28
:10197000820F931F26960FB6F894DEBF0FBECDBF21
:10198000DF91CF911F91089580E69AEEF3CF8230D8
:1019900009F4A3CF833009F006CF61CFCF939C0128
:1019A000462FC72F20368AEE380740F5E4E6F0E0F0
:1019B000C901BF010E94F50E9F938F93C90160E793
:1019C00077E10E94F50E9B01BF010E94F50E7F9307
:1019D0006F933F932F9388E891E09F938F93CF93DA
:1019E0004F930E944A0F8DB79EB70A960FB6F89490
:1019F0009EBF0FBE8DBF80E0CF91089581E0FCCFE8
:101A00008BE49DE19093890080938800E1E8F0E009
:101A1000808188608083EFE6F0E08081826080834F
:101A20000895E1E8F0E08081826080830895E1E834
:101A3000F0E08081887F8083089581E086BB1092EA
:101A40008500109284000895089508950F931F93C0
:101A5000CF938B019C01CFB7F89443E0660F771FBB
:101A6000881F991F4A95D1F760587247844A9F4F43
:101A7000A9019801E4E0220F331F441F551FEA9586
:101A8000D1F70E94090FBA01A9014150510961091A
:101A90007109BB27A72F962F852F8093C5004093F0
:101AA000C40088E18093C10086E08093C200CFBF6C
:101AB000CF911F910F91089580E89DE8ABE5B0E0CC
:101AC0000197A109B10939F02091C00027FFF8CF93
:101AD0008091C600089580E0089540E85DE86BE5D8
:101AE00070E0415051096109710921F09091C000E5
:101AF00095FFF7CF8093C60080E00895CF93DF93E2
:101B0000EC0180E09991992311F0882319F0DF917D
:101B1000CF910895892F0E946D0DF4CFCF93DF935D
:101B2000EC01FE018491882329F00E946D0D21961D
:101B30008823B9F3DF91CF910895FC01DB012D914A
:101B4000BD019191211104C081E0911103C008955C
:101B50002917A1F380E0FBCF4F925F926F927F92A3
:101B60008F929F92AF92BF92CF92DF92EF92FF92AD
:101B70000F931F93CF93DF93CDB7DEB7A1970FB627
:101B8000F894DEBF0FBECDBF6B017C018E010F5FED
:101B90001F4F81E2F80111928A95E9F7483439F133
:101BA00010F5423431F1C114D104E104F10409F01B
:101BB0009CC084E694E0A1960FB6F894DEBF0FBEF9
:101BC000CDBFDF91CF911F910F91FF90EF90DF90EC
:101BD000CF90BF90AF909F908F907F906F905F90CD
:101BE0004F900C948E0D423621F04836E1F680E09D
:101BF00062C0D701C601F7FE07C088279927DC011C
:101C00008C199D09AE09BF0940E8842E912CA12CA6
:101C1000B12C8F3F9105A105B10581F07CF0812C9D
:101C2000912CA12C50E8B52E8F3F9F4FA105B105F7
:101C30002CF4812C30E8932EA12CB12CD701C601B5
:101C400088219921AA21BB21892B8A2B8B2B19F55D
:101C500080E30E946D0DB694A794979487948114A5
:101C60009104A104B10451F7A1960FB6F894DEBF18
:101C70000FBECDBFDF91CF911F910F91FF90EF90DD
:101C8000DF90CF90BF90AF909F908F907F906F909C
:101C90005F904F90089581E3DCCFF801E80FF11DCC
:101CA0009C2D9F70908394E0F594E794D794C7940B
:101CB0009A95D1F78F5FC114D104E104F10469F75B
:101CC000882359F380FD8F5F7801E80EF11CE01640
:101CD000F10651F2F70182917F018A3020F0895C90
:101CE0000E946D0DF4CF805DFBCFA12CF7FE0AC0E2
:101CF000F094E094D094C094C11CD11CE11CF11C60
:101D0000AA24A3944801B12C8AE0482E512C612CBE
:101D1000712CB394C701B601A30192010E942B0F4D
:101D2000F40161934F0169017A01C114D104E10406
:101D3000F10419F0F1E2BF12ECCFAA2021F082E603
:101D400094E00E948E0D7801EB0CF11C0E151F051E
:101D500009F48ACFF70182917F01805D0E946D0DA9
:101D6000F5CF9FEB980F9A3130F0843C21F0863DFF
:101D700011F08C3D09F4806208950F931F93CF9367
:101D8000DF938C01C0E00E945C0D0E94B10ED82F41
:101D90008D30B1F08A30A1F0883011F08F3789F49E
:101DA000C11108C0F80110828C2FDF91CF911F91D3
:101DB0000F910895C15089E694E00E948E0DE3CF03
:101DC000D0E0F801EC0FF11DD0838D2F0E946D0D36
:101DD000DD2341F0CF5FCD31B1F686E694E00E947D
:101DE0008E0DE2CFCC2301F3F8CFAA1BBB1B51E130
:101DF00007C0AA1FBB1FA617B70710F0A61BB70B7B
:101E0000881F991F5A95A9F780959095BC01CD011F
:101E10000895A1E21A2EAA1BBB1BFD010DC0AA1F2B
:101E2000BB1FEE1FFF1FA217B307E407F50720F043
:101E3000A21BB30BE40BF50B661F771F881F991FBE
:101E40001A9469F760957095809590959B01AC0107
:101E5000BD01CF010895052E97FB1EF400940E944A
:101E6000420F57FD07D00E94090F07FC03D04EF424
:101E70000C94420F50954095309521953F4F4F4F10
:101E80005F4F089590958095709561957F4F8F4F26
:101E90009F4F0895AEE0B0E0E0E5FFE00C940E1532
:101EA0000D891E8986E08C831A8309838FEF9FE753
:101EB0009E838D83AE01475E5F4F6F89788DCE0123
:101EC00001960E94860F2F813885020F131FF8019B
:101ED00010822E96E4E00C942A15AEE0B0E0E3E721
:101EE000FFE00C94101585E08C838B899C899A8384
:101EF0008983AE01495E5F4F6D897E89CE0101966F
:101F00000E94EC122E96E2E00C942C15ABE0B0E0AF
:101F1000ECE8FFE00C9400157C013B018A01FC0118
:101F200017821682838181FFC8C1CE0101965C01B0
:101F3000F7019381F30193FD859193FF81913F0117
:101F4000882309F453C1853239F493FD859193FFB9
:101F500081913F01853229F4B70190E00E94571426
:101F6000E7CF912C212C312CFFE1F31538F08B3287
:101F700011F190F4803209F1833229F137FC3CC031
:101F800020ED280F2A3050F536FE20C08AE0989EBA
:101F9000200D1124922E06C08D3291F0803371F7FE
:101FA000689430F8F30193FD859193FF81913F018F
:101FB0008111DACF21C0689431F8689432F8F2CFF9
:101FC000689433F8EFCF689434F8ECCFEAE02E9EB3
:101FD000200D1124222E689435F8E4CF8E3229F496
:101FE00036FC04C1689436F8DDCF8C3619F4689459
:101FF00037F8D8CF8836B1F2982F9F7D955493301B
:10200000E0F08336A1F18337C1F1833509F063C075
:102010002801F2E04F0E511CF801C080D180692DDB
:1020200070E036FC02C06FEF7FEFC6010E9405141E
:102030004C01689437F882010AC00C5F1F4FFFE320
:10204000F98388248394912C6501E89437F833FE52
:102050002DC0522C8114910471F5552009F468CFDC
:10206000B70180E290E00E9457145A94F6CFF8012D
:10207000808189830E5F1F4FE4CF2801F2E04F0E6D
:10208000511CF801C080D180692D70E036FC02C07F
:102090006FEF7FEFC6010E9410144C018201D5CF73
:1020A000B70180E290E00E9457142A942814190482
:1020B00009F0B0F7CECFF60137FC859137FE81915C
:1020C0006F01B70190E00E94571451105A94F1E04B
:1020D0008F1A9108BFCF843619F0893609F077C07E
:1020E000F80137FE6BC060817181828193810C5F42
:1020F0001F4FF32DFF763F2E97FF09C090958095D7
:10210000709561957F4F8F4F9F4F689437F82AE005
:1021100030E0A5010E949F14C82ECA188C2C432CB5
:1021200036FE0CC0E89440F8C91440F434FE05C0F3
:1021300032FC03C0F32DFE7E4F2E892C44FE95C049
:10214000FE01EC0DF11D8081803309F087C0242D44
:10215000297E422E842D8870582E43FC95C040FE67
:102160008FC09C2C821418F42C0C922C981844FECE
:1021700091C0B70180E390E00E94571442FE09C06D
:1021800088E790E041FE02C088E590E0B7010E9438
:102190005714C91408F48AC0CA94D12C9FEFC91AE5
:1021A000D90ACA0CDB1CF60182916F01B70190E0DD
:1021B0000E945714AC14BD04B1F74FCF60817181F8
:1021C000072E000C880B990B0E5F1F4F92CFD32C5C
:1021D000E894D4F82AE030E0853739F1232D297FBF
:1021E000D22E8F3601F148F48835A9F0F7018681A7
:1021F00097812B96E2E10C941C15803749F08837C3
:10220000A9F7D4FE02C06894D2F820E130E00DC0F6
:102210006894D4F8F6CF34FE03C0822F8660D82E9F
:1022200020E132E002C028E030E0F801D7FE0FC024
:1022300060817181828193810C5F1F4FA5010E9493
:102240009F14C82ECA183D2CE89437F867CF6081D8
:10225000718190E080E00E5F1F4FF0CF42FC02C022
:10226000839478CF8394839475CF842D867809F4F2
:1022700071CFF6CFB70180E290E00E9457148394AB
:102280008214C0F3512C73CF522C5818821408F4C6
:102290006ECFF8CF842D867809F47BCF8BE241FE98
:1022A00080E247FC8DE2B70190E071CFB70180E397
:1022B00090E00E9457149A946CCF8FEF9FEF99CFC4
:1022C00020FD09C0FC0123FD05C022FF02C073836D
:1022D000628351834083089544FD17C046FD1DC0AD
:1022E000DB01FC01AA0FBB1FEE1FFF1F1094D1F7EB
:1022F0006A0F7B1F8E1F9F1F660F771F881F991FF6
:10230000620F711D811D911D089533E0660F771FC7
:10231000881F991F3150D1F7F3CF34E0F7CF0F93D7
:102320001F93CF93DF938C01C8010E941B14EC0113
:1023300097FD08C00E94F113892BB1F7B801CE01B7
:102340000E948714CE01DF91CF911F910F910895C4
:102350008F929F92AF92BF92EF92FF920F931F9333
:10236000CF93DF938C01D62F7A01B22E0E941B14DB
:102370009C0133272B32310529F02D323105A9F488
:102380006894B7F8D15061F480E0DF91CF911F914C
:102390000F91FF90EF90BF90AF909F908F90089516
:1023A000C8010E941B1497FDEFCFCB2DCD7F2B2DA5
:1023B0002073F9F48033E9F4AA24AA94AD0E89F0CD
:1023C000C8010E941B1497FD0CC0282F2F7D2835B3
:1023D00061F4C264D25029F0C8010E941B1497FF17
:1023E00008C0812C912C54011BC0B6FE2BC0C260CA
:1023F000DA2D812C912C540120ED280F283028F162
:10240000C4FD09C02A3008F1C6FF05C02F7D3FEE8C
:10241000320F3630C8F0B8010E948714C1FFB4CF24
:10242000C7FF08C0B094A09490948094811C911C24
:10243000A11CB11C2C2FB501A401C7010E94601181
:1024400081E0A3CFC261D4CF27504C2FC501B40186
:102450000E946C114B015C01C260D15009F3C801AC
:102460000E941B1497FFC8CFD9CFA0E2B0E0EBE3E6
:10247000F2E10C9405155C01962E7A01CE010196CD
:102480006C0180E2F60111928A95E9F7F501B381BA
:10249000890130E020E0712C812CA0E041E050E087
:1024A000F801B3FD8591B3FF8191982F8F018111C0
:1024B00007C010E000E0C801A096EDE00C942115E3
:1024C0008E3519F42115310541F1A21713064CF48C
:1024D0008D3549F18D3229F4811006C0882483940A
:1024E0001DC0882009F465C0E92FE695E695E695BC
:1024F000EC0DFD2DF11D892F8770BA0101C0660F0B
:102500008A95EAF78081682B6083791651F09715D8
:1025100010F49F5FE9CF9150E7CFA1E02F5F3F4FCD
:10252000BFCF812CFBCF882019F08E8180628E83F3
:10253000A11120C088248394C5010E941B1497FD1B
:1025400016C0E82FE695E695E695EC0DFD2DF11DFC
:10255000208130E0AC014770552702C035952795A2
:102560004A95E2F720FD12C0B5010E948714882029
:10257000C9F09FCFF6019E012F5D3F4F808180956E
:1025800080833196E217F307C9F7D4CFE114F10441
:1025900029F0F7018083C70101967C019A94812C70
:1025A0009110CACFE114F10409F485CFF70110822C
:1025B00082CFE82FE695E695E695EC0DFD2DF11D11
:1025C000982F9770BA0101C0660F9A95EAF790812B
:1025D000692B6083782EA2CFB0E0A0E0E2EFF2E1B9
:1025E0000C9403156C01EB015A01FC011782168251
:1025F000512CF601E380FE01E3FC8591E3FE81911D
:10260000182FEF018823E9F090E00E94F113892B45
:1026100021F0C6010E948F11ECCF153241F4FE016A
:10262000E3FC1591E3FE1191EF01153269F4C60147
:102630000E941B1497FD8EC01817D9F2B6010E9494
:102640008714852D90E08AC000E01A3231F4E3FC53
:102650001591E3FE1191EF0101E0F12C20ED210F26
:102660002A3048F101FF37C0FF2059F31836B1F185
:102670001C3609F43DC0112321F3612F70E088E678
:1026800090E00E94FA13892BE1F2912C812C00FD3D
:1026900006C0F50180809180C50102965C011E365E
:1026A00079F5F6014681578170E060E0202FC40182
:1026B0000E9460119ECF02606F2D70E090E080E07C
:1026C00040E20E946C11F62EFE01E3FC1591E3FE40
:1026D0001191EF01C3CFFF24FA94C8CFFE01E3FCB0
:1026E0001591E3FE1191EF01183609F0C4CF08608F
:1026F0000460FE01E3FC1591E3FE1191EF01BBCFF5
:102700001336C1F401FD02C0FF24F394C6010E94F8
:102710001B1497FD1FC08114910429F0F4018083DC
:10272000C40101964C01FA94F110F0CF00FD61CF85
:1027300053945FCF1B35B9F49E01A4016F2DC601E0
:102740000E943512EC01892B89F7F6018381807391
:1027500009F477CF8FEF9FEF511073CFCDB7DEB76E
:10276000EFE00C941F15C6010E948F1197FDF2CF68
:102770001F36A9F130F4143641F0193639F00064EF
:1027800005C01337B9F01537D1F70062202FA40127
:102790006F2DC6010E94A8118111C8CFD6CF811418
:1027A000910429F0F4016082C40101964C01FA946D
:1027B000FF2071F0C6010E941B143C0197FD08C068
:1027C0000E94F113892B59F3B601C3010E948714AB
:1027D0008114910409F4AACFF4011082A7CF0061FB
:1027E000D5CF91110C94FD14803219F08950855089
:1027F000C8F70895FC010590061621F00020D9F7CE
:10280000C00108953197CF010895FC0105906150F2
:1028100070400110D8F7809590958E0F9F1F0895F6
:10282000FC016150704001900110D8F7809590959F
:102830008E0F9F1F0895CF93DF93EC012B8120FF14
:102840001AC026FF0CC02F7B2B838E819F8101969F
:102850009F838E838A8190E0DF91CF91089522FF3C
:1028600018C0E881F9818081082E000C990B00972F
:1028700029F420622B838FEF9FEFEECF3196F983FF
:10288000E8832E813F812F5F3F4F3F832E8399271F
:10289000E3CFEA85FB85099597FFF3CF2B8101965E
:1028A00021F080E2822B8B83E6CF80E1FBCF0F9378
:1028B0001F93CF93DF93182F092FEB018B8181FD9D
:1028C00009C01FEF0FEF812F902FDF91CF911F9144
:1028D0000F91089582FF14C02E813F818C819D81CC
:1028E000281739073CF4E881F981CF0101969983D3
:1028F000888310838E819F8101969F838E83E3CF8F
:10290000E885F985812F0995892BA1F3DACFFB01A1
:10291000238120FF11C026FD0FC08F3F980771F063
:1029200082832F7D206423832681378121503109C2
:1029300037832683992708958FEF9FEF0895FA0133
:10294000AA27283051F1203181F1E8946F936E7FEE
:102950006E5F7F4F8F4F9F4FAF4FB1E03ED0B4E0DF
:102960003CD0670F781F891F9A1FA11D680F791F20
:102970008A1F911DA11D6A0F711D811D911DA11D31
:1029800020D009F468943F912AE0269F1124301941
:10299000305D3193DEF6CF010895462F4770405DDC
:1029A0004193B3E00FD0C9F7F6CF462F4F70405D8B
:1029B0004A3318F0495D31FD4052419302D0A9F7E6
:1029C000EACFB4E0A6959795879577956795BA95E0
:1029D000C9F700976105710508959B01AC010A2EA6
:1029E00006945795479537952795BA95C9F7620F7D
:1029F000731F841F951FA01D089599278827089588
:102A00002F923F924F925F926F927F928F929F92FE
:102A1000AF92BF92CF92DF92EF92FF920F931F93EC
:102A2000CF93DF93CDB7DEB7CA1BDB0B0FB6F8949D
:102A3000DEBF0FBECDBF09942A88398848885F84DD
:102A40006E847D848C849B84AA84B984C884DF804E
:102A5000EE80FD800C811B81AA81B981CE0FD11D32
:102A60000FB6F894DEBF0FBECDBFED010895F89408
:022A7000FFCF96
:102A72002F008C00E9004601A30100025D02BA02A8
:102A820017037403D1030004FA00F401EE02E80311
:102A9200E204DC05D606D007C409B80BA00F6C69A6
:102AA20073740073696D0073696D756C6174650090
:102AB20069676E697465720065646974007472692D
:102AC2006767657200636C73006B696C6C006465A8
:102AD2006661756C740061646363616C001B5B33D7
:102AE200336D001B5B33376D0025753A25752E2536
:102AF200750025753A257500253032753A25303234
:082B0200752E2530327500002C
:00000001FF
