:100000000C943A020C9463020C9463020C94630205
:100010000C9463020C9435080C9463020C946302F4
:100020000C9463020C9463020C9463020C941A08FF
:100030000C9463020C9463020C9463020C946302AC
:100040000C9463020C9463020C9463020C9463029C
:100050000C9463020C9463020C9463020C9463028C
:100060000C9463020C9463026364696E6F70737521
:1000700078585B000D0A41444D55583A20000D0A4E
:1000800044757263687363686E6974743A20000D16
:100090000A000A0D001B5B31440020001B5B314449
:1000A000000D0A000D0A4175737761686C3A2028CB
:1000B00045292D416E7AC3BC6E6465722C2028548C
:1000C00029616C6F6E2C2041626272756368206DCD
:1000D000697420616E646572657220546173746521
:1000E0003A2000452D414E5AC39C4E44455220288B
:1000F0003230206D73290054414C4F4E202832205D
:100100007329000D0A4465727A6569742065696E09
:1001100067657374656C6C74657320416E7AC3BCDB
:100120006E646D697474656C0D0A3D3D3D3D3D3DE9
:100130003D3D3D3D3D3D3D3D3D3D3D3D3D3D3D3DEF
:100140003D3D3D3D3D3D3D3D3D3D3D3D0D0A0A00B2
:100150000D0A0A0054726967676572000D0A0A0089
:100160002C2000547269676765720046697865647F
:100170003A20005661726961626C650D0A20202088
:10018000202020202020202020200020202020208F
:10019000202020202020002053202020202020204C
:1001A0002020202046697865643A20547269676788
:1001B00065720D0A0A000D0A0A536368616C746562
:1001C00072706F732E20466573742F566172696169
:1001D00062656C0A0D0053004465727A6569746942
:1001E000676520536368616C746572706F736974BE
:1001F000696F6E3A20003D3D3D3D3D3D3D3D3D3DFD
:100200003D3D3D3D3D3D3D3D3D3D3D3D0A0D000AF1
:100210000D416B7475656C6C652045696E73746512
:100220006C6C756E67656E0A0D000D0A000D0A0094
:100230000D0A5374657070696E74657276616C2016
:10024000286629657374206F646572202876296199
:1002500072696162656C3A20000D0A0A0054726985
:1002600067676572000D0A5365747A6520496E747C
:10027000657276616C6C206175663A20000D0A4EDD
:100280006575657220576572742028537465703ADD
:1002900020303A30302E3030202D20393A35392E6A
:1002A00039392C20742066C3BC722067657472696A
:1002B0006767657274656E2042657472696562294C
:1002C0003A20000D0A496E74657276616C6C6E7529
:1002D0006D6D65722028312D31352C2030206E69EE
:1002E00063687420C3A46E646572626172293A20E7
:1002F000000D0A004D6F64757320766572C3A46E9D
:100300006465726E20284D292C20496E74657276C2
:10031000616C6C20766572C3A46E6465726E202871
:100320004929206F64657220616262726563686545
:100330006E2028616E64657265205461737465294E
:100340003F20000D0A0A000D0A00547269676765B4
:100350007200293A20002D00202800203020285348
:1003600074617274293A20547269676765720D0A64
:10037000005661726961626C6520496E74657276BF
:10038000616C6C653A0D0A000D0A0A0054726967C7
:100390006765720046657374657320496E74657293
:1003A00076616C6C3A20003A0D0A000D0A0A0A0ABE
:1003B0000046657374657320496E74657276616C6E
:1003C0006C20286E6963687420C3A46E64657262D1
:1003D0006172293A205472696767657200533A0D59
:1003E0000A000A0D45696E7374656C6C756E6765FD
:1003F0006E20646572206465727A656974696765E8
:100400006E20536368616C7465727374656C6C758F
:100410006E67200020001B5D303B46554F434F2048
:100420005354455007001B5B334A001B5B303B3085
:1004300048001B5B324A00496E76616C6964204655
:100440006F726D617400496E76616C6964206368D7
:10045000617220696E2074696D65737472696E676C
:100460000A002D0030000A0D001B5B3144201B5B8D
:100470003144000014BE0FB6F894A8958091600036
:10048000886180936000109260000FBE11241FBE2F
:10049000CFEFD8E0DEBFCDBF11E0A0E0B1E0E8EDE6
:1004A000FBE202C005900D92AA38B107D9F721E00E
:1004B000AAE8B1E001C01D92A239B207E1F70E949B
:1004C0003F040C94EA150C940000CF93DF9300D006
:1004D000CDB7DEB780B7806880BF84E480937C00AE
:1004E00080917A00856080937A0080917A0080689C
:1004F00080937A0080917A00806480937A00809162
:100500007A0086FDFCCF80917800909179009A83E3
:10051000898389819A810F900F90DF91CF910895FF
:10052000CF93DF93CDB7DEB768970FB6F894DEBFF1
:100530000FBECDBF28E1E0E0F1E0DE0111960190B1
:100540000D922A95E1F720917C00287F20937C0072
:1005500090917C00982B90937C0020E290E080E0CA
:1005600030917A00306430937A0030917A0036FD11
:10057000FCCF4091780050917900840F951F215055
:1005800079F740969C0185E0369527958A95E1F7A5
:10059000FE01319680E0419151912417350720F0FA
:1005A0008F5F8C30C1F780E068960FB6F894DEBF9D
:1005B0000FBECDBFDF91CF9108951F93CF93DF93EF
:1005C00000D000D000D0CDB7DEB720917C00287FCE
:1005D00020937C0090917C00982B90937C0010E2FB
:1005E0001E821D8280917A00806480937A008091BF
:1005F0007A0086FDFCCF80917800909179002D8162
:100600003E81280F391F3E832D839C0150E040E03E
:1006100029833A834B835C8344E669817A818B81A9
:100620009C810E944C0E8FE890E00E942F0E11508A
:10063000C9F64D815E81405F5F4F5A8349838EE7E3
:1006400090E00E942F0E89819A8125E096958795EA
:100650002A95E1F79C0150E040E029833A834B83DF
:100660005C8344E669817A818B819C810E944C0E77
:1006700084E790E00E942F0E80917C00282F30E0CC
:1006800050E040E029833A834B835C8348E66981EC
:100690007A818B819C8126960FB6F894DEBF0FBEBF
:1006A000CDBFDF91CF911F910C944C0E9C01F99915
:1006B000FECF32BD21BDF89A80B512BC11BC0895A1
:1006C0009B01F999FECF32BD21BD80BDFA9AF99AFE
:1006D00012BC11BC08951F93CF93DF93EC010E94CD
:1006E0005603182FCE0101960E945603912FDF91D9
:1006F000CF911F9108951F93CF93DF93182F892FC8
:10070000EB010E946003BE016F5F7F4F812FDF917D
:10071000CF911F910C946003419A089582E086B9AD
:100720000895419808955C9A089580E189B90895E3
:100730005C980895409A089581E086B9089540989C
:100740000895429A089584E086B9089542980895DC
:10075000429840985C9841980895429A409A5C9AD1
:10076000419A089586B18695817030998260329958
:1007700084604C99886008950E949103399A0E9480
:100780009803549A0E949F03389A0E94A6033A9AAB
:100790000895439A239A3B9A229A259A2B982A984D
:1007A0002D9893E020E234E084E123B923B981500D
:1007B000E1F733B933B99150B9F78BED95E0019773
:1007C000F1F700C0000043988CB581658CBD089599
:1007D00043980895439A08952B982D982A989EBD82
:1007E0000DB407FEFDCF8EBD0DB407FEFDCF84E036
:1007F00083B983B908955B9A5398E8E6F0E0808165
:1008000084608083ADE6B0E08C9188608C935298D0
:1008100080818460808345983D9A0895FC0175B578
:1008200016BC81E085BB80EA86BD85E085BD41E0E0
:1008300050E002C0440F551F6A95E2F780E095E54D
:10084000B1E0A0EA208130E02423352361E01216D4
:1008500013060CF060E0990F962BA89BFECFB5BB5A
:10086000A6BD883008F48F5F2FEF290F2E3F50F37D
:10087000883040F375BD81E0911180E00895CDB7D7
:10088000DEB7CC59D1400FB6F894DEBF0FBECDBF56
:100890000FB6F894A89580916000886180936000FD
:1008A000109260000FBE45983D9A86E1E8E1F1E0C4
:1008B000DE01A759BE4F01900D928A95E1F79E0186
:1008C0002F5F3F4F39018AE491E0D901FC011D926D
:1008D0003197E9F7FE01E157FE4F1192119289E03D
:1008E000DF011D928A95E9F7FE01E158FE4F119252
:1008F00011928EE0DF011D928A95E9F7FE01E7591A
:10090000FE4F2F011901C901DF0130E020E04D91B8
:100910005D91FC016FE0C656DE4F6883CA59D14035
:1009200041935193C656DE4F6881CA59D1406150F8
:10093000C656DE4F6883CA59D1406111F1CF4E9639
:10094000215F3F4F253A310511F710E000E0FE012D
:10095000E55BFE4F119211928CE1DF011D928A95A9
:10096000E9F70E94C90380916400806C8093640061
:1009700080B7806880BF0E94870D0E94FB030E94A1
:10098000BC030E94650260E875E280E090E00E948E
:10099000AD0D81E090E00E9456038F3F09F4D5C071
:1009A000FE01E157FE4F5F01FDE0CF2ED12CA2E00A
:1009B000EA2EF12CC7010E945603D5018D935D01EB
:1009C000C6010E946B03F201819391932F01FFEF07
:1009D000EF1AFF0A22E0C20ED11C3DE0E316F1043B
:1009E00049F771E4C72ED12CE3E2AE2EB12C4101C0
:1009F0007501C7010E946B03D4018D939D934D0136
:100A0000B2E0EB0EF11CEC14FD0499F7EEE1AE0E32
:100A1000B11CFEE12F0E311C2EE1C20ED11C3BE8B1
:100A2000C31631E0D30619F78DE691E00E94560314
:100A3000382E48EC841711F022E0322E89B18C70E8
:100A400080938A0181E0809390017894412C512C0D
:100A5000DD24D394F12CE12C222423948BE4A82EC2
:100A6000BB24B394AC0EBD1E6FEFA61AB60A9FE767
:100A7000892E992493948C0E9D1E80E1880E911CE2
:100A8000809190018823F9F0CFB6F89410929001EC
:100A900063E089E290E00E940E04C656DE4F888330
:100AA000CA59D140882309F4A2C084E00E94900270
:100AB000582E80916D00846080936D000E94930396
:100AC000DD24D394CFBE8091C00087FB10F910FFC6
:100AD00023C19FB7C556DE4F9883CB59D140F894B8
:100AE0001E7F0E948C030E94FD0DC55BDE4F888334
:100AF000CB54D1408E3008F094C0883058F098EF35
:100B0000980FA22D01C0AA0F9A95EAF79A2F957215
:100B100009F08AC00E94550FC55BDE4F8883CB5415
:100B2000D1400E940E0EC5010E945B0F811181C051
:100B30008CE990E00E942F0E8AE990E00E942F0E2F
:100B400085E990E00E942F0E6FC0CE0181579E4F25
:100B50004C01DE01A759BE4F5D015DE0C52ED12CD1
:100B600062E0E62EF12CB701F40181914F010E9461
:100B70006003B601D5018D919D915D010E947B03BB
:100B8000BFEFEB1AFB0AE2E0CE0ED11CFDE0EF1640
:100B9000F10449F731E4A32EB12C43E2C42ED12C49
:100BA0007601B701D2018D919C910E947B03B2E046
:100BB000EB0EF11CEA14FB04A1F7EEE1CE0ED11C02
:100BC000F2E04F0E511C9701225E3F4F59013DE666
:100BD000E31631E0F30621F761E070E080E00E9467
:100BE00060036DE671E082E00E9460031DCF4598CE
:100BF00080916D008B7F80936D001B7C1092910122
:100C000090E080E00E94EC030E94A40D0E949E0DE3
:100C10000E9498030E94A6030E949F03F12CE12CDE
:100C200051CF8F3709F076CFC55BDE4F1882CB549A
:100C3000D1406EE271E0CE01855B9E4F0E943E0E78
:100C40008111106463E371E0CE01855B9E4F0E94C9
:100C50003E0EC32C882351F0832D0E94E10BC82E39
:100C6000381621F06DE671E00E9460036BE371E0DD
:100C7000CE01855B9E4F0E943E0E8111026060E4B2
:100C800071E0CE01855B9E4F0E943E0E8111209245
:100C9000910168E471E0CE01855B9E4F0E943E0E9B
:100CA00081110E945A086CE471E0CE01855B9E4F71
:100CB0000E943E0E8111086061E571E0CE01855B06
:100CC0009E4F0E943E0E882331F061E070E08FEF6E
:100CD0000E946003086069E571E0CE01855B9E4F6C
:100CE0000E943E0E882319F084E00E94DD020E94DB
:100CF0009103C55BDE4F8881CB54D14081508E3F3C
:100D000020F482E990E00E942F0EC556DE4FB88194
:100D1000CB59D140BFBF3C2C16FF11C0CFB6F894C1
:100D20001F7B84E00E949002582EAE0141575E4F17
:100D3000BE0167597E4FC3010E94E70ACFBE01FF83
:100D400011C0CFB6F8940D7F84E00E949002582E17
:100D5000AE0141575E4FBE0167597E4FC3010E94ED
:100D6000D708CFBE03FF10C0F8940E94EA0388E1C1
:100D70009EE00FB6F894A895809360000FBE909304
:100D800060000E945A08FFCF15FF48C0552009F4A3
:100D900045C0E1E0ED1508F041C0252D2150330B91
:100DA000C901EFE8F1E0EC0FFD1FE20FF31F208116
:100DB000222309F40CC14FE0489F9001499F300D58
:100DC0001124F901ED0DF11D3297EE0FFF1FE60D15
:100DD000F71D8081918180366AEE960709F423C160
:100DE00040918D0150918E0148175907B8F081E06C
:100DF0008D0DE82FF0E0E250F048E20FF31FEE0F08
:100E0000FF1FE60DF71D412C942D980F913128F40A
:100E100021913191232B09F4D8C014608091910164
:100E20008823F1F0CFB6F8941092910115FD17C008
:100E30000E949A03809190018111EDC0C656DE4F49
:100E4000B881CA59D140BB2309F4E2C014605520CF
:100E500031F0106280916D008B7F80936D00CFBE6A
:100E600012FF56C0EFB7C556DE4FE883CB59D140CD
:100E7000F8941B7FC656DE4FF881CA59D140FF2334
:100E800009F440C0DD2009F43DC020E12D15D0F16A
:100E900010610E94A10381E08D0D840DC456DE4FC8
:100EA0008883CC59D14020E130E090E080E04D2DA6
:100EB00050E0880F991FBA01640D711D261737077E
:100EC00019F4816041104A942150310991F7C09082
:100ED0008B01D0908C01C82AD92A459AC6010E945C
:100EE000EC03D0928C01C0928B0110928E01109273
:100EF0008D010E94A40D0E94980DC456DE4FD8802B
:100F0000CC59D140C556DE4F3881CB59D1403FBF77
:100F100014FF2FC080918F01882359F14FB7F894A7
:100F200010928F0113FB552750F9FE01E158FE4F37
:100F3000F12CE12C81E090E020918B0130918C012B
:100F400028233923232B31F020812F5F231508F02C
:100F500065C02083880F991F31968E169F0661F712
:100F600050FB13F980918B0190918C01E826F926B2
:100F70004FBF13FF85CDCFB6F894177FC7010E94EE
:100F8000EC03F0928C01E0928B01E114F10421F466
:100F900045981F7E0E94A60340E14D1558F41F7D21
:100FA0000E949E0D0E94A40D10928E0110928D0140
:100FB000DD24D39415FD07C00E949F0380916D002E
:100FC000846080936D00CFBE5BCD43941DCF880FAE
:100FD000991FE9E6F1E0EC0FFD1FE80FF91F808192
:100FE00091818036AAEE9A07F1F040918D015091DF
:100FF0008E014817590708F411CF892B31F421E0ED
:1010000081E08D0D813108F020E01460422E06CF82
:101010000E949F0324CF2092910121CFE82AF92A30
:10102000108251E097CF1F7D80916D008460809386
:101030006D00F4CE8F938FB78F939F9380918D0126
:1010400090918E01019690938E0180938D018091F5
:101050008B0190918C01009719F081E080938F01B2
:101060009F918F918FBF8F9118958F938FB78F938B
:101070009F9389B18C7090918A019827983051F094
:101080009C3091F0943049F491E0843031F49093A5
:10109000910103C091E09093900180938A019F9108
:1010A0008F918FBF8F91189591E09093900184302C
:1010B000A1F7EDCF82E394E00E942F0E8BE294E043
:1010C0000E942F0E86E294E00E942F0E86E194E0AB
:1010D0000C942F0ECF92DF92EF92FF921F93CF933B
:1010E000DF93CDB7DEB72A970FB6F894DEBF0FBEF9
:1010F000CDBF69837A838B839C83142F2987898151
:101100009A81AB81BC818D839E83AF83B8871A8619
:101110008AE0C82ED12CE12CF12C8D819E81AF81EB
:10112000B885892B8A2B8B2B19F589819A81AB8104
:10113000BC81B7FF05C09985992311F0915099871B
:10114000A985BA85AB1720F5412F69817A818B81FA
:101150009C812A960FB6F894DEBF0FBECDBFDF91FB
:10116000CF911F91FF90EF90DF90CF900C944C0E99
:101170006D817E818F819885A70196010E94C90F9C
:101180002D833E834F8358879A859F5F9A87C5CF6B
:1011900089859A85891B8D83BD81BB23A9F284E152
:1011A00094E00E942F0EAD81A150AD83F5CF3F9208
:1011B0004F925F926F927F928F929F92AF92BF9267
:1011C000CF92DF92EF92FF920F931F93CF93DF9313
:1011D000CDB7DEB76A970FB6F894DEBF0FBECDBFAE
:1011E0006C012B018A0184E00E949002782E82EE2D
:1011F00093E00E942F0E711024C08DED93E00E94A9
:101200002F0E81EB93E00E942F0E8BEA93E00E9459
:101210002F0E6A960FB6F894DEBF0FBECDBFDF91DA
:10122000CF911F910F91FF90EF90DF90CF90BF90E3
:10123000AF909F908F907F906F905F904F903F9076
:101240000895872D90E0B0E0A0E08F8B988FA98F54
:10125000BA8F44E6BC01CD010E944C0E7A9487EA15
:1012600093E00E942F0E93E7791699F2E72CF12C68
:101270000E0D1F1DD8018C9181113BC084E993E0B4
:101280000E942F0EF701EE0FFF1FE40DF51D808168
:1012900091818036BAEE9B0739F1BE01655F7F4FC1
:1012A0000E94530DCE010B960E941F0E88E893E01A
:1012B0000E942F0E84EF92E00E942F0E0E94FD0DDF
:1012C000B82E8823D9F30E940E0E81EF92E00E947F
:1012D0002F0E8B2D8062893609F476C08D3609F485
:1012E0004FC18AE292E093CF8CE893E00E942F0EE8
:1012F000DDCF81E793E00E942F0E8BE593E00E9403
:101300002F0EEFE07E9E50011124AA0CBB1CAC0CEA
:10131000BD1C81E090E0A0E0B0E08F8B988FA98F9A
:10132000BA8F22E044E66F89788D898D9A8D0E946C
:101330006A0888E593E00E942F0E22E044E66F8958
:10134000788D898D9A8D0E946A0886E593E00E94C7
:101350002F0E8F89988DA98DBA8D0196A11DB11D73
:101360008F8B988FA98FBA8F22E044E6BC01CD0104
:101370000E946A0882E593E00E942F0ED5018D91AC
:101380009D915D018036BAEE9B07C9F0BE01655F95
:101390007F4F0E94530DCE010B960E941F0E87E4D3
:1013A00093E00E942F0E8F89988DA98DBA8D40975A
:1013B000A105B10509F0B5CF83E493E079CF8AE4C4
:1013C00093E00E942F0EEBCFD8018C91FE01319655
:1013D0005F0181115BC066246A948DE792E00E94F0
:1013E0002F0E1A821982FE01339688E0DF011D92CA
:1013F0008A95E9F7450179E0372E3A0C0E94FD0DF8
:10140000982F9062943709F087C084E50E940E0EF1
:1014100060E6A62E6AEEB62E85E692E00E942F0EBA
:10142000E0E6AE16EAEEBE0609F49AC0BE01655FBC
:101430007F4FC5010E94530DCE010B960E941F0ED7
:1014400089E592E00E942F0ED8018C91882309F43F
:101450008CC0862D90E09C01BFE07B9E200D311D4D
:101460001124220F331FC20ED31EF601B182A082B7
:10147000FEE17F9EB00111246D5D7F4F880F991FA3
:10148000680F791FC5010E947B032BCF83EC92E08C
:101490000E942F0E1E8A1D8A1A8219821C821B82AC
:1014A0004501E3E06E2E6A0C0E94FD0D90ED980F51
:1014B0009A3028F08A3011F08D3019F480E0D40190
:1014C0008C93F40181914F01811121C0CE01459689
:1014D0009F938F9382E791E09F938F93BF92AF92F8
:1014E0000E940B106D897E89CB0101970F900F90A0
:1014F0000F900F900F900F9066246A94660E0F97CE
:1015000008F46BCFD8018C918111EBCE64CF0E948F
:101510000E0E6810C9CFDACF90ED980F9A3050F0C8
:101520008A30B9F08D30A9F08A3321F0982F9D7F51
:101530009C3211F4F4018083D4018D914D0181110D
:101540000AC0C5010E940B0C5C01019609F4C9CECA
:1015500063CF80E0EFCF0E940E0E38104FCFF1CF57
:101560008DE592E00E942F0E6BCFEE0CFF1CF20176
:10157000EE0DFF1DB182A082B701635F7F4F82CF66
:1015800080E392E00E942F0E0E94FD0DD82E88234A
:10159000D9F30E940E0E8DE292E00E942F0ED80128
:1015A0009C918D2D8062863661F41C92D8018C91BD
:1015B000891709F496CEB7016E5F7F4F0E946003D2
:1015C00090CE863799F781E0F8018083EFCF2F9294
:1015D0003F924F925F926F927F928F929F92AF92C3
:1015E000BF92CF92DF92EF92FF920F931F93CF9310
:1015F000DF93CDB7DEB72E970FB6F894DEBF0FBEE0
:10160000CDBF5C014B01D42E152F0E945A088FE0EC
:1016100092E00E942F0E86EF91E00E942F0E88ED3F
:1016200091E00E942F0E84E00E949002082F8823F0
:1016300009F491C090E0B0E0A0E044E6BC01CD0127
:101640000E944C0E86EB91E00E942F0E80E691E006
:10165000002311F086E691E00E941F0E87E991E0D9
:101660000E942F0EED2CF12E412C512C32010150F5
:10167000110B80E691E00415150511F086E691E066
:101680000E941F0ED301C2010196A11DB11D8B87BF
:101690009C87AD87BE8722E044E6BC01CD010E9455
:1016A0006A088BE891E00E942F0E6701D7018C91A8
:1016B000882309F45AC083E791E00E942F0EBFEF00
:1016C000EB1AFB0AF6018081882309F45BC0FEE176
:1016D000F49D6001F59DD00C1124CA0CDB1C512C2B
:1016E000D6018D919D916D018036BAEE9B0709F070
:1016F0003FC083E691E00E942F0EEEE080E691E08D
:101700005E1202C08CE591E00E942F0E5394FFE020
:101710005F12E6CF8B859C85AD85BE850B97A105B5
:10172000B105F1F42E960FB6F894DEBF0FBECDBF13
:10173000DF91CF911F910F91FF90EF90DF90CF90AD
:10174000BF90AF909F908F907F906F905F904F90E1
:101750003F902F90089586ED91E00E942F0E72CF5A
:101760004B845C846D847E8484CF8BE691E0A5CF2E
:10177000BE016F5F7F4F0E94530DCE0101960E9404
:101780001F0EBBCF1201220C331C280C391CD101B7
:101790008D919C918036BAEE9B0771F0BE016F5F10
:1017A0007F4F0E94530DCE0101960E941F0E80E5CF
:1017B00091E00E942F0EAECF84E591E00E942F0EA3
:1017C000F6CFCF93DF93D82F83E091E00E942F0EC6
:1017D00087EF90E0D83C11F083EE90E00E942F0E4E
:1017E00084EA90E00E942F0E0E94FD0DC82F8823EE
:1017F000D9F30E940E0E81EA90E00E942F0EC06283
:10180000C53639F0C43709F4D8EC8D2FDF91CF916C
:101810000895D2E0FACFFF920F931F93CF93DF93F7
:1018200000D000D000D0CDB7DEB7FC011E821D82F3
:101830001C821B821A8219821186DC010D90002005
:10184000E9F71197FA2EF81A88E08F1508F455C0B9
:10185000F11055C08FEF9FEF17C19E3239F09F32C4
:1018600009F466C09E529D3030F062C0313009F4F8
:101870005FC0242F31E04F5FF41247C03323A1F043
:10188000BF016F0D711DAB0142505109DA019C91EE
:101890009E3229F490E3DB019C9311961C92DF01A8
:1018A000A20FB11D13961C92880F830F90819A335B
:1018B00009F043C0982F9460823009F484C08330CB
:1018C00009F442C0813009F0A4C09E012F5F3F4F50
:1018D00093FF8BC03F932F9381E791E09F938F936A
:1018E000FF93EF930E940B100F900F900F900F90AB
:1018F0000F900F901E821D8240C088E0F82EBF011D
:1019000040E024E130E080E05EE2DB019D91BD013A
:101910008D01015011099C3211F4D8015C93D8015A
:101920009C919A3309F099CF8F5F823009F0A3CF51
:1019300086E494E00E942F0E8DCF9E3219F4982FEA
:101940009860BACF982FB8CFAE014F5F5F4F9E011E
:101950002D5F3F4F92FF26C05F934F933F932F938E
:101960008EE691E09F938F93FF93EF930E940B106D
:101970000FB6F894DEBF0FBECDBF8D819E818A3039
:10198000910508F08DC0892B21F08B819C81CC972B
:1019900030F429813A812436310508F451C087E3B7
:1019A00094E0C8CF5F934F933F932F93CE0105965A
:1019B0009F938F938CE691E09F938F93FF93EF9388
:1019C0000E940B10D5CFCE0103969F938F93029662
:1019D0009F938F9385E791E09F938F93FF93EF936E
:1019E0000E940B101A821982C3CF3F932F93CE010E
:1019F00003969F938F938FE691E09F938F93FF932E
:101A0000EF930E940B100FB6F894DEBF0FBECDBF50
:101A100071CFCE0103969F938F9382E791E09F93BE
:101A20008F93FF93EF930E940B101E821D821A82E8
:101A300019820F900F900F900F900F900F909DCFE5
:101A40008B819C818C33910540F06CE370E00E94A7
:101A5000930F7E836D839C838B836D817E8140E7B2
:101A600057E1649FC001659F900D749F900D1124F4
:101A70006B817C81E4E6E69FA001E79F500D112475
:101A8000840F951F820F931F26960FB6F894DEBF22
:101A90000FBECDBFDF91CF911F910F91FF900895A1
:101AA00080E69AEEF1CFCF93DF939C01462FE72F8C
:101AB00020368AEE380748F5C4E6D0E0C901BE01F9
:101AC0000E94930F9F938F93C90160E777E10E9473
:101AD000930F9B01BE010E94930F7F936F933F93DF
:101AE0002F938BE791E09F938F93EF934F930E94F7
:101AF000E80F8DB79EB70A960FB6F8949EBF0FBE3B
:101B00008DBF80E0DF91CF91089581E0FBCF8BE422
:101B10009DE19093890080938800E1E8F0E0808166
:101B200088608083EFE6F0E08081826080830895A2
:101B3000E1E8F0E08081826080830895E1E8F0E0F0
:101B40008081887F8083089581E086BB1092850024
:101B5000109284000895089508950F931F93CF93D2
:101B6000DF9300D000D00F92CDB7DEB78B019C0180
:101B70004FB74D83F894DC01CB0143E0880F991FE8
:101B8000AA1FBB1F4A95D1F7AC01BD01405852476F
:101B9000644A7F4F49835A836B837C83A9019801F0
:101BA00064E0220F331F441F551F6A95D1F76981E6
:101BB0007A818B819C810E94A70FBA01A9014150B3
:101BC000510961097109BB27A72F962F852F809393
:101BD000C5004093C40088E18093C10086E08093F3
:101BE000C2005D815FBF0F900F900F900F900F901C
:101BF000DF91CF911F910F91089580E89DE8ABE5AB
:101C0000B0E00197A109B10939F02091C00027FF88
:101C1000F8CF8091C600089580E0089540E85DE81F
:101C20006BE570E0415051096109710921F0909113
:101C3000C00095FFF7CF8093C60080E00895CF9352
:101C4000DF93EC0190E08991882311F0992319F03A
:101C5000DF91CF9108950E940E0E982FF4CFCF936D
:101C6000DF93EC01FE018491882329F00E940E0E7F
:101C700021968823B9F3DF91CF910895DB01FC0110
:101C80008D919191811104C081E0911103C008955B
:101C90008917B1F380E0FBCF4F925F926F927F92F2
:101CA0008F929F92AF92BF92CF92DF92EF92FF926C
:101CB0000F931F93CF93DF93CDB7DEB7A1970FB6E6
:101CC000F894DEBF0FBECDBF6B017C011A82198272
:101CD000FE0133968FE1DF011D928A95E9F74236C6
:101CE00061F120F5423449F1483411F1C114D104B5
:101CF000E104F10409F09DC084E694E0A1960FB6DA
:101D0000F894DEBF0FBECDBFDF91CF911F910F9131
:101D1000FF90EF90DF90CF90BF90AF909F908F900B
:101D20007F906F905F904F900C942F0E4836F1F695
:101D300080E08E010F5F1F4F62C0D701C601F7FE22
:101D400007C088279927DC018C199D09AE09BF09B6
:101D500040E8842E912CA12CB12C8F3F9105A10538
:101D6000B10581F07CF0812C912CA12C50E8B52E8E
:101D70008F3F9F4FA105B1052CF4812C30E8932EA5
:101D8000A12CB12CD701C60188219921AA21BB2100
:101D9000892B8A2B8B2B19F580E30E940E0EB694AB
:101DA000A7949794879481149104A104B10451F7E6
:101DB000A1960FB6F894DEBF0FBECDBFDF91CF91D5
:101DC0001F910F91FF90EF90DF90CF90BF90AF9059
:101DD0009F908F907F906F905F904F90089581E3D8
:101DE000DCCFF801E80FF11D9C2D9F70908394E0EB
:101DF000F594E794D794C7949A95D1F78F5FC1145F
:101E0000D104E104F10469F7882359F380FD8F5F61
:101E10007801E80EF11CE016F10651F2D7018E911F
:101E20007D018A3020F0895C0E940E0EF4CF805D27
:101E3000FBCF10E0F7FE09C0F094E094D094C0947A
:101E4000C11CD11CE11CF11C11E0FE0131965F01A7
:101E50004F0100E08AE0482E512C612C712C0F5F5D
:101E6000C701B601A30192010E94C90FD4016D936D
:101E70004D0169017A01C114D104E104F10411F0AA
:101E8000013269F7112321F082E694E00E942F0EBF
:101E90000A0D1B2D111DF80182918F01805D0E949A
:101EA0000E0EA016B106B9F783CF9FEB980F9A31AB
:101EB00008F4806208950F931F93CF93DF938C01F2
:101EC000D0E00E94FD0D0E94550FC82F8D30B1F05B
:101ED0008A30A1F0883011F08F3789F4D11108C011
:101EE000F80110828D2FDF91CF911F910F910895EE
:101EF000D15089E694E00E942F0EE3CFC0E0F801B4
:101F0000ED0FF11DC0838C2F0E940E0ECC2341F0EB
:101F1000DF5FDD31B1F686E694E00E942F0EE2CF5E
:101F2000DD2301F3F8CFAA1BBB1B51E107C0AA1F99
:101F3000BB1FA617B70710F0A61BB70B881F991F6A
:101F40005A95A9F780959095BC01CD010895A1E21D
:101F50001A2EAA1BBB1BFD010DC0AA1FBB1FEE1F23
:101F6000FF1FA217B307E407F50720F0A21BB30B6E
:101F7000E40BF50B661F771F881F991F1A9469F7EA
:101F800060957095809590959B01AC01BD01CF0146
:101F90000895052E97FB1EF400940E94E00F57FD54
:101FA00007D00E94A70F07FC03D04EF40C94E00F5B
:101FB00050954095309521953F4F4F4F5F4F089575
:101FC00090958095709561957F4F8F4F9F4F0895A5
:101FD000AEE0B0E0EEEEFFE00C94C1150D891E8975
:101FE00086E08C831A8309838FEF9FE79E838D831E
:101FF000AE01475E5F4F6F89788DCE0101960E94DA
:1020000024102F813885020F131FF80110822E969D
:10201000E4E00C94DD15AEE0B0E0E1E1F0E10C9419
:10202000C31585E08C838B899C899A838983AE0153
:10203000495E5F4F6D897E89CE0101960E948313B0
:102040002E96E2E00C94DF15AFE0B0E0EAE2F0E1BA
:102050000C94B3157C013B018A01DC0117961C929C
:102060001E92169713968C9181FFC3C19AE0292E78
:10207000FE0131964F01D70113969C91F30193FD18
:10208000859193FF81913F01882309F448C18532EE
:1020900039F493FD859193FF81913F01853229F4B5
:1020A000B70190E00E940A15E6CFB12C412C512CCB
:1020B000BFE1B51538F08B3209F188F4803201F1B7
:1020C000833221F157FC3AC020ED280F2A3040F529
:1020D00056FE1FC0B29C200D1124B22E06C08D32B8
:1020E00091F0803379F7689450F8F30193FD85916E
:1020F00093FF81913F018111DBCF20C0689451F89B
:10210000689452F8F2CF689453F8EFCF689454F87B
:10211000ECCF429C200D1124422E689455F8E5CF57
:102120008E3229F456FCFBC0689456F8DECF8C360C
:1021300019F4689457F8D9CF8836B9F2982F9F7D53
:1021400095549330C0F08336A1F18337C1F18335C4
:1021500009F05BC0D801CD90DD908D016B2D70E052
:1021600056FC02C06FEF7FEFC6010E94B6145C01FF
:10217000689457F80AC00C5F1F4FEFE3E983AA2465
:10218000A394B12C6401E89457F853FC04C04A149A
:102190001B0409F018F5342CA114B10431F53320D7
:1021A00009F469CFB70180E290E00E940A153A94E1
:1021B000F6CFD8018C9189830E5F1F4FE0CFF801D5
:1021C000C190D1908F016B2D70E056FC02C06FEF73
:1021D0007FEFC6010E94C1145C01D5CFB70180E238
:1021E00090E00E940A154A94D2CFF60157FC8591DF
:1021F00057FE81916F01B70190E00E940A153110DE
:102200003A94B1E0AB1AB108C7CF843619F08936D9
:1022100009F074C0F80157FE6AC061917191819113
:1022200091918F01E52DEF76DE2E97FF09C09095F5
:102230008095709561957F4F8F4F9F4F6894D7F829
:102240002AE030E0A4010E945215C82EC818AC2C18
:102250005D2CD6FE0CC0E89450F8CB1440F4D4FEAC
:1022600005C0D2FC03C05D2D5E7E552EAB2C54FE06
:1022700098C0FE01EC0DF11D8081803309F08AC009
:10228000652D697E562E752D7870372E53FC98C0BB
:1022900050FE92C0BC2CA41418F44C0CB42CBA18E8
:1022A00054FE94C0B70180E390E00E940A1552FEEC
:1022B00009C088E790E051FE02C088E590E0B701D0
:1022C0000E940A15CB1408F48DC0CA94D12C8FEF4C
:1022D000C81AD80AC80CD91CD6018E916D01B70155
:1022E00090E00E940A158C149D04B1F758CF6191BB
:1022F0007191072E000C880B990B93CFD52CE89485
:10230000D4F82AE030E0853739F1F52DF97FDF2E5A
:102310008037A9F058F48835A9F08F36D9F0F70145
:10232000868197812F96E2E10C94CF158837B9F713
:10233000D4FE02C06894D2F820E130E00DC0689469
:10234000D4F8F6CF54FE03C02F2F2660D22E20E102
:1023500032E002C028E030E0F801D7FE15C041911C
:102360005191619171914C875D876E877F878F0155
:10237000A4016C857D858E859F850E945215C82E8F
:10238000C818E894D7F863CF81919191AC0170E0BF
:1023900060E0E9CF52FC02C0A39475CFA394A3944C
:1023A00072CF852D867809F46ECFF6CFB70180E223
:1023B00090E00E940A15A394A414C0F3312C70CFAE
:1023C000342C3A18A41408F46BCFF8CF852D8678F6
:1023D00009F478CF8BE251FE80E257FC8DE2B70121
:1023E00090E06ECFB70180E390E00E940A15BA94A6
:1023F00069CF8FEF9FEF96CFFC01CA01DB0120FD73
:1024000008C023FD05C022FF02C0B383A2839183CD
:1024100080830895CF92DF92EF92FF92CF93DF9364
:1024200000D000D0CDB7DEB76B017C0183E044FD66
:1024300010C084E046FD0DC0D601F701AA0FBB1FF6
:10244000EE1FFF1F1094D1F7CA0EDB1EEE1EFF1EFB
:1024500081E0CC0CDD1CEE1CFF1C8150D1F7D701B4
:10246000C601820F911DA11DB11DBC01CD010F90B0
:102470000F900F900F90DF91CF91FF90EF90DF9032
:10248000CF9008950F931F93CF93DF938C01C801D2
:102490000E94CC14EC0197FD08C00E94A214892B65
:1024A000B1F7B801CE010E943A15CE01DF91CF916C
:1024B0001F910F910895B0E0A0E0E1E6F2E10C94E5
:1024C000BB158C01C62F5A01F22E0E94CC14FC01C0
:1024D0009927EB3221F08D9781F46894F7F8C15079
:1024E00031F480E0CDB7DEB7EAE00C94D715C8012F
:1024F0000E94CC14FC0197FDF4CFDF2DDD7F8F2DE2
:10250000807309F5E033F9F4EE24EA94EC0EC1305F
:1025100091F0C8010E94CC14FC0197FD0CC08F7D86
:10252000883569F4D264C25031F0C8010E94CC14DD
:10253000FC0197FF08C0C12CD12C76011CC0F6FE0F
:102540002CC0D260CE2DC12CD12C760120ED2E0FC7
:10255000283030F1D4FD09C02A3010F1D6FF05C073
:102560002F7D8FEE820F8630D0F0B801CF010E9410
:102570003A15D1FFB6CFD7FF08C0F094E094D094BD
:10258000C094C11CD11CE11CF11C2D2FB701A60168
:10259000C5010E94FC1181E0A5CFD261D3CF2750A5
:1025A0004D2FC701B6010E940A126B017C01D26057
:1025B000C15009F3C8010E94CC14FC0197FFC6CF9B
:1025C000D8CFA0E2B0E0E7EEF2E10C94B9156C01CF
:1025D000962E7A01CE0101965C0180E2F5011192FE
:1025E0008A95E9F7F6018380890150E040E0B0E088
:1025F00020E0A0E061E070E0F80183FC959183FEAB
:102600009191892F8F01911107C010E000E0C8015E
:10261000A096ECE00C94D5159E3519F441155105A2
:1026200031F1A4171506ECF49D3549F19D32C9F43A
:10263000222309F1E82FE695E695E695EA0DFB2DB4
:10264000F11D982F97709B0101C0220F9A95EAF710
:102650009081292B20838B1781F08B1730F48F5FAB
:10266000E9CF2111E7CFB92FE5CF8150E3CFA1E02A
:102670004F5F5F4FC1CF21E0FBCF20E0F9CF222396
:1026800019F08E8180628E83AA2361F0F5019E018C
:102690002F5D3F4F8081DF01319680958C93E2174B
:1026A000F307C1F788248394C6010E94CC1497FDD8
:1026B00016C0E82FE695E695E695EA0DFB2DF11D8F
:1026C000208130E0AC014770552702C03595279531
:1026D0004A95E2F720FD06C0B6010E943A1588200F
:1026E00059F093CFE114F10419F0F70181937F01C0
:1026F0009A94812C9110D8CFE114F10409F487CF7A
:10270000F701108284CFA6E0B0E0E9E8F3E10C9491
:10271000B7155C016D837E83742E652EDC011796E0
:102720001C921E921697C12CD5011396FC90ED8138
:10273000FE81F3FC8591F3FE8191182FFE83ED83DA
:102740008823F9F090E00E94A214892B21F0C501A2
:102750000E944212E9CF153251F4ED81FE81F3FC63
:102760001591F3FE1191FE83ED83153269F4C501D5
:102770000E94CC1497FDA2C01817B1F2B5010E94B7
:102780003A158C2D90E09EC000E01A3249F4ED819C
:10279000FE81F3FC1591F3FE1191FE83ED8301E0C0
:1027A000D12C20ED210F2A3060F101FF42C0DD2045
:1027B00041F3183609F440C01C3609F449C011230E
:1027C00001F3612F70E088E690E00E94AB14892B42
:1027D000C1F2F12CE12C00FD06C0E72DF62DE190B1
:1027E000F1907E2E6F2E1E3609F03CC0D501169654
:1027F0004D915C9170E060E0202FC7010E94FC11B8
:1028000093CF02608D2D90E0B0E0A0E089839A83A1
:10281000AB83BC8340E2BC01CD010E940A12D62EDC
:10282000ED81FE81F3FC1591F3FE1191FE83ED83A2
:10283000B8CFDD24DA94BDCFED81FE81F3FC159194
:10284000F3FE1191FE83ED83183609F0B8CF0860CE
:102850000460ED81FE81F3FC1591F3FE1191FE837E
:10286000ED83ADCF1336B1F401FD02C0DD24D39466
:10287000C5010E94CC1497FD21C0E114F10419F0A8
:10288000F70181937F01DA94D110F2CF00FD4CCF94
:10289000C3944ACF1B35D1F42D813E81A7016D2D04
:1028A000C5010E94E1128D839E83ED81FE81EF2B95
:1028B00069F7F5018381807309F463CF8FEF9FEF90
:1028C000C1105FCF2696EEE00C94D315C5010E948F
:1028D000421297FDF3CF1F3699F130F4143641F0D0
:1028E000193639F0006405C01337A9F01537D1F750
:1028F0000062202FA7016D2DC5010E945B1281117E
:10290000C5CFD7CFE114F10419F0F70181927F010F
:10291000DA94DD2071F0C5010E94CC144C0197FDC2
:1029200008C00E94A214892B69F3B501C4010E945A
:102930003A15E114F10409F4A9CFD7011C92A6CFEE
:102940000061D7CF91110C94B015803219F08950E5
:102950008550C8F70895FC010590061621F0002067
:10296000D9F7C00108953197CF010895FC01059072
:10297000615070400110D8F7809590958E0F9F1F81
:102980000895FC016150704001900110D8F78095C6
:1029900090958E0F9F1F0895CF93DF93EC018B814D
:1029A00080FF33C086FF0CC08F7B8B838E819F811D
:1029B00001969F838E838A8190E0DF91CF91089565
:1029C00082FF15C0E881F9819081292F092E000C22
:1029D000330B80629923C1F03196F983E8838E81AD
:1029E0009F8101969F838E83C9019927E6CFEA854F
:1029F000FB85CE0109959C0197FFF1CF8B812F3F7D
:102A00003F4F31F090E2892B8B838FEF9FEFD5CF33
:102A100090E1F9CF0F931F93CF93DF93182F092FD6
:102A2000EB018B8181FD09C01FEF0FEF812F902FEC
:102A3000DF91CF911F910F91089582FF14C02E81D5
:102A40003F818C819D81281739073CF4E881F98109
:102A5000CF0101969983888310838E819F8101968F
:102A60009F838E83E3CFE885F985812F0995892B94
:102A7000A1F3DACFFB01238120FF11C026FD0FC097
:102A80008F3F980771F082832F7D206423832681F6
:102A900037812150310937832683992708958FEF95
:102AA0009FEF0895FA01AA27283051F1203181F1D2
:102AB000E8946F936E7F6E5F7F4F8F4F9F4FAF4F46
:102AC000B1E03ED0B4E03CD0670F781F891F9A1F59
:102AD000A11D680F791F8A1F911DA11D6A0F711D0D
:102AE000811D911DA11D20D009F468943F912AE019
:102AF000269F11243019305D3193DEF6CF01089501
:102B0000462F4770405D4193B3E00FD0C9F7F6CF31
:102B1000462F4F70405D4A3318F0495D31FD4052F9
:102B2000419302D0A9F7EACFB4E0A695979587958F
:102B300077956795BA95C9F700976105710508956E
:102B40009B01AC010A2E069457954795379527951A
:102B5000BA95C9F7620F731F841F951FA01D0895B2
:102B60009927882708952F923F924F925F926F92F4
:102B70007F928F929F92AF92BF92CF92DF92EF920D
:102B8000FF920F931F93CF93DF93CDB7DEB7CA1B8E
:102B9000DB0B0FB6F894DEBF0FBECDBF09942A88B9
:102BA000398848885F846E847D848C849B84AA8461
:102BB000B984C884DF80EE80FD800C811B81AA81EE
:102BC000B981CE0FD11D0FB6F894DEBF0FBECDBFB9
:082BD000ED010895F894FFCF18
:102BD8002F008C00E9004601A30100025D02BA0241
:102BE80017037403D1030004FA00F401EE02E803AA
:102BF800E204DC05D606D007C409B80BA00F6C693F
:102C080073740069676E697465720065646974003D
:102C18007472696767657200636C73006B696C6CCA
:102C28000064656661756C740061646363616C005F
:102C38001B5B33336D001B5B33376D0025753A25FD
:102C4800752E25750025753A257500253032753A9B
:0A2C5800253032752E25303275004C
:00000001FF
