:100000000C943A020C9463020C9463020C94630205
:100010000C9463020C94DA070C9463020C94630250
:100020000C9463020C9463020C9463020C94BF075B
:100030000C9463020C9463020C9463020C946302AC
:100040000C9463020C9463020C9463020C9463029C
:100050000C9463020C9463020C9463020C9463028C
:100060000C9463020C9463026364696E6F70737521
:1000700078585B000D0A41444D55583A20000D0A4E
:1000800044757263687363686E6974743A20000D16
:100090000A000A0D001B5B31440020001B5B314449
:1000A000000D0A000D0A4175737761686C3A2028CB
:1000B00045292D416E7AC3BC6E6465722C2028548C
:1000C00029616C6F6E2C2041626272756368206DCD
:1000D000697420616E646572657220546173746521
:1000E0003A2000452D414E5AC39C4E44455220288B
:1000F0003230206D73290054414C4F4E202832205D
:100100007329000D0A4465727A6569742065696E09
:1001100067657374656C6C74657320416E7AC3BCDB
:100120006E646D697474656C0D0A3D3D3D3D3D3DE9
:100130003D3D3D3D3D3D3D3D3D3D3D3D3D3D3D3DEF
:100140003D3D3D3D3D3D3D3D3D3D3D3D0D0A0A00B2
:100150000D0A0A0054726967676572000D0A0A0089
:100160002C2000547269676765720046697865647F
:100170003A20005661726961626C650D0A20202088
:10018000202020202020202020200020202020208F
:10019000202020202020002053202020202020204C
:1001A0002020202046697865643A20547269676788
:1001B00065720D0A0A000D0A0A536368616C746562
:1001C00072706F732E20466573742F566172696169
:1001D00062656C0A0D0053004465727A6569746942
:1001E000676520536368616C746572706F736974BE
:1001F000696F6E3A20003D3D3D3D3D3D3D3D3D3DFD
:100200003D3D3D3D3D3D3D3D3D3D3D3D0A0D000AF1
:100210000D416B7475656C6C652045696E73746512
:100220006C6C756E67656E0A0D000D0A000D0A0094
:100230000D0A5374657070696E74657276616C2016
:10024000286629657374206F646572202876296199
:1002500072696162656C3A20000D0A0A0054726985
:1002600067676572000D0A5365747A6520496E747C
:10027000657276616C6C206175663A20000D0A4EDD
:100280006575657220576572742028537465703ADD
:1002900020303A30302E3030202D20393A35392E6A
:1002A00039392C20742066C3BC722067657472696A
:1002B0006767657274656E2042657472696562294C
:1002C0003A20000D0A496E74657276616C6C6E7529
:1002D0006D6D65722028312D31352C2030206E69EE
:1002E00063687420C3A46E646572626172293A20E7
:1002F000000D0A004D6F64757320766572C3A46E9D
:100300006465726E20284D292C20496E74657276C2
:10031000616C6C20766572C3A46E6465726E202871
:100320004929206F64657220616262726563686545
:100330006E2028616E64657265205461737465294E
:100340003F20000D0A0A000D0A00547269676765B4
:100350007200293A20002D00202800203020285348
:1003600074617274293A20547269676765720D0A64
:10037000005661726961626C6520496E74657276BF
:10038000616C6C653A0D0A000D0A0A0054726967C7
:100390006765720046657374657320496E74657293
:1003A00076616C6C3A20003A0D0A000D0A0A0A0ABE
:1003B0000046657374657320496E74657276616C6E
:1003C0006C20286E6963687420C3A46E64657262D1
:1003D0006172293A205472696767657200533A0D59
:1003E0000A000A0D45696E7374656C6C756E6765FD
:1003F0006E20646572206465727A656974696765E8
:100400006E20536368616C7465727374656C6C758F
:100410006E67200020001B5D303B46554F434F2048
:100420005354455007001B5B334A001B5B303B3085
:1004300048001B5B324A00496E76616C6964204655
:100440006F726D617400496E76616C6964206368D7
:10045000617220696E2074696D65737472696E676C
:100460000A002D0030000A0D001B5B3144201B5B8D
:100470003144000014BE0FB6F894A8958091600036
:10048000886180936000109260000FBE11241FBE2F
:10049000CFEFD8E0DEBFCDBF11E0A0E0B1E0EAEDE4
:1004A000F9E202C005900D92A839B107D9F721E011
:1004B000A8E9B1E001C01D92A03AB207E1F70E949D
:1004C0000F040C94EB140C940000CF93DF9300D036
:1004D000CDB7DEB780B7806880BF84E480937C00AE
:1004E00080917A00856080937A0080917A0080689C
:1004F00080937A0080917A00806480937A00809162
:100500007A0086FDFCCF80917800909179009A83E3
:10051000898389819A810F900F90DF91CF910895FF
:10052000CF93DF93CDB7DEB768970FB6F894DEBFF1
:100530000FBECDBF98E1E0E0F1E0DE011196019041
:100540000D929A95E1F790917C00987F90937C00B2
:1005500090917C00892B80937C0020E290E080E0E9
:1005600030917A00306430937A0030917A0036FD11
:10057000FCCF4091780050917900840F951F215055
:1005800079F740969C0185E0369527958A95E1F7A5
:10059000FE01319680E0419151912417350720F0FA
:1005A0008F5F8C30C1F780E068960FB6F894DEBF9D
:1005B0000FBECDBFDF91CF9108951F93CF93DF93EF
:1005C00090917C00987F90937C0090917C00892B87
:1005D00080937C0010E2D0E0C0E080917A008064DB
:1005E00080937A0080917A0086FDFCCF609178003C
:1005F00070917900C60FD71F90E080E044E60E941A
:100600008E0D8FE890E00E94700D115031F76096CA
:100610008EE790E00E94700D85E0D695C7958A958B
:10062000E1F7BE0190E080E044E60E948E0D84E791
:1006300090E00E94700D60917C0070E090E080E09E
:1006400048E6DF91CF911F910C948E0DF999FECF62
:1006500092BD81BDF89A80B512BC11BC0895F9997C
:10066000FECF72BD61BD80BDFA9AF99A12BC11BC71
:1006700008951F93CF93DF93EC010E942603182F58
:10068000CE0101960E942603912FDF91CF911F91F9
:1006900008951F93CF93DF93182FEB01892F0E94AA
:1006A0002F03BE016F5F7F4F812FDF91CF911F918D
:1006B0000C942F03419A089582E086B908954198D9
:1006C00008955C9A089580E189B908955C98089529
:1006D000409A089581E086B9089540980895429A15
:1006E000089584E086B90895429808954298409804
:1006F0005C9841980895429A409A5C9A419A08956C
:1007000086B18695817030998260329984604C9967
:10071000886008950E945F03399A0E946603549A84
:100720000E946D03389A0E9474033A9A0895439A7E
:10073000239A3B9A229A259A2B982A982D9893E0EF
:1007400020E234E084E123B923B98150E1F733B9E1
:1007500033B99150B9F78BED95E00197F1F700C0EF
:10076000000043988CB581658CBD08954398089529
:10077000439A08952B982D982A989EBD0DB407FE94
:10078000FDCF8EBD0DB407FEFDCF84E083B983B9E4
:1007900008955B9A5398E8E6F0E080818460808356
:1007A000ADE6B0E08C9188608C9352988081846033
:1007B000808345983D9A0895DC01E5B516BC81E03B
:1007C00085BB80EA86BD85E085BD21E030E0C901BA
:1007D00002C0880F991F6A95E2F7BC0140E095E5D9
:1007E000F1E080EA2C9130E02623372351E0121605
:1007F00013060CF050E0990F952BA89BFECFF5BB8C
:1008000086BD483008F44F5F2FEF290F2E3F50F37D
:10081000483040F3E5BD81E0911180E00895CDB707
:10082000DEB7C15AD1400FB6F894DEBF0FBECDBFC0
:100830000FB6F894A895809160008861809360005D
:10084000109260000FBE86E1E8E1F1E0DE01A759F9
:10085000BE4F01900D928A95E1F79E012F5F3F4FA9
:1008600019018AE491E0F9019C0111922150304074
:10087000E1F7CE0181579E4FC656DE4F998388839C
:10088000CA59D1408BE0C656DE4FE881F981CA597A
:10089000D14011928A95E9F79E0121583E4FC456E6
:1008A000DE4F39832883CC59D14080E1F901119280
:1008B0008A95E9F72651310979016101A9014A5E5A
:1008C0005F4FC101F90121913191DC016FE02D935E
:1008D0003D936150E1F74E96E417F507A1F710E05C
:1008E00000E02E0135EB431A3EEF530A8EE1F20190
:1008F00011928A95E9F70E94970380916400806CB9
:100900008093640080B7806880BF0E94E20C0E94E0
:10091000C9030E948A030E94650260E875E280E0D4
:1009200090E00E94080D81E090E00E9426038F3F36
:1009300009F4A8C09E0121573E4F49015DE0A52E54
:10094000B12C62E0662E712CC3010E942603F401D3
:1009500081934F01C5010E943903F701819391935F
:100960007F01FFEF6F1A7F0A22E0A20EB11C3DE06B
:100970006316710449F741E4E42EF12C57018EE12E
:10098000A81AB1084601C5010E943903F4018193F8
:1009900091934F01F2E0AF0EB11CAE14BF0499F772
:1009A0002EE1C20ED11C3EE1E30EF11C4BE8E41631
:1009B00041E0F40619F78DE691E00E942603A82E87
:1009C00098EC891711F082E0A82E89B18C70809381
:1009D000980181E080939E017894B12CDD24D3941A
:1009E000912C812CF12CE12CF2013196C256DE4F74
:1009F000F983E883CE59D1402FE731E02C0F3D1F1A
:100A0000205F3F4FC056DE4F39832883C05AD14004
:100A100080919E018823D9F0CFB6F89410929E0160
:100A200063E089E290E00E94DC03882E882309F4C9
:100A300077C084E00E949002982E80916D008460BF
:100A400080936D000E946103DD24D394CFBE80911A
:100A5000C00087FB10F910FFF6C07FB6F8941E7F28
:100A60000E945A030E943E0DF20180838D3039F0BE
:100A700008F070C0883019F08A3009F01CC1F2010A
:100A800010827BC0FE01E157FE4F4F019E012759A6
:100A90003E4F59012DE0C22ED12C32E0632E712C35
:100AA000B301F40181914F010E942F03B601F501BA
:100AB000819191915F010E944903FFEF6F1A7F0AB4
:100AC00022E0C20ED11C3DE06316710449F791E4A7
:100AD000C92ED12C56018EE1A81AB108B501F70133
:100AE000808191810E944903F2E0AF0EB11CCA14CB
:100AF000DB04A1F722E0E20EF11C3EE1C30ED11CA3
:100B00004BE8C41641E0D40629F761E070E080E0CC
:100B10000E942F036DE671E082E00E942F034BCF0D
:100B2000459880916D008B7F80936D001B7C1092A7
:100B30009F0190E080E00E94BA030E94FF0C0E9497
:100B4000F90C0E9466030E9474030E946D03F12C4D
:100B5000E12C7CCF8F3709F492CF8F3F09F0ABC0E7
:100B60000E943E0DF20181830E943E0DF2018283BC
:100B70000E943E0DF201838314826EE271E0C20195
:100B80000E947F0D8111106463E371E0C2010E9435
:100B90007F0D882309F4ACC0006260E471E0C201FB
:100BA0000E947F0DCA2C882351F08A2D0E943F0B92
:100BB000C82EA81621F06DE671E00E942F0368E4AC
:100BC00071E0C2010E947F0D811102606DE471E04D
:100BD000C2010E947F0D882319F0F1E0F0939F017C
:100BE00065E571E0C2010E947F0D81110E94FF073F
:100BF00069E571E0C2010E947F0D811108606EE518
:100C000071E0C2010E947F0D882331F061E070E045
:100C10008FEF0E942F03086066E671E0C2010E9418
:100C20007F0D882319F084E00E94DD020E945F039B
:100C3000F201808181508E3F20F482E990E00E9491
:100C4000700D7FBEAC2C16FF11C0CFB6F8941F7B81
:100C500084E00E949002982EAE0141575E4FBE0183
:100C600067597E4FC1010E944C0ACFBE01FF11C0DF
:100C7000CFB6F8940D7F84E00E949002982EAE01CA
:100C800041575E4FBE0167597E4FC1010E94520815
:100C9000CFBE03FF35C0F8940E94B80388E19EE000
:100CA0000FB6F894A895809360000FBE90936000F3
:100CB0000E94FF07FFCF0E94930EF20180830E94E3
:100CC0004F0DC256DE4F88819981CE59D1400E9486
:100CD0009F0E811152CF8CE990E00E94700D8AE93D
:100CE00090E00E94700D85E990E00E94700DC7CEE3
:100CF00067E371E0C2010E947F0D81114DCF4DCF9E
:100D000015FF48C0992009F445C0F1E0FD1508F031
:100D100041C0292D2150330BC901EFE8F1E0EC0F60
:100D2000FD1FE20FF31F2081222309F4F4C04FE0DE
:100D3000489F9001499F300D1124F901ED0DF11DDF
:100D40003297EE0FFF1FE20DF31D808191818036F7
:100D5000EAEE9E0709F40CC140919B0150919C0161
:100D600048175907B8F081E08D0DE82FF0E0E25008
:100D7000F048E20FF31FEE0FFF1FE20DF31DB12C41
:100D80009B2D980F913128F421913191232B09F457
:100D9000C0C0146080919F018823C9F0CFB6F89439
:100DA00010929F0115FD12C00E94680380919E0160
:100DB0008111D5C0882009F4CFC01460992031F08A
:100DC000106280916D008B7F80936D00CFBE12FF0B
:100DD0003DC06FB6F8941B7F8820B9F1DD20A9F1E2
:100DE00030E13D1590F110610E946F0377247394F8
:100DF0007D0C7B0C20E130E090E080E04D2D50E058
:100E0000880F991FBA016B0D711D6217730719F4D2
:100E10008160B110BA942150310991F7C0909901C5
:100E2000D0909A01C82AD92A459AC6010E94BA03CD
:100E3000D0929A01C092990110929C0110929B014C
:100E40000E94FF0C0E94F30CD72C6FBE14FF35C01C
:100E500080919D01882389F15FB7F89410929D01DC
:100E600013FB442740F9FE01E158FE4F81E090E07A
:100E7000F12CE12C2091990130919A0128233923FA
:100E8000232B31F020812F5F2A1508F06CC02083BE
:100E9000880F991F3196C056DE4F28813981C05A7C
:100EA000D1402E173F0731F740FB13F9809199018C
:100EB00090919A01E826F9265FBF13FFA9CDCFB61E
:100EC000F894177FC7010E94BA03F0929A01E0924A
:100ED0009901E114F10421F445981F7E0E947403E6
:100EE00030E13D1558F41F7D0E94F90C0E94FF0C63
:100EF00010929C0110929B01DD24D39415FD07C034
:100F00000E946D0380916D00846080936D00CFBE60
:100F10007FCDB39435CF880F991FE9E6F1E0EC0F50
:100F2000FD1FE80FF91F808191818036FAEE9F073F
:100F3000F9F040919B0150919C014817590708F422
:100F400029CF892B31F421E081E08D0D813108F02A
:100F500020E01460B22E1ECF0E946D0337CF21E037
:100F600020939F0133CFE82AF92A108241E090CFE5
:100F70001F7D80916D00846080936D000BCF8F93F7
:100F80008FB78F939F9380919B0190919C010196C5
:100F900090939C0180939B018091990190919A017B
:100FA000009719F081E080939D019F918F918FBFF1
:100FB0008F9118958F938FB78F939F9389B18C7072
:100FC000909198019827983051F09C3091F094308E
:100FD00049F491E0843031F490939F0103C091E093
:100FE00090939E01809398019F918F918FBF8F91D5
:100FF000189591E090939E018430A1F7EDCF82E3A4
:1010000094E00E94700D8BE294E00E94700D86E2E5
:1010100094E00E94700D86E194E00C94700D8F9224
:101020009F92AF92BF92CF92DF92EF92FF921F9367
:10103000CF93DF936B017C01142FC22FAC019B0176
:10104000D0E08AE0882E912CA12CB12C21153105FD
:1010500041055105B1F4F7FE02C0C111C150CD17D1
:10106000C0F4412FC701B601DF91CF911F91FF90CE
:10107000EF90DF90CF90BF90AF909F908F900C94A7
:101080008E0DCA01B901A50194010E940D0FDF5F09
:10109000DDCFCD1BCC2329F384E194E00E94700DB9
:1010A000C150F8CF2F923F924F925F926F927F92F2
:1010B0008F929F92AF92BF92CF92DF92EF92FF9268
:1010C0000F931F93CF93DF93CDB7DEB766970FB61D
:1010D000F894DEBF0FBECDBF5C016B017A0184E0E6
:1010E0000E949002582E82EE93E00E94700D5110E3
:1010F00025C08DED93E00E94700D81EB93E00E947E
:10110000700D8BEA93E00E94700D66960FB6F8940E
:10111000DEBF0FBECDBFDF91CF911F910F91FF902A
:10112000EF90DF90CF90BF90AF909F908F907F9087
:101130006F905F904F903F902F900895652D70E0D5
:1011400090E080E044E60E948E0D22242A94250C33
:1011500087EA93E00E94700D23E72216B1F2022D78
:1011600010E0E00EF11EF701808181113BC084E99F
:1011700093E00E94700DF801EE0FFF1FEC0DFD1DB6
:10118000808191818036FAEE9F0739F1BE01655F5B
:101190007F4F0E94B00CCE010B960E94600D88E834
:1011A00093E00E94700D84EF92E00E94700D0E9407
:1011B0003E0D982E8823D9F30E944F0D81EF92E0C7
:1011C0000E94700D892D8062893609F465C08D36C4
:1011D00009F43CC18AE292E096CF8CE893E00E9449
:1011E000700DDDCF81E793E00E94700D8BE593E0F9
:1011F0000E94700D2FE0229E40011124880C991C42
:101200008A0C9B1C412C512C3201439422E044E671
:10121000C301B2010E940F0888E593E00E94700D9F
:1012200022E044E6C301B2010E940F0886E593E084
:101230000E94700D4FEF441A540A640A740A22E0A7
:1012400044E6C301B2010E940F0882E593E00E94C8
:10125000700DF401819191914F018036FAEE9F0754
:10126000B1F0BE01655F7F4F0E94B00CCE010B96BE
:101270000E94600D87E493E00E94700D20E1421609
:1012800051046104710411F683E493E08ACF8AE487
:1012900093E00E94700DEECFF7018081882309F45E
:1012A0003EC083EC92E00E94700D1E8A1D8A198256
:1012B0001A821B821C82CE0101964C013C01E3E0A4
:1012C0004E2E480E0E943E0D90ED980F9A3028F059
:1012D0008A3011F08D3019F480E0F3018083F3013E
:1012E00081913F01811179C0CE0145969F938F93E3
:1012F0008FE791E09F938F939F928F920E944F0F61
:101300006D897E89CB0101970F900F900F900F9000
:101310000F900F9044244A94460E0F9730F0F70137
:101320008081811157CF44244A948DE792E00E9436
:10133000700DCE0101964C018AE0F40111928A955C
:10134000E9F7340179E0372E380C0E943E0D982FD2
:101350009062943709F046C084E50E944F0D60E624
:10136000862E6AEE962E85E692E00E94700D20E6AB
:1013700082162AEE920609F459C0BE01655F7F4FBE
:10138000C4010E94B00CCE010B960E94600D89E54D
:1013900092E00E94700DF7018081882309F44BC010
:1013A000842D90E09C01FFE02F9E200D311D112423
:1013B000220F331FA20EB31EF50191828082FEE13F
:1013C0002F9EB00111246D5D7F4F880F991F680F0C
:1013D000791FC4010E944903FDCE0E944F0D4610A3
:1013E00071CF82CF90ED980F9A3050F08A30B9F0DB
:1013F0008D30A9F08A3321F0982F9D7F9C3211F413
:10140000F3018083F30181913F0181110AC0C4017E
:101410000E94690B4C01019609F4DCCEA4CF80E058
:10142000EFCF0E944F0D361090CFF1CF8DE592E0B7
:101430000E94700DACCF000F111FF601E00FF11FDD
:1014400091828082B801635F7F4FC3CF80E392E0D7
:101450000E94700D0E943E0DD82E8823D9F30E9461
:101460004F0D8DE292E00E94700DF70190818D2D5D
:101470008062863661F41082F7018081891709F451
:10148000A9CEB8016E5F7F4F0E942F03A3CE86378F
:1014900099F781E08083F0CF2F923F924F925F9235
:1014A0006F927F928F929F92AF92BF92CF92DF9274
:1014B000EF92FF920F931F93CF93DF93CDB7DEB7D9
:1014C0002C970FB6F894DEBF0FBECDBF4C015B0169
:1014D0008A010E94FF078FE092E00E94700D86EF64
:1014E00091E00E94700D88ED91E00E94700D84E003
:1014F0000E949002D82E882309F491C0682F70E0D2
:1015000090E080E044E60E948E0D86EB91E00E9420
:10151000700D8DE691E0DD2011F083E791E00E94EF
:10152000600D87E991E00E94700D7801412C512CEB
:101530003201439410E000E08D2D8150990B9C877F
:101540008B872EE1222EEB85FC858DE691E0E0175E
:10155000F10711F083E791E00E94600D22E044E67C
:10156000C301B2010E940F088BE891E00E94700D48
:101570006701F7018081882309F456C083E791E071
:101580000E94700DFFEFEF1AFF0AF6018081882399
:1015900009F457C0209E6001219ED00C1124C80C74
:1015A000D91C312CF601819191916F018036FAEEB0
:1015B0009F07E9F583E691E00E94700D2EE080E63A
:1015C00091E0321202C08CE591E00E94700D3394DC
:1015D0008FE03812E7CF0F5F1F4FFFEF4F1A5F0A00
:1015E0006F0A7F0A0B30110509F0ADCF2C960FB6AC
:1015F000F894DEBF0FBECDBFDF91CF911F910F9149
:10160000FF90EF90DF90CF90BF90AF909F908F9022
:101610007F906F905F904F903F902F90089586ED50
:1016200091E00E94700D71CF8BE691E0A9CFBE01D1
:101630006F5F7F4F0E94B00CCE0101960E94600D3B
:10164000BDCFF801EE0FFF1FEA0DFB1D80819181D8
:101650008036EAEE9E0771F0BE016F5F7F4F0E94F9
:10166000B00CCE0101960E94600D80E591E00E94D1
:10167000700DB1CF84E591E00E94700DF6CFCF934D
:10168000DF93D82F83E091E00E94700D87EF90E008
:10169000D83C11F083EE90E00E94700D84EA90E057
:1016A0000E94700D0E943E0DC82F8823D9F30E941E
:1016B0004F0D81EA90E00E94700DC062C53639F08E
:1016C000C43709F4D8EC8D2FDF91CF910895D2E083
:1016D000FACF1F93CF93DF9300D000D000D0CDB7C7
:1016E000DEB7FC011E821D821C821B821A821982B7
:1016F0001286DC010D900020E9F711971A2F181BB4
:10170000193008F051C0111150C08FEF9FEF14C174
:101710009E3209F042C0313009F441C0242F31E03B
:101720004F5F141348C03323A1F0BF01610F711D37
:10173000AB0142505109DA019C919E3229F490E3A9
:10174000DB019C9311961C92DF01A20FB11D139631
:101750001C92880F830F90819A3309F03FC082302A
:1017600009F49DC0833009F45EC0813009F0A9C03E
:10177000CE0101969F938F9302969F938F938CE750
:1017800091E09F938F93FF93EF930E944F0F0FB6BB
:10179000F894DEBF0FBECDBF40C09F32C1F486E4D7
:1017A00094E00E94700DB1CF18E0BF0140E024E149
:1017B00030E080E05EE2DB019C919C3209F45C93B6
:1017C000DB019D91BD019A3309F0A2CF8F5F9E523C
:1017D0009D3028F7823009F0A3CFE1CF9E3209F087
:1017E000B8C0982F9860823009F459C08330C1F096
:1017F000813009F066C0CE0101969F938F938EE7EA
:1018000091E09F938F93FF93EF930E944F0F0F9060
:101810000F900F900F900F900F901E821D8217C097
:10182000892F82FF29C0CE0101969F938F93029644
:101830009F938F938BE791E09F938F93FF93EF9309
:101840000E944F0F0FB6F894DEBF0FBECDBF8D8143
:101850009E818A30910508F079C0892B21F08B8117
:101860009C81CC9730F429813A812436310508F4E3
:101870003FC087E394E095CFCE0101969F938F936D
:1018800002969F938F9302969F938F9389E791E09F
:101890009F938F93FF93EF930E944F0FD3CFCE016F
:1018A00003969F938F9302969F938F9382E891E084
:1018B0009F938F93FF93EF930E944F0F1A82198289
:1018C000C1CFCE0103969F938F938FE791E09F93B3
:1018D0008F93FF93EF930E944F0F1E821D821A82F7
:1018E00019820F900F900F900F900F900F90AFCF25
:1018F0008B819C818C33910540F06CE370E00E94F9
:10190000D70E7E836D839C838B836D817E8140E7C0
:1019100057E1649FC001659F900D749F900D112445
:101920006B817C81E4E6E69FA001E79F500D1124C6
:10193000840F951F820F931F26960FB6F894DEBF73
:101940000FBECDBFDF91CF911F91089580E69AEE33
:10195000F3CF823009F4A3CF833009F006CF61CFF3
:10196000CF939C01462FC72F20368AEE380740F5CB
:10197000E4E6F0E0C901BF010E94D70E9F938F9368
:10198000C90160E777E10E94D70E9B01BF010E9469
:10199000D70E7F936F933F932F9388E891E09F93A7
:1019A0008F93CF934F930E942C0F8DB79EB70A96BB
:1019B0000FB6F8949EBF0FBE8DBF80E0CF91089503
:1019C00081E0FCCF8BE49DE19093890080938800B7
:1019D000E1E8F0E0808188608083EFE6F0E08081DC
:1019E000826080830895E1E8F0E0808182608083F6
:1019F0000895E1E8F0E08081887F8083089581E0A8
:101A000086BB109285001092840008950895089571
:101A10000F931F93CF938B019C01CFB7F89443E0B2
:101A2000660F771F881F991F4A95D1F76058724734
:101A3000844A9F4FA9019801E4E0220F331F441FFD
:101A4000551FEA95D1F70E94EB0EBA01A90141504A
:101A5000510961097109BB27A72F962F852F809304
:101A6000C5004093C40088E18093C10086E0809364
:101A7000C200CFBFCF911F910F91089580E89DE8DC
:101A8000ABE5B0E00197A109B10939F02091C000A0
:101A900027FFF8CF8091C600089580E0089540E8C0
:101AA0005DE86BE570E0415051096109710921F071
:101AB0009091C00095FFF7CF8093C60080E0089515
:101AC000CF93DF93EC0180E09991992311F0882363
:101AD00019F0DF91CF910895892F0E944F0DF4CF17
:101AE000CF93DF93EC01FE018491882329F00E94BB
:101AF0004F0D21968823B9F3DF91CF910895FC0112
:101B0000DB012D91BD019191211104C081E0911162
:101B100003C008952917A1F380E0FBCF4F925F9295
:101B20006F927F928F929F92AF92BF92CF92DF92ED
:101B3000EF92FF920F931F93CF93DF93CDB7DEB752
:101B4000A1970FB6F894DEBF0FBECDBF6B017C012D
:101B50008E010F5F1F4F81E2F80111928A95E9F71C
:101B6000483439F110F5423431F1C114D104E104A3
:101B7000F10409F09CC084E694E0A1960FB6F894B5
:101B8000DEBF0FBECDBFDF91CF911F910F91FF90B0
:101B9000EF90DF90CF90BF90AF909F908F907F900D
:101BA0006F905F904F900C94700D423621F0483644
:101BB000E1F680E062C0D701C601F7FE07C08827C2
:101BC0009927DC018C199D09AE09BF0940E8842ED4
:101BD000912CA12CB12C8F3F9105A105B10581F06D
:101BE0007CF0812C912CA12C50E8B52E8F3F9F4F7B
:101BF000A105B1052CF4812C30E8932EA12CB12C39
:101C0000D701C60188219921AA21BB21892B8A2BC2
:101C10008B2B19F580E30E944F0DB694A7949794EF
:101C2000879481149104A104B10451F7A1960FB6D1
:101C3000F894DEBF0FBECDBFDF91CF911F910F9102
:101C4000FF90EF90DF90CF90BF90AF909F908F90DC
:101C50007F906F905F904F90089581E3DCCFF80103
:101C6000E80FF11D9C2D9F70908394E0F594E7940C
:101C7000D794C7949A95D1F78F5FC114D104E1042A
:101C8000F10469F7882359F380FD8F5F7801E80E2E
:101C9000F11CE016F10651F2F70182917F018A30C2
:101CA00020F0895C0E944F0DF4CF805DFBCFA12C0A
:101CB000F7FE0AC0F094E094D094C094C11CD11CEB
:101CC000E11CF11CAA24A3944801B12C8AE0482EFF
:101CD000512C612C712CB394C701B601A301920160
:101CE0000E940D0FF40161934F0169017A01C11443
:101CF000D104E104F10419F0F1E2BF12ECCFAA2003
:101D000021F082E694E00E94700D7801EB0CF11C4A
:101D10000E151F0509F48ACFF70182917F01805DBE
:101D20000E944F0DF5CF9FEB980F9A3130F0843C15
:101D300021F0863D11F08C3D09F4806208950F93E7
:101D40001F93CF93DF938C01C0E00E943E0D0E9451
:101D5000930ED82F8D30B1F08A30A1F0883011F079
:101D60008F3789F4C11108C0F80110828C2FDF91E0
:101D7000CF911F910F910895C15089E694E00E9480
:101D8000700DE3CFD0E0F801EC0FF11DD0838D2F63
:101D90000E944F0DDD2341F0CF5FCD31B1F686E6D5
:101DA00094E00E94700DE2CFCC2301F3F8CFAA1B80
:101DB000BB1B51E107C0AA1FBB1FA617B70710F036
:101DC000A61BB70B881F991F5A95A9F78095909568
:101DD000BC01CD010895A1E21A2EAA1BBB1BFD0177
:101DE0000DC0AA1FBB1FEE1FFF1FA217B307E407FA
:101DF000F50720F0A21BB30BE40BF50B661F771F52
:101E0000881F991F1A9469F7609570958095909531
:101E10009B01AC01BD01CF010895052E97FB1EF477
:101E200000940E94240F57FD07D00E94EB0E07FC80
:101E300003D04EF40C94240F509540953095219585
:101E40003F4F4F4F5F4F08959095809570956195E6
:101E50007F4F8F4F9F4F0895AEE0B0E0E2E3FFE089
:101E60000C94C2140D891E8986E08C831A83098321
:101E70008FEF9FE79E838D83AE01475E5F4F6F8933
:101E8000788DCE0101960E94680F2F813885020F50
:101E9000131FF80110822E96E4E00C94DE14AEE0DD
:101EA000B0E0E5E5FFE00C94C41485E08C838B89F9
:101EB0009C899A838983AE01495E5F4F6D897E89D3
:101EC000CE0101960E94A5122E96E2E00C94E01439
:101ED000ABE0B0E0EEE6FFE00C94B4147C013B0113
:101EE0008A01FC0117821682838181FFB9C19AE0C1
:101EF000292ECE0101965C01F7019381F30193FD38
:101F0000859193FF81913F01882309F446C1853271
:101F100039F493FD859193FF81913F01853229F436
:101F2000B70190E00E940B14E7CF912C412C512C6B
:101F3000FFE1F51538F08B3209F188F4803201F1B8
:101F4000833221F157FC3AC020ED280F2A3040F5AA
:101F500056FE1FC0929C200D1124922E06C08D3279
:101F600091F0803379F7689450F8F30193FD8591EF
:101F700093FF81913F018111DBCF20C0689451F81C
:101F8000689452F8F2CF689453F8EFCF689454F8FD
:101F9000ECCF429C200D1124422E689455F8E5CFD9
:101FA0008E3229F456FCF9C0689456F8DECF8C3690
:101FB00019F4689457F8D9CF8836B9F2982F9F7DD5
:101FC00095549330C0F08336A1F18337C1F1833546
:101FD00009F05BC0F801C190D1908F01692D70E0CC
:101FE00056FC02C06FEF7FEFC6010E94BB134C018D
:101FF000689457F80AC00C5F1F4F2FE32983882489
:102000008394912C6501E89457F853FC04C048145C
:10201000190409F018F5342C8114910431F533209A
:1020200009F46ACFB70180E290E00E940B143A9461
:10203000F6CFF801808189830E5F1F4FE0CFF80152
:10204000C190D1908F01692D70E056FC02C06FEFF6
:102050007FEFC6010E94C6134C01D5CFB70180E2C5
:1020600090E00E940B144A94D2CFF60157FC859160
:1020700057FE81916F01B70190E00E940B1431105F
:102080003A94F1E08F1A9108C7CF843619F0893657
:1020900009F074C0F80157FE6AC061917191819195
:1020A00091918F01252D2F76D22E97FF09C0909503
:1020B0008095709561957F4F8F4F9F4F6894D7F8AB
:1020C0002AE030E0A5010E945314C82ECA188C2CB7
:1020D0005D2CD6FE0CC0E89450F8C91440F4D4FE30
:1020E00005C0D2FC03C0FD2DFE7E5F2E892C54FE60
:1020F0008FC0FE01EC0DF11D8081803309F081C09D
:10210000252D297E522E852D8870382E53FC8FC0A8
:1021100050FE89C09C2C841418F44C0C942C9818F4
:1021200054FE8BC0B70180E390E00E940B1452FE76
:1021300009C088E790E051FE02C088E590E0B70151
:102140000E940B14C91408F484C0CA94D12C9FEFC8
:10215000C91AD90ACA0CDB1CF60182916F01B701BA
:1021600090E00E940B14AC14BD04B1F758CF6191FC
:102170007191072E000C880B990B93CFD52CE89406
:10218000D4F82AE030E0853739F1952D997FD92EA2
:102190008F3601F148F48835A9F0F70186819781DF
:1021A0002B96E2E10C94D014803749F08837A9F7D8
:1021B000D4FE02C06894D2F820E130E00DC06894EB
:1021C000D4F8F6CF54FE03C0E92FE660DE2E20E1FE
:1021D00032E002C028E030E0F801D7FE0DC0619186
:1021E0007191819191918F01A5010E945314C82E84
:1021F000CA18E894D7F86BCF6191719190E080E0B4
:10220000F2CF52FC02C083947ECF839483947BCF21
:10221000852D867809F477CFF6CFB70180E290E07C
:102220000E940B1483948414C0F3312C79CF342C86
:102230003818841408F474CFF8CF852D867809F403
:1022400081CF8BE251FE80E257FC8DE2B70190E036
:1022500077CFB70180E390E00E940B149A9472CF7D
:102260008FEF9FEF9DCF20FD09C0FC0123FD05C02E
:1022700022FF02C07383628351834083089533E059
:1022800044FD10C034E046FD0DC0DB01FC01AA0F87
:10229000BB1FEE1FFF1F1094D1F76A0F7B1F8E1F0D
:1022A0009F1F31E0660F771F881F991F3150D1F7AC
:1022B000620F711D811D911D08950F931F93CF9380
:1022C000DF938C01C8010E94D113EC0197FD08C077
:1022D0000E94A713892BB1F7B801CE010E943B14CD
:1022E000CE01DF91CF911F910F9108958F929F9210
:1022F000AF92BF92EF92FF920F931F93CF93DF9312
:102300008C01D62F7A01B22E0E94D1139C01332763
:102310002B32310529F02D323105A9F46894B7F834
:10232000D15061F480E0DF91CF911F910F91FF9028
:10233000EF90BF90AF909F908F900895C8010E943A
:10234000D11397FDEFCFCB2DCD7F2B2D2073F9F43B
:102350008033E9F4AA24AA94AD0E89F0C8010E9442
:10236000D11397FD0CC0282F2F7D283561F4C2644E
:10237000D25029F0C8010E94D11397FF08C0812CC8
:10238000912C54011BC0B6FE2BC0C260DA2D812CEB
:10239000912C540120ED280F283028F1C4FD09C0EC
:1023A0002A3008F1C6FF05C02F7D3FEE320F3630D0
:1023B000C8F0B8010E943B14C1FFB4CFC7FF08C0EA
:1023C000B094A09490948094811C911CA11CB11C89
:1023D0002C2FB501A401C7010E94331181E0A3CFC6
:1023E000C261D4CF27504C2FC501B4010E943F11C8
:1023F0004B015C01C260D15009F3C8010E94D113A6
:1024000097FFC8CFDBCFA0E2B0E0E9E0F2E10C94A7
:10241000BA145C01962E7A01CE0101966C0180E21D
:10242000F60111928A95E9F7F5018380890150E060
:1024300040E0B0E020E0A0E061E070E0F80183FC63
:10244000959183FE9191892F8F01911107C010E022
:1024500000E0C801A096ECE00C94D6149E3519F467
:102460004115510531F1A4171506ECF49D3549F1DC
:102470009D32C9F4222309F1E82FE695E695E69509
:10248000EC0DFD2DF11D982F97709B0101C0220FBF
:102490009A95EAF79081292B20838B1781F08B176F
:1024A00030F48F5FE9CF2111E7CFB92FE5CF81500D
:1024B000E3CFA1E04F5F5F4FC1CF21E0FBCF20E032
:1024C000F9CF222319F08E8180628E83AA2361F0D6
:1024D000F6019E012F5D3F4FDF018D918095808336
:1024E000FD01A217B307C1F788248394C5010E9498
:1024F000D11397FD16C0E82FE695E695E695EC0D0D
:10250000FD2DF11D208130E0AC014770552702C040
:10251000359527954A95E2F720FD06C0B5010E9442
:102520003B14882059F093CFE114F10419F0F7011E
:1025300081937F019A94812C9110D8CFE114F104FA
:1025400009F487CFF701108284CFB0E0A0E0EBEA76
:10255000F2E10C94B8145C01EB01742E652EFC01C1
:1025600017821682C12CF501F380FE01F3FC8591E0
:10257000F3FE8191182FEF018823E9F090E00E948B
:10258000A713892B21F0C5010E945D11ECCF1532F4
:1025900041F4FE01F3FC1591F3FE1191EF011532A8
:1025A00069F4C5010E94D11397FD8CC01817D9F2A8
:1025B000B5010E943B148C2D90E088C000E01A32D7
:1025C00031F4F3FC1591F3FE1191EF0101E0D12CF0
:1025D00020ED210F2A3048F101FF37C0DD2059F3EB
:1025E0001836B1F11C3609F43DC0112321F3612FD7
:1025F00070E088E690E00E94B013892BE1F2F12CA4
:10260000E12C00FD06C0E72DF62DE190F1907E2E25
:102610006F2E1E3679F5F5014681578170E060E036
:10262000202FC7010E9433119ECF02606D2D70E0F4
:1026300090E080E040E20E943F11D62EFE01F3FCC4
:102640001591F3FE1191EF01C3CFDD24DA94C8CFC9
:10265000FE01F3FC1591F3FE1191EF01183609F01C
:10266000C4CF08600460FE01F3FC1591F3FE1191E4
:10267000EF01BBCF1336B1F401FD02C0DD24D394CA
:10268000C5010E94D11397FD1DC0E114F10419F09A
:10269000F70181937F01DA94D110F2CF00FD63CF6F
:1026A000C39461CF1B35B9F49E01A7016D2DC501FF
:1026B0000E940312EC01892B89F7F5018381807355
:1026C00009F479CF8FEF9FEFC11075CFCDB7DEB78B
:1026D000EEE00C94D414C5010E945D1197FDF2CF79
:1026E0001F3699F130F4143641F0193639F0006490
:1026F00005C01337A9F01537D1F70062202FA701C5
:102700006D2DC5010E9476118111C8CFD6CFE1147D
:10271000F10419F0F70181927F01DA94DD2071F064
:10272000C5010E94D1134C0197FD08C00E94A71358
:10273000892B69F3B501C4010E943B14E114F10433
:1027400009F4ACCFF7011082A9CF0061D7CF911166
:102750000C94B114803219F089508550C8F708954F
:10276000FC010590061621F00020D9F7C00108955C
:102770003197CF010895FC01059061507040011020
:10278000D8F7809590958E0F9F1F0895FC0161509A
:10279000704001900110D8F7809590958E0F9F1F83
:1027A0000895CF93DF93EC012B8120FF2FC026FFEC
:1027B0000CC02F7B2B838E819F8101969F838E83FC
:1027C0008A8190E0DF91CF91089522FF14C0E881C3
:1027D000F9818081082E000C990B20620097A9F0E6
:1027E0003196F983E8832E813F812F5F3F4F3F83EE
:1027F0002E839927E7CFEA85FB85099597FFF3CFCD
:102800002B81019631F080E2282B2B838FEF9FEFF5
:10281000D9CF80E1F9CF0F931F93CF93DF93182F78
:10282000092FEB018B8181FD09C01FEF0FEF812F75
:10283000902FDF91CF911F910F91089582FF14C0C7
:102840002E813F818C819D81281739073CF4E881D6
:10285000F981CF0101969983888310838E819F81AE
:1028600001969F838E83E3CFE885F985812F0995B3
:10287000892BA1F3DACFFB01238120FF11C026FDB4
:102880000FC08F3F980771F082832F7D20642383D0
:10289000268137812150310937832683992708956E
:1028A0008FEF9FEF0895FA01AA27283051F12031C8
:1028B00081F1E8946F936E7F6E5F7F4F8F4F9F4FD4
:1028C000AF4FB1E03ED0B4E03CD0670F781F891F16
:1028D0009A1FA11D680F791F8A1F911DA11D6A0FE4
:1028E000711D811D911DA11D20D009F468943F9197
:1028F0002AE0269F11243019305D3193DEF6CF0196
:102900000895462F4770405D4193B3E00FD0C9F75B
:10291000F6CF462F4F70405D4A3318F0495D31FDC8
:102920004052419302D0A9F7EACFB4E0A69597951B
:10293000879577956795BA95C9F7009761057105F1
:1029400008959B01AC010A2E06945795479537953B
:102950002795BA95C9F7620F731F841F951FA01D95
:1029600008959927882708952F923F924F925F925A
:102970006F927F928F929F92AF92BF92CF92DF928F
:10298000EF92FF920F931F93CF93DF93CDB7DEB7F4
:10299000CA1BDB0B0FB6F894DEBF0FBECDBF099488
:1029A0002A88398848885F846E847D848C849B84DF
:1029B000AA84B984C884DF80EE80FD800C811B81ED
:1029C000AA81B981CE0FD11D0FB6F894DEBF0FBE1C
:0A29D000CDBFED010895F894FFCF8C
:1029DA002F008C00E9004601A30100025D02BA0241
:1029EA0017037403D1030004FA00F401EE02E803AA
:1029FA00E204DC05D606D007C409B80BA00F6C693F
:102A0A0073740073696D0073696D756C6174650028
:102A1A0069676E69746572006564697400747269C5
:102A2A006767657200636C73006B696C6C00646540
:102A3A006661756C740061646363616C001B5B336F
:102A4A00336D001B5B33376D0025753A25752E25CE
:102A5A00750025753A257500253032753A253032CC
:082A6A00752E253032750000C5
:00000001FF
