:100000000C943A020C9463020C9463020C94630205
:100010000C9463020C94D5070C9463020C94630255
:100020000C9463020C9463020C9463020C94BA0760
:100030000C9463020C9463020C9463020C946302AC
:100040000C9463020C9463020C9463020C9463029C
:100050000C9463020C9463020C9463020C9463028C
:100060000C9463020C9463026364696E6F70737521
:1000700078585B000D0A41444D55583A20000D0A4E
:1000800044757263687363686E6974743A20000D16
:100090000A000A0D001B5B31440020001B5B314449
:1000A000000D0A000D0A4175737761686C3A2028CB
:1000B00045292D416E7AC3BC6E6465722C2028548C
:1000C00029616C6F6E2C2041626272756368206DCD
:1000D000697420616E646572657220546173746521
:1000E0003A2000452D414E5AC39C4E44455220288B
:1000F0003230206D73290054414C4F4E202832205D
:100100007329000D0A4465727A6569742065696E09
:1001100067657374656C6C74657320416E7AC3BCDB
:100120006E646D697474656C0D0A3D3D3D3D3D3DE9
:100130003D3D3D3D3D3D3D3D3D3D3D3D3D3D3D3DEF
:100140003D3D3D3D3D3D3D3D3D3D3D3D0D0A0A00B2
:100150000D0A0A0054726967676572000D0A0A0089
:100160002C2000547269676765720046697865647F
:100170003A20005661726961626C650D0A20202088
:10018000202020202020202020200020202020208F
:10019000202020202020002053202020202020204C
:1001A0002020202046697865643A20547269676788
:1001B00065720D0A0A000D0A0A536368616C746562
:1001C00072706F732E20466573742F566172696169
:1001D00062656C0A0D0053004465727A6569746942
:1001E000676520536368616C746572706F736974BE
:1001F000696F6E3A20003D3D3D3D3D3D3D3D3D3DFD
:100200003D3D3D3D3D3D3D3D3D3D3D3D0A0D000AF1
:100210000D416B7475656C6C652045696E73746512
:100220006C6C756E67656E0A0D000D0A000D0A0094
:100230000D0A5374657070696E74657276616C2016
:10024000286629657374206F646572202876296199
:1002500072696162656C3A20000D0A0A0054726985
:1002600067676572000D0A5365747A6520496E747C
:10027000657276616C6C206175663A20000D0A4EDD
:100280006575657220576572742028537465703ADD
:1002900020303A30302E3030202D20393A35392E6A
:1002A00039392C20742066C3BC722067657472696A
:1002B0006767657274656E2042657472696562294C
:1002C0003A20000D0A496E74657276616C6C6E7529
:1002D0006D6D65722028312D31352C2030206E69EE
:1002E00063687420C3A46E646572626172293A20E7
:1002F000000D0A004D6F64757320766572C3A46E9D
:100300006465726E20284D292C20496E74657276C2
:10031000616C6C20766572C3A46E6465726E202871
:100320004929206F64657220616262726563686545
:100330006E2028616E64657265205461737465294E
:100340003F20000D0A0A000D0A00547269676765B4
:100350007200293A20002D00202800203020285348
:1003600074617274293A20547269676765720D0A64
:10037000005661726961626C6520496E74657276BF
:10038000616C6C653A0D0A000D0A0A0054726967C7
:100390006765720046657374657320496E74657293
:1003A00076616C6C3A20003A0D0A000D0A0A0A0ABE
:1003B0000046657374657320496E74657276616C6E
:1003C0006C20286E6963687420C3A46E64657262D1
:1003D0006172293A205472696767657200533A0D59
:1003E0000A000A0D45696E7374656C6C756E6765FD
:1003F0006E20646572206465727A656974696765E8
:100400006E20536368616C7465727374656C6C758F
:100410006E67200020001B5D303B46554F434F2048
:100420005354455007001B5B334A001B5B303B3085
:1004300048001B5B324A00496E76616C6964204655
:100440006F726D617400496E76616C6964206368D7
:10045000617220696E2074696D65737472696E676C
:100460000A002D0030000A0D001B5B3144201B5B8D
:100470003144000014BE0FB6F894A8958091600036
:10048000886180936000109260000FBE11241FBE2F
:10049000CFEFD8E0DEBFCDBF11E0A0E0B1E0E2ECED
:1004A000F9E202C005900D92AA38B107D9F721E010
:1004B000AAE8B1E001C01D92A239B207E1F70E949B
:1004C0000F040C94DF140C940000CF93DF9300D042
:1004D000CDB7DEB780B7806880BF84E480937C00AE
:1004E00080917A00856080937A0080917A0080689C
:1004F00080937A0080917A00806480937A00809162
:100500007A0086FDFCCF80917800909179009A83E3
:10051000898389819A810F900F90DF91CF910895FF
:10052000CF93DF93CDB7DEB768970FB6F894DEBFF1
:100530000FBECDBF98E1E0E0F1E0DE011196019041
:100540000D929A95E1F790917C00987F90937C00B2
:1005500090917C00892B80937C0020E290E080E0E9
:1005600030917A00306430937A0030917A0036FD11
:10057000FCCF4091780050917900840F951F215055
:1005800079F740969C0185E0369527958A95E1F7A5
:10059000FE01319680E0419151912417350720F0FA
:1005A0008F5F8C30C1F780E068960FB6F894DEBF9D
:1005B0000FBECDBFDF91CF9108951F93CF93DF93EF
:1005C00090917C00987F90937C0090917C00892B87
:1005D00080937C0010E2D0E0C0E080917A008064DB
:1005E00080937A0080917A0086FDFCCF609178003C
:1005F00070917900C60FD71F90E080E044E60E941A
:10060000830D8FE890E00E94650D115031F76096E0
:100610008EE790E00E94650D85E0D695C7958A9596
:10062000E1F7BE0190E080E044E60E94830D84E79C
:1006300090E00E94650D60917C0070E090E080E0A9
:1006400048E6DF91CF911F910C94830DF999FECF6D
:1006500092BD81BDF89A80B512BC11BC0895F9997C
:10066000FECF72BD61BD80BDFA9AF99A12BC11BC71
:1006700008951F93CF93DF93EC010E942603182F58
:10068000CE0101960E942603912FDF91CF911F91F9
:1006900008951F93CF93DF93182FEB01892F0E94AA
:1006A0002F03BE016F5F7F4F812FDF91CF911F918D
:1006B0000C942F03419A089582E086B908954198D9
:1006C00008955C9A089580E189B908955C98089529
:1006D000409A089581E086B9089540980895429A15
:1006E000089584E086B90895429808954298409804
:1006F0005C9841980895429A409A5C9A419A08956C
:1007000086B18695817030998260329984604C9967
:10071000886008950E945F03399A0E946603549A84
:100720000E946D03389A0E9474033A9A0895439A7E
:10073000239A3B9A229A259A2B982A982D9893E0EF
:1007400020E234E084E123B923B98150E1F733B9E1
:1007500033B99150B9F78BED95E00197F1F700C0EF
:10076000000043988CB581658CBD08954398089529
:10077000439A08952B982D982A989EBD0DB407FE94
:10078000FDCF8EBD0DB407FEFDCF84E083B983B9E4
:1007900008955B9A5398E8E6F0E080818460808356
:1007A000ADE6B0E08C9188608C9352988081846033
:1007B000808345983D9A0895DC01E5B516BC81E03B
:1007C00085BB80EA86BD85E085BD21E030E0C901BA
:1007D00002C0880F991F6A95E2F7BC0140E095E5D9
:1007E000F1E080EA2C9130E02623372351E0121605
:1007F00013060CF050E0990F952BA89BFECFF5BB8C
:1008000086BD483008F44F5F2FEF290F2E3F50F37D
:10081000483040F3E5BD81E0911180E00895CDB707
:10082000DEB7C25AD1400FB6F894DEBF0FBECDBFBF
:100830000FB6F894A895809160008861809360005D
:10084000109260000FBE86E1E8E1F1E0DE01A759F9
:10085000BE4F01900D928A95E1F79E012F5F3F4FA9
:1008600029018AE491E0F9019C0111922150304064
:10087000E1F7CE0181579E4FC656DE4F998388839C
:10088000CA59D1408BE0C656DE4FE881F981CA597A
:10089000D14011928A95E9F79E0121583E4FC456E6
:1008A000DE4F39832883CC59D14080E1F901119280
:1008B0008A95E9F72651310979016201A9014A5E59
:1008C0005F4FC201F90121913191DC016FE0C25605
:1008D000DE4F6883CE59D1402D933D93C256DE4FF3
:1008E0006881CE59D1406150C256DE4F6883CE59DF
:1008F000D1406111F1CF4E96E417F50721F710E0D2
:1009000000E01E0185EB281A8EEF380A8EE1F10116
:1009100011928A95E9F70E94970380916400806C98
:100920008093640080B7806880BF0E94D70C0E94CB
:10093000C9030E948A030E94650260E875E280E0B4
:1009400090E00E94FD0C81E090E00E9426038F3F22
:1009500009F4C6C09E0121573E4F49015DE0A52E16
:10096000B12C62E0662E712CC3010E942603F401B3
:1009700081934F01C5010E943903F701819391933F
:100980007F01FFEF6F1A7F0A22E0A20EB11C3DE04B
:100990006316710449F741E4E42EF12C57016EE12E
:1009A000A61AB1084601C5010E943903F4018193DA
:1009B00091934F01F2E0AF0EB11CAE14BF0499F752
:1009C0002EE1C20ED11C3EE1E30EF11C4BE8E41611
:1009D00041E0F40619F78DE691E00E942603A82E67
:1009E00088ECA81611F082E0A82E89B18C70809353
:1009F0008A0181E0809390017894B12C912CDD24C0
:100A0000D394F12CE12C66246394F1013196C15604
:100A1000DE4FF983E883CF59D1402FE731E02C0F27
:100A20003D1F205F3F4FCF55DE4F39832883C15A8A
:100A3000D140809190018823F9F0CFB6F8941092BC
:100A4000900163E089E290E00E94DC03C256DE4F31
:100A50008883CE59D140882309F490C084E00E9455
:100A60009002982E80916D00846080936D000E94AA
:100A70006103DD24D394CFBE8091C00087FB10F9C1
:100A800010FFF8C08FB6F8941E7F0E945A030E9490
:100A9000330DF10180838A3009F48FC008F088C0DB
:100AA000883009F48AC00E94870EF10180830E9479
:100AB000440DC156DE4F88819981CF59D1400E94A3
:100AC000930E81117CC08CE990E00E94650D8AE94B
:100AD00090E00E94650D85E990E00E94650D6DC073
:100AE000CE0181579E4F4C01FE01E759FE4F5F0139
:100AF0002DE0C22ED12C32E0632E712CB301F40113
:100B000081914F010E942F03B601F50181919191CE
:100B10005F010E944903FFEF6F1A7F0A22E0C20EB5
:100B2000D11C3DE06316710449F791E4C92ED12C24
:100B300056016EE1A61AB108B501F70180819181D5
:100B40000E944903F2E0AF0EB11CCA14DB04A1F706
:100B500022E0E20EF11C3EE1C30ED11C4BE8C416AC
:100B600041E0D40629F761E070E080E00E942F03A5
:100B70006DE671E082E00E942F032DCF45988091B1
:100B80006D008B7F80936D001B7C1092910190E033
:100B900080E00E94BA030E94F40C0E94EE0C0E94B6
:100BA00066030E9474030E946D03F12CE12C63CF55
:100BB0008D3019F08F3709F076CFF10110826EE297
:100BC00071E0C1010E94740D8111106463E371E052
:100BD000C1010E94740DCA2C882351F08A2D0E94F5
:100BE000390BC82EA81621F06DE671E00E942F0384
:100BF0006BE371E0C1010E94740D8111026060E439
:100C000071E0C1010E94740D81116092910168E44C
:100C100071E0C1010E94740D81110E94FA076CE419
:100C200071E0C1010E94740D8111086061E571E0FD
:100C3000C1010E94740D882331F061E070E08FEFF4
:100C40000E942F03086069E571E0C1010E94740DE4
:100C5000882319F084E00E94DD020E945F03F10105
:100C6000808181508E3F20F482E990E00E94650DE2
:100C70008FBEAC2C16FF11C0CFB6F8941F7B84E05A
:100C80000E949002982EAE0141575E4FBE016759F7
:100C90007E4FC2010E94460ACFBE01FF11C0CFB6EF
:100CA000F8940D7F84E00E949002982EAE01415787
:100CB0005E4FBE0167597E4FC2010E944D08CFBEF4
:100CC00003FF10C0F8940E94B80388E19EE00FB6BD
:100CD000F894A895809360000FBE909360000E94E6
:100CE000FA07FFCF15FF48C0992009F445C0F1E08D
:100CF000FD1508F041C0292D2150330BC901EFE843
:100D0000F1E0EC0FFD1FE20FF31F2081222309F415
:100D1000FEC04FE0489F9001499F300D1124F9011A
:100D2000ED0DF11D3297EE0FFF1FE40DF51D8081D3
:100D3000918180366AEE960709F415C140918D01C4
:100D400050918E0148175907B8F081E08D0DE82FBA
:100D5000F0E0E250F048E20FF31FEE0FFF1FE40D4A
:100D6000F51DB12C9B2D980F913128F421913191D3
:100D7000232B09F4CAC01460809191018823F1F0FB
:100D8000CFB6F8941092910115FD17C00E94680328
:100D9000809190018111DFC0C256DE4FF881CE599B
:100DA000D140FF2309F4D4C01460992031F01062BF
:100DB00080916D008B7F80936D00CFBE12FF42C08B
:100DC0007FB6F8941B7FC256DE4F2881CE59D140A2
:100DD0002223B9F1DD20A9F130E13D1590F1106138
:100DE0000E946F03882483948D0C8B0C20E130E0EB
:100DF00090E080E04D2D50E0880F991FBA016B0DF7
:100E0000711D2617370719F48160B110BA9421506B
:100E1000310991F7C0908B01D0908C01C82AD92A52
:100E2000459AC6010E94BA03D0928C01C0928B01F0
:100E300010928E0110928D010E94F40C0E94E80C19
:100E4000D82C7FBE14FF35C080918F01882389F193
:100E50005FB7F89410928F0113FB442740F9FE010D
:100E6000E158FE4F81E090E0F12CE12C20918B01C4
:100E700030918C0128233923232B31F020812F5FDF
:100E80002A1508F06BC02083880F991F3196CF5523
:100E9000DE4F28813981C15AD1402E173F0731F7E3
:100EA00040FB13F980918B0190918C01E826F92683
:100EB0005FBF13FFBECDCFB6F894177FC7010E9466
:100EC000BA03F0928C01E0928B01E114F10421F459
:100ED00045981F7E0E94740330E13D1558F41F7D34
:100EE0000E94EE0C0E94F40C10928E0110928D0163
:100EF000DD24D39415FD07C00E946D0380916D0021
:100F0000846080936D00CFBE94CDB3942BCF880FB7
:100F1000991FE9E6F1E0EC0FFD1FE80FF91F808152
:100F200091818036EAEE9E07F1F040918D0150915B
:100F30008E014817590708F41FCF892B31F421E09F
:100F400081E08D0D813108F020E01460B22E14CFC5
:100F50000E946D0332CF609291012FCFE82AF92AC7
:100F6000108241E091CF1F7D80916D00846080935D
:100F70006D0002CF8F938FB78F939F9380918D01D8
:100F800090918E01019690938E0180938D018091B6
:100F90008B0190918C01009719F081E080938F0173
:100FA0009F918F918FBF8F9118958F938FB78F934C
:100FB0009F9389B18C7090918A019827983051F055
:100FC0009C3091F0943049F491E0843031F4909366
:100FD000910103C091E09093900180938A019F91C9
:100FE0008F918FBF8F91189591E0909390018430ED
:100FF000A1F7EDCF82E394E00E94650D8BE294E0CF
:101000000E94650D86E294E00E94650D86E194E001
:101010000C94650D8F929F92AF92BF92CF92DF9208
:10102000EF92FF921F93CF93DF936B017C01142FFC
:10103000C22FAC019B01D0E08AE0882E912CA12C1C
:10104000B12C2115310541055105B1F4F7FE02C05F
:10105000C111C150CD17C0F4412FC701B601DF91B6
:10106000CF911F91FF90EF90DF90CF90BF90AF9006
:101070009F908F900C94830DCA01B901A501940132
:101080000E94010FDF5FDDCFCD1BCC2329F384E16C
:1010900094E00E94650DC150F8CF2F923F924F927D
:1010A0005F926F927F928F929F92AF92BF92CF92F8
:1010B000DF92EF92FF920F931F93CF93DF93CDB701
:1010C000DEB766970FB6F894DEBF0FBECDBF4C01FA
:1010D0005B017A0184E00E949002582E82EE93E038
:1010E0000E94650D511025C08DED93E00E94650DA5
:1010F00081EB93E00E94650D8BEA93E00E94650D01
:1011000066960FB6F894DEBF0FBECDBFDF91CF91CC
:101110001F910F91FF90EF90DF90CF90BF90AF9015
:101120009F908F907F906F905F904F903F902F9007
:101130000895652D70E090E080E044E60E94830D04
:1011400022242A94250C87EA93E00E94650D23E768
:101150002216B1F2022D10E0E00EF11EF70180819F
:1011600081113BC084E993E00E94650DF801EE0F08
:10117000FF1FEA0DFB1D808191818036FAEE9F07EB
:1011800039F1BE01655F7F4F0E94A50CCE010B9621
:101190000E94550D88E893E00E94650D84EF92E06F
:1011A0000E94650D0E94330DD82E8823D9F30E942A
:1011B000440D81EF92E00E94650D8D2D806289368D
:1011C00009F465C08D3609F43BC18AE292E096CFFE
:1011D0008CE893E00E94650DDDCF81E793E00E94EB
:1011E000650D8BE593E00E94650D2FE0229E600166
:1011F0001124CC0CDD1CC80CD91C412C512C320103
:10120000439422E044E6C301B2010E940A0888E543
:1012100093E00E94650D22E044E6C301B2010E9402
:101220000A0886E593E00E94650D3FEF431A530AD2
:10123000630A730A22E044E6C301B2010E940A086D
:1012400082E593E00E94650DF601819191916F0115
:101250008036FAEE9F07B1F0BE01655F7F4F0E94B6
:10126000A50CCE010B960E94550D87E493E00E94D9
:10127000650D20E1421651046104710411F683E406
:1012800093E08ACF8AE493E00E94650DEECFF701E8
:1012900080819E012F5F3F4F6901811157C0442417
:1012A0004A948DE792E00E94650D8AE0F601119262
:1012B0008A95E9F7360179E0372E3C0C0E94330D10
:1012C000982F9062943709F087C084E50E94440DFE
:1012D00060E6C62E6AEED62E85E692E00E94650D87
:1012E00020E6C2162AEED20609F49AC0BE01655F56
:1012F0007F4FC6010E94A50CCE010B960E94550D92
:1013000089E592E00E94650DF7018081882309F448
:101310008CC0842D90E09C01FFE02F9E200D311D9C
:101320001124220F331F820E931EF401D182C0823A
:10133000FEE12F9EB00111246D5D7F4F880F991F34
:10134000680F791FC6010E9449033FCF83EC92E0EA
:101350000E94650D1E8A1D8A19821A821B821C82B8
:101360003601E3E04E2E4C0C0E94330D90ED980FA9
:101370009A3028F08A3011F08D3019F480E0F301B2
:101380008083F30181913F01811121C0CE014596F7
:101390009F938F9382E791E09F938F93DF92CF92F9
:1013A0000E94430F6D897E89CB0101970F900F90AA
:1013B0000F900F900F900F9044244A94460E0F9771
:1013C00008F46FCFF70180818111FFCE68CF0E94B2
:1013D000440D4610C9CFDACF90ED980F9A3050F0F7
:1013E0008A30B9F08D30A9F08A3321F0982F9D7F93
:1013F0009C3211F4F3018083F30181913F0181114B
:101400000AC0C6010E94640B6C01019609F4DDCE8E
:1014100063CF80E0EFCF0E94440D36104FCFF1CF65
:101420008DE592E00E94650D6BCF000F111FF50155
:10143000E00FF11FD182C082B801635F7F4F82CF7E
:1014400080E392E00E94650D0E94330DD82E882320
:10145000D9F30E94440D8DE292E00E94650DF701E0
:1014600090818D2D8062863661F41082F701808133
:10147000891709F4AACEB8016E5F7F4F0E942F032F
:10148000A4CE863799F781E08083F0CF2F923F92E8
:101490004F925F926F927F928F929F92AF92BF9284
:1014A000CF92DF92EF92FF920F931F93CF93DF9330
:1014B000CDB7DEB72C970FB6F894DEBF0FBECDBF09
:1014C0004C015B018A010E94FA078FE092E00E94C2
:1014D000650D86EF91E00E94650D88ED91E00E9418
:1014E000650D84E00E949002D82E882309F491C0F3
:1014F000682F70E090E080E044E60E94830D86EB68
:1015000091E00E94650D80E691E0DD2011F086E615
:1015100091E00E94550D87E991E00E94650D7801E8
:10152000412C512C3201439410E000E08D2D81506C
:10153000990B9C878B872EE1222EEB85FC8580E61C
:1015400091E0E017F10711F086E691E00E94550D59
:1015500022E044E6C301B2010E940A088BE891E050
:101560000E94650D6701F7018081882309F456C048
:1015700083E791E00E94650DFFEFEF1AFF0AF60185
:101580008081882309F457C0209E6001219ED00CE1
:101590001124C80CD91C312CF601819191916F0155
:1015A0008036FAEE9F07E9F583E691E00E94650D2B
:1015B0002EE080E691E0321202C08CE591E00E94BC
:1015C000650D33948FE03812E7CF0F5F1F4FFFEFA9
:1015D0004F1A5F0A6F0A7F0A0B30110509F0ADCF71
:1015E0002C960FB6F894DEBF0FBECDBFDF91CF9122
:1015F0001F910F91FF90EF90DF90CF90BF90AF9031
:101600009F908F907F906F905F904F903F902F9022
:10161000089586ED91E00E94650D71CF8BE691E013
:10162000A9CFBE016F5F7F4F0E94A50CCE0101962E
:101630000E94550DBDCFF801EE0FFF1FEA0DFB1DF7
:10164000808191818036EAEE9E0771F0BE016F5F66
:101650007F4F0E94A50CCE0101960E94550D80E59A
:1016600091E00E94650DB1CF84E591E00E94650D87
:10167000F6CFCF93DF93D82F83E091E00E94650DE2
:1016800087EF90E0D83C11F083EE90E00E94650D6A
:1016900084EA90E00E94650D0E94330DC82F8823D4
:1016A000D9F30E94440D81EA90E00E94650DC0626A
:1016B000C53631F0C43731F08D2FDF91CF910895C9
:1016C000D2E0FACFD8ECF8CF0F931F93CF93DF93EC
:1016D00000D000D000D0CDB7DEB7FC011E821D8245
:1016E0001C821B821A8219821286DC010D90002056
:1016F000E9F711979A2F9E1B993008F056C0911167
:1017000055C08FEF9FEF13C12E3209F047C0413013
:1017100009F461C0312F41E01F5F19134DC044230C
:10172000A1F0BF01610F711D8B0162507109DB01D6
:101730009C919E3229F490E3D8019C9311961C92BF
:10174000DF01A30FB11D13961C92880F840F9081A7
:101750009A3309F045C0982F9460823009F486C00E
:10176000833009F444C0813009F0A6C09E012F5F88
:101770003F4F93FF8DC03F932F9381E791E09F935D
:101780008F93FF93EF930E94430F0F900F900F9052
:101790000F900F900F901E821D8242C02F32D9F001
:1017A0002E522D3008F4B8CF16C098E0BF0110E0DB
:1017B00034E140E080E05EE2DB012C912C3209F460
:1017C0005C93DB012D91BD012A3309F09DCF8F5F22
:1017D000823009F0A1CF86E494E00E94650D91CF9C
:1017E0009E3219F4982F9860B8CF982FB6CFAE01DB
:1017F0004F5F5F4F9E012D5F3F4F92FF26C05F936B
:101800004F933F932F938EE691E09F938F93FF9397
:10181000EF930E94430F0FB6F894DEBF0FBECDBF0B
:101820008D819E818A30910508F08CC0892B21F032
:101830008B819C81CC9730F429813A812436310503
:1018400008F451C087E394E0C8CF5F934F933F9370
:101850002F93CE0105969F938F938CE691E09F93F3
:101860008F93FF93EF930E94430FD5CFCE01039642
:101870009F938F9302969F938F9385E791E09F9319
:101880008F93FF93EF930E94430F1A821982C3CF65
:101890003F932F93CE0103969F938F938FE691E012
:1018A0009F938F93FF93EF930E94430F0FB6F8948B
:1018B000DEBF0FBECDBF6FCFCE0103969F938F9338
:1018C00082E791E09F938F93FF93EF930E94430FE2
:1018D0001E821D821A8219820F900F900F900F9016
:1018E0000F900F909DCF8B819C818C33910540F0A0
:1018F0006CE370E00E94CB0E7E836D839C838B83B0
:101900006D817E8140E757E1649FC001659F900D26
:10191000749F900D11246B817C81E4E6E69FA00109
:10192000E79F500D1124840F951F820F931F269659
:101930000FB6F894DEBF0FBECDBFDF91CF911F91E0
:101940000F91089580E69AEEF2CFCF939C01462F37
:10195000C72F20368AEE380740F5E4E6F0E0C901EB
:10196000BF010E94CB0E9F938F93C90160E777E17F
:101970000E94CB0E9B01BF010E94CB0E7F936F9301
:101980003F932F938BE791E09F938F93CF934F9348
:101990000E94200F8DB79EB70A960FB6F8949EBF8F
:1019A0000FBE8DBF80E0CF91089581E0FCCF8BE426
:1019B0009DE19093890080938800E1E8F0E08081C8
:1019C00088608083EFE6F0E0808182608083089504
:1019D000E1E8F0E08081826080830895E1E8F0E052
:1019E0008081887F8083089581E086BB1092850086
:1019F000109284000895089508950F931F93CF9334
:101A00008B019C01CFB7F89443E0660F771F881FC6
:101A1000991F4A95D1F760587247844A9F4FA90190
:101A20009801E4E0220F331F441F551FEA95D1F7B8
:101A30000E94DF0EBA01A9014150510961097109E3
:101A4000BB27A72F962F852F8093C5004093C400F6
:101A500088E18093C10086E08093C200CFBFCF9120
:101A60001F910F91089580E89DE8ABE5B0E00197E4
:101A7000A109B10939F02091C00027FFF8CF80916A
:101A8000C600089580E0089540E85DE86BE570E0E9
:101A9000415051096109710921F09091C00095FFF1
:101AA000F7CF8093C60080E00895CF93DF93EC01D9
:101AB00080E09991992311F0882319F0DF91CF915B
:101AC0000895892F0E94440DF4CFCF93DF93EC014A
:101AD000FE018491882329F00E94440D21968823D9
:101AE000B9F3DF91CF910895FC01DB012D91BD0188
:101AF0009191211104C081E0911103C0089529172B
:101B0000A1F380E0FBCF4F925F926F927F928F9212
:101B10009F92AF92BF92CF92DF92EF92FF920F937C
:101B20001F93CF93DF93CDB7DEB7A1970FB6F8948D
:101B3000DEBF0FBECDBF6B017C018E010F5F1F4F5B
:101B400081E2F80111928A95E9F7483439F110F5EC
:101B5000423431F1C114D104E104F10409F09CC014
:101B600084E694E0A1960FB6F894DEBF0FBECDBF19
:101B7000DF91CF911F910F91FF90EF90DF90CF9069
:101B8000BF90AF909F908F907F906F905F904F909D
:101B90000C94650D423621F04836E1F680E062C0D3
:101BA000D701C601F7FE07C088279927DC018C19E9
:101BB0009D09AE09BF0940E8842E912CA12CB12CBF
:101BC0008F3F9105A105B10581F07CF0812C912C0E
:101BD000A12C50E8B52E8F3F9F4FA105B1052CF4E5
:101BE000812C30E8932EA12CB12CD701C60188217D
:101BF0009921AA21BB21892B8A2B8B2B19F580E3F4
:101C00000E94440DB694A7949794879481149104EC
:101C1000A104B10451F7A1960FB6F894DEBF0FBE30
:101C2000CDBFDF91CF911F910F91FF90EF90DF908B
:101C3000CF90BF90AF909F908F907F906F905F906C
:101C40004F90089581E3DCCFF801E80FF11D9C2D42
:101C50009F70908394E0F594E794D794C7949A95F5
:101C6000D1F78F5FC114D104E104F10469F788232F
:101C700059F380FD8F5F7801E80EF11CE016F10644
:101C800051F2F70182917F018A3020F0895C0E9435
:101C9000440DF4CF805DFBCFA12CF7FE0AC0F09479
:101CA000E094D094C094C11CD11CE11CF11CAA2466
:101CB000A3944801B12C8AE0482E512C612C712C40
:101CC000B394C701B601A30192010E94010FF40170
:101CD00061934F0169017A01C114D104E104F10457
:101CE00019F0F1E2BF12ECCFAA2021F082E694E0D5
:101CF0000E94650D7801EB0CF11CF70182917F01C8
:101D0000805D0E94440D0E151F05B9F784CF9FEB2F
:101D1000980F9A3130F0843C21F0863D11F08C3DD3
:101D200009F4806208950F931F93CF93DF938C0182
:101D3000C0E00E94330D0E94870ED82F8D30B1F085
:101D40008A30A1F0883011F08F3789F4C11108C0B2
:101D5000F80110828C2FDF91CF911F910F91089580
:101D6000C15089E694E00E94650DE3CFD0E0F80110
:101D7000EC0FF11DD0838D2F0E94440DDD2341F027
:101D8000CF5FCD31B1F686E694E00E94650DE2CFDB
:101D9000CC2301F3F8CFAA1BBB1B51E107C0AA1F3C
:101DA000BB1FA617B70710F0A61BB70B881F991FFC
:101DB0005A95A9F780959095BC01CD010895A1E2AF
:101DC0001A2EAA1BBB1BFD010DC0AA1FBB1FEE1FB5
:101DD000FF1FA217B307E407F50720F0A21BB30B00
:101DE000E40BF50B661F771F881F991F1A9469F77C
:101DF00060957095809590959B01AC01BD01CF01D8
:101E00000895052E97FB1EF400940E94180F57FDAD
:101E100007D00E94DF0E07FC03D04EF40C94180F7D
:101E200050954095309521953F4F4F4F5F4F089506
:101E300090958095709561957F4F8F4F9F4F089536
:101E4000AEE0B0E0E6E2FFE00C94B6140D891E8926
:101E500086E08C831A8309838FEF9FE79E838D83AF
:101E6000AE01475E5F4F6F89788DCE0101960E946B
:101E70005C0F2F813885020F131FF80110822E96F8
:101E8000E4E00C94D214AEE0B0E0E9E4FFE00C949E
:101E9000B81485E08C838B899C899A838983AE01F1
:101EA000495E5F4F6D897E89CE0101960E9499122D
:101EB0002E96E2E00C94D414ABE0B0E0E2E6FFE052
:101EC0000C94A8147C013B018A01FC011782168244
:101ED000838181FFB9C19AE0292ECE0101965C0170
:101EE000F7019381F30193FD859193FF81913F0168
:101EF000882309F446C1853239F493FD859193FF17
:101F000081913F01853229F4B70190E00E94FF13CF
:101F1000E7CF912C412C512CFFE1F51538F08B3295
:101F200009F188F4803201F1833221F157FC3AC083
:101F300020ED280F2A3040F556FE1FC0929C200D40
:101F40001124922E06C08D3291F0803379F7689477
:101F500050F8F30193FD859193FF81913F01811129
:101F6000DBCF20C0689451F8689452F8F2CF68949F
:101F700053F8EFCF689454F8ECCF429C200D112415
:101F8000422E689455F8E5CF8E3229F456FCF9C0FC
:101F9000689456F8DECF8C3619F4689457F8D9CF88
:101FA0008836B9F2982F9F7D95549330C0F08336D0
:101FB000A1F18337C1F1833509F05BC0F801C1900D
:101FC000D1908F01692D70E056FC02C06FEF7FEF5A
:101FD000C6010E94AF134C01689457F80AC00C5F09
:101FE0001F4F2FE3298388248394912C6501E89463
:101FF00057F853FC04C04814190409F018F5342CA0
:102000008114910431F5332009F46ACFB70180E2DD
:1020100090E00E94FF133A94F6CFF8018081898303
:102020000E5F1F4FE0CFF801C190D1908F01692D55
:1020300070E056FC02C06FEF7FEFC6010E94BA133A
:102040004C01D5CFB70180E290E00E94FF134A9483
:10205000D2CFF60157FC859157FE81916F01B701F0
:1020600090E00E94FF1331103A94F1E08F1A91082A
:10207000C7CF843619F0893609F074C0F80157FECD
:102080006AC061917191819191918F01252D2F7677
:10209000D22E97FF09C090958095709561957F4FDE
:1020A0008F4F9F4F6894D7F82AE030E0A5010E9437
:1020B0004714C82ECA188C2C5D2CD6FE0CC0E89490
:1020C00050F8C91440F4D4FE05C0D2FC03C0FD2D65
:1020D000FE7E5F2E892C54FE8FC0FE01EC0DF11D9B
:1020E0008081803309F081C0252D297E522E852DD7
:1020F0008870382E53FC8FC050FE89C09C2C8414ED
:1021000018F44C0C942C981854FE8BC0B70180E343
:1021100090E00E94FF1352FE09C088E790E051FE54
:1021200002C088E590E0B7010E94FF13C91408F4CB
:1021300084C0CA94D12C9FEFC91AD90ACA0CDB1CDF
:10214000F60182916F01B70190E00E94FF13AC1479
:10215000BD04B1F758CF61917191072E000C880B27
:10216000990B93CFD52CE894D4F82AE030E085374A
:1021700039F1952D997FD92E8F3601F148F48835A4
:10218000A9F0F701868197812B96E2E10C94C414A3
:10219000803749F08837A9F7D4FE02C06894D2F896
:1021A00020E130E00DC06894D4F8F6CF54FE03C0AF
:1021B000E92FE660DE2E20E132E002C028E030E0C8
:1021C000F801D7FE0DC061917191819191918F01BC
:1021D000A5010E944714C82ECA18E894D7F86BCFFF
:1021E0006191719190E080E0F2CF52FC02C0839443
:1021F0007ECF839483947BCF852D867809F477CF27
:10220000F6CFB70180E290E00E94FF13839484141C
:10221000C0F3312C79CF342C3818841408F474CFDF
:10222000F8CF852D867809F481CF8BE251FE80E2CC
:1022300057FC8DE2B70190E077CFB70180E390E0E3
:102240000E94FF139A9472CF8FEF9FEF9DCF20FDD6
:1022500009C0FC0123FD05C022FF02C07383628315
:1022600051834083089533E044FD10C034E046FDBF
:102270000DC0DB01FC01AA0FBB1FEE1FFF1F109456
:10228000D1F76A0F7B1F8E1F9F1F31E0660F771FEC
:10229000881F991F3150D1F7620F711D811D911D4B
:1022A00008950F931F93CF93DF938C01C8010E9471
:1022B000C513EC0197FD08C00E949B13892BB1F751
:1022C000B801CE010E942F14CE01DF91CF911F9152
:1022D0000F9108958F929F92AF92BF92EF92FF92CB
:1022E0000F931F93CF93DF938C01D62F7A01B22ED9
:1022F0000E94C5139C0133272B32310529F02D3262
:102300003105A9F46894B7F8D15061F480E0DF9109
:10231000CF911F910F91FF90EF90BF90AF909F9042
:102320008F900895C8010E94C51397FDEFCFCB2D64
:10233000CD7F2B2D2073F9F48033E9F4AA24AA94DD
:10234000AD0E89F0C8010E94C51397FD0CC0282F5F
:102350002F7D283561F4C264D25029F0C8010E9453
:10236000C51397FF08C0812C912C54011BC0B6FEE9
:102370002BC0C260DA2D812C912C540120ED280F46
:10238000283028F1C4FD09C02A3008F1C6FF05C075
:102390002F7D3FEE320F3630C8F0B8010E942F1467
:1023A000C1FFB4CFC7FF08C0B094A09490948094AC
:1023B000811C911CA11CB11C2C2FB501A401C701CB
:1023C0000E94271181E0A3CFC261D4CF27504C2FA8
:1023D000C501B4010E9433114B015C01C260D150B0
:1023E00009F3C8010E94C51397FFC8CFDBCFA0E255
:1023F000B0E0EDEFF1E10C94AE145C01962E7A01A1
:10240000CE0101966C0180E2F60111928A95E9F7FE
:10241000F5018380890150E040E0B0E020E0A0E0D9
:1024200061E070E0F80183FC959183FE9191892F22
:102430008F01911107C010E000E0C801A096ECE008
:102440000C94CA149E3519F44115510531F1A417A5
:102450001506ECF49D3549F19D32C9F4222309F1AA
:10246000E82FE695E695E695EC0DFD2DF11D982FEC
:1024700097709B0101C0220F9A95EAF79081292B52
:1024800020838B1781F08B1730F48F5FE9CF2111F8
:10249000E7CFB92FE5CF8150E3CFA1E04F5F5F4F8A
:1024A000C1CF21E0FBCF20E0F9CF222319F08E81AC
:1024B00080628E83AA2361F0F6019E012F5D3F4F5B
:1024C000DF018D9180958083FD01A217B307C1F7CD
:1024D00088248394C5010E94C51397FD16C0E82F78
:1024E000E695E695E695EC0DFD2DF11D208130E099
:1024F000AC014770552702C0359527954A95E2F7FC
:1025000020FD06C0B5010E942F14882059F093CFFA
:10251000E114F10419F0F70181937F019A94812C61
:102520009110D8CFE114F10409F487CFF70110829C
:1025300084CFB0E0A0E0EFE9F2E10C94AC145C01D0
:10254000EB01742E652EFC0117821682C12CF50159
:10255000F380FE01F3FC8591F3FE8191182FEF01CA
:102560008823E9F090E00E949B13892B21F0C5019C
:102570000E945111ECCF153241F4FE01F3FC15918C
:10258000F3FE1191EF01153269F4C5010E94C513E4
:1025900097FD8CC01817D9F2B5010E942F148C2D0D
:1025A00090E088C000E01A3231F4F3FC1591F3FE9C
:1025B0001191EF0101E0D12C20ED210F2A3048F1DB
:1025C00001FF37C0DD2059F31836B1F11C3609F48C
:1025D0003DC0112321F3612F70E088E690E00E9456
:1025E000A413892BE1F2F12CE12C00FD06C0E72DAC
:1025F000F62DE190F1907E2E6F2E1E3679F5F501C5
:102600004681578170E060E0202FC7010E942711AA
:102610009ECF02606D2D70E090E080E040E20E946D
:102620003311D62EFE01F3FC1591F3FE1191EF014B
:10263000C3CFDD24DA94C8CFFE01F3FC1591F3FE7D
:102640001191EF01183609F0C4CF08600460FE0153
:10265000F3FC1591F3FE1191EF01BBCF1336B1F4EA
:1026600001FD02C0DD24D394C5010E94C51397FD6E
:102670001DC0E114F10419F0F70181937F01DA9490
:10268000D110F2CF00FD63CFC39461CF1B35B9F4F5
:102690009E01A7016D2DC5010E94F711EC01892B48
:1026A00089F7F5018381807309F479CF8FEF9FEF6C
:1026B000C11075CFCDB7DEB7EEE00C94C814C501DC
:1026C0000E94511197FDF2CF1F3699F130F4143664
:1026D00041F0193639F0006405C01337A9F01537F9
:1026E000D1F70062202FA7016D2DC5010E946A114C
:1026F0008111C8CFD6CFE114F10419F0F70181920E
:102700007F01DA94DD2071F0C5010E94C5134C01F0
:1027100097FD08C00E949B13892B69F3B501C40182
:102720000E942F14E114F10409F4ACCFF7011082D8
:10273000A9CF0061D7CF91110C94A514803219F064
:1027400089508550C8F70895FC010590061621F0C0
:102750000020D9F7C00108953197CF010895FC01F9
:102760000590615070400110D8F7809590958E0FBC
:102770009F1F0895FC016150704001900110D8F72F
:10278000809590958E0F9F1F0895CF93DF93EC0156
:102790002B8120FF2FC026FF0CC02F7B2B838E8127
:1027A0009F8101969F838E838A8190E0DF91CF91F4
:1027B000089522FF14C0E881F9818081082E000C61
:1027C000990B20620097A9F03196F983E8832E8156
:1027D0003F812F5F3F4F3F832E839927E7CFEA85C5
:1027E000FB85099597FFF3CF2B81019631F080E2AD
:1027F000282B2B838FEF9FEFD9CF80E1F9CF0F9359
:102800001F93CF93DF93182F092FEB018B8181FD4D
:1028100009C01FEF0FEF812F902FDF91CF911F91F4
:102820000F91089582FF14C02E813F818C819D817C
:10283000281739073CF4E881F981CF010196998383
:10284000888310838E819F8101969F838E83E3CF3F
:10285000E885F985812F0995892BA1F3DACFFB0152
:10286000238120FF11C026FD0FC08F3F980771F014
:1028700082832F7D20642383268137812150310973
:1028800037832683992708958FEF9FEF0895FA01E4
:10289000AA27283051F1203181F1E8946F936E7F9F
:1028A0006E5F7F4F8F4F9F4FAF4FB1E03ED0B4E090
:1028B0003CD0670F781F891F9A1FA11D680F791FD1
:1028C0008A1F911DA11D6A0F711D811D911DA11DE2
:1028D00020D009F468943F912AE0269F11243019F2
:1028E000305D3193DEF6CF010895462F4770405D8D
:1028F0004193B3E00FD0C9F7F6CF462F4F70405D3C
:102900004A3318F0495D31FD4052419302D0A9F796
:10291000EACFB4E0A6959795879577956795BA9590
:10292000C9F700976105710508959B01AC010A2E56
:1029300006945795479537952795BA95C9F7620F2D
:10294000731F841F951FA01D089599278827089538
:102950002F923F924F925F926F927F928F929F92AF
:10296000AF92BF92CF92DF92EF92FF920F931F939D
:10297000CF93DF93CDB7DEB7CA1BDB0B0FB6F8944E
:10298000DEBF0FBECDBF09942A88398848885F848E
:102990006E847D848C849B84AA84B984C884DF80FF
:1029A000EE80FD800C811B81AA81B981CE0FD11DE3
:1029B0000FB6F894DEBF0FBECDBFED010895F894B9
:0229C000FFCF47
:1029C2002F008C00E9004601A30100025D02BA0259
:1029D20017037403D1030004FA00F401EE02E803C2
:1029E200E204DC05D606D007C409B80BA00F6C6957
:1029F20073740069676E6974657200656469740056
:102A02007472696767657200636C73006B696C6CE2
:102A12000064656661756C740061646363616C0077
:102A22001B5B33336D001B5B33376D0025753A2515
:102A3200752E25750025753A257500253032753AB3
:0A2A4200253032752E253032750064
:00000001FF
