:100000000C942B020C9454020C9454020C94540241
:100010000C9454020C9466070C9454020C945402F1
:100020000C9454020C9454020C9454020C944B07FC
:100030000C9454020C9454020C9454020C945402E8
:100040000C9454020C9454020C9454020C945402D8
:100050000C9454020C9454020C9454020C945402C8
:100060000C9454020C9454026364696E6F7073753F
:1000700078585B000A0D001B5B31440020001B5BBD
:100080003144000D0A000D0A4175737761686C3ABE
:10009000202845292D416E7AC3BC6E6465722C20E0
:1000A000285429616C6F6E2C2041626272756368FE
:1000B000206D697420616E6465726572205461738D
:1000C00074653A2000452D414E5AC39C4E4445521A
:1000D00020283230206D73290054414C4F4E202887
:1000E00032207329000D0A4465727A6569742065AF
:1000F000696E67657374656C6C74657320416E7AA4
:10010000C3BC6E646D697474656C0D0A3D3D3D3D04
:100110003D3D3D3D3D3D3D3D3D3D3D3D3D3D3D3D0F
:100120003D3D3D3D3D3D3D3D3D3D3D3D3D3D0D0A62
:100130000A000D0A0A0054726967676572000D0AA9
:100140000A002C200054726967676572004669785E
:1001500065643A20005661726961626C650D0A201F
:1001600020202020202020202020202000202020AF
:10017000202020202020202000205320202020206C
:1001800020202020202046697865643A2054726936
:10019000676765720D0A0A000D0A0A536368616C8D
:1001A000746572706F732E20466573742F5661727A
:1001B000696162656C0A0D0053004465727A656975
:1001C0007469676520536368616C746572706F73DE
:1001D0006974696F6E3A20003D3D3D3D3D3D3D3DBA
:1001E0003D3D3D3D3D3D3D3D3D3D3D3D3D3D0A0DA2
:1001F000000A0D416B7475656C6C652045696E7302
:1002000074656C6C756E67656E0A0D000D0A000DE5
:100210000A000D0A5374657070696E7465727661B8
:100220006C20286629657374206F646572202876B7
:10023000296172696162656C3A20000D0A0A0054F6
:10024000726967676572000D0A5365747A652049A3
:100250006E74657276616C6C206175663A20000D73
:100260000A4E65756572205765727420285374654F
:10027000703A20303A30302E3030202D20393A3547
:10028000392E39392C20742066C3BC7220676574FE
:1002900072696767657274656E204265747269651C
:1002A00062293A20000D0A496E74657276616C6CA1
:1002B0006E756D6D65722028312D31352C20302002
:1002C0006E6963687420C3A46E646572626172298A
:1002D0003A20000D0A004D6F64757320766572C375
:1002E000A46E6465726E20284D292C20496E7465B9
:1002F0007276616C6C20766572C3A46E6465726EF2
:1003000020284929206F64657220616262726563EA
:1003100068656E2028616E6465726520546173742F
:1003200065293F20000D0A0A000D0A005472696712
:1003300067657200293A20002D0020280020302017
:10034000285374617274293A205472696767657220
:100350000D0A005661726961626C6520496E7465B0
:100360007276616C6C653A0D0A000D0A0A005472CF
:1003700069676765720046657374657320496E74BA
:10038000657276616C6C3A20003A0D0A000D0A0A1B
:100390000A0A0046657374657320496E7465727647
:1003A000616C6C20286E6963687420C3A46E6465F8
:1003B00072626172293A20547269676765720053EC
:1003C0003A0D0A000A0D45696E7374656C6C756EA2
:1003D00067656E20646572206465727A6569746908
:1003E00067656E20536368616C7465727374656CC5
:1003F0006C756E67200020001B5D303B46554F43F7
:100400004F205354455007001B5B334A001B5B30A1
:100410003B3048001B5B324A00496E76616C696470
:1004200020466F726D617400496E76616C6964205C
:100430006368617220696E2074696D657374726996
:100440006E670A002D0030000A0D001B5B3144204E
:100450001B5B3144000014BE0FB6F894A895809140
:100460006000886180936000109260000FBE1124CC
:100470001FBECFEFD8E0DEBFCDBF11E0A0E0B1E0FE
:10048000EEE1F9E202C005900D92A039B107D9F76B
:1004900021E0A0E9B1E001C01D92A739B207E1F760
:1004A0000E94B1030C948D140C94000010927C00F7
:1004B00010927A00089580B7806880BF80917C0098
:1004C000846480937C0080917A00856080937A00B8
:1004D00080917A00806880937A0080917A008064AD
:1004E00080937A0080917A0086FDFCCF809178001D
:1004F000909179000895CF93DF93CDB7DEB76897D9
:100500000FB6F894DEBF0FBECDBF98E1E0E0F1E09A
:10051000DE01119601900D929A95E1F790917C0081
:10052000987F90937C0090917C00892B80937C0035
:1005300028E090E080E030917A00306430937A00D7
:1005400030917A0036FDFCCF4091780050917900CF
:10055000840F951F215079F79C0183E036952795EC
:100560008A95E1F7FE01319680E04191519124177F
:10057000350720F08F5F8C30C1F780E068960FB6AA
:10058000F894DEBF0FBECDBFDF91CF910895F999EA
:10059000FECF92BD81BDF89A80B512BC11BC089502
:1005A000F999FECF72BD61BD80BDFA9AF99A12BC6D
:1005B00011BC08951F93CF93DF93EC010E94C702F3
:1005C000182FCE0101960E94C702912FDF91CF9183
:1005D0001F9108951F93CF93DF93182FEB01892F5D
:1005E0000E94D002BE016F5F7F4F812FDF91CF91BC
:1005F0001F910C94D002419A089582E086B9089523
:10060000419808955C9A089580E189B908955C98AD
:100610000895409A089581E086B908954098089514
:10062000429A089584E086B90895429808954298C0
:1006300040985C9841980895429A409A5C9A419AF1
:10064000089586B186958170309982603299846070
:100650004C99886008950E940003399A0E9407030C
:10066000549A0E940E03389A0E9415033A9A0895EC
:10067000439A239A3B9A229A259A2B982A982D9846
:1006800093E020E234E084E123B923B98150E1F71B
:1006900033B933B99150B9F78BED95E00197F1F784
:1006A00000C0000043988CB581658CBD08954398C7
:1006B0000895439A08952B982D982A989EBD0DB4BD
:1006C00007FEFDCF8EBD0DB407FEFDCF84E083B9DC
:1006D00083B908955B9A5398E8E6F0E080818460DE
:1006E0008083ADE6B0E08C9188608C9352988081D5
:1006F0008460808345983D9A0895DC01E5B516BC79
:1007000081E085BB80EA86BD85E085BD21E030E0E3
:10071000C90102C0880F991F6A95E2F7BC0140E049
:1007200095E581E0F0EA2FEF290F2E3F38F04830B1
:1007300028F0E5BD81E0911180E008952C9130E032
:100740002623372351E0121613060CF050E0990FC0
:10075000952BA89BFECF85BBF6BD483020F74F5F99
:10076000E2CFCF93DF93CDB7DEB7C15AD1400FB6FA
:10077000F894DEBF0FBECDBF0FB6F894A895809158
:100780006000886180936000109260000FBE86E177
:10079000E8E1F1E0DE01A759BE4F01900D928A9584
:1007A000E1F79E012F5F3F4F19018AE491E0F901C3
:1007B0009C01119221503040E1F7CE0181579E4FAC
:1007C000C656DE4F99838883CA59D1408BE0C656FE
:1007D000DE4FE881F981CA59D14011928A95E9F733
:1007E0009E0121583E4FC456DE4F39832883CC5991
:1007F000D14080E1F90111928A95E9F7265131093A
:1008000079016101A9014A5E5F4FC101F90121919E
:100810003191DC016FE02D933D936150E1F74E96ED
:10082000E417F507A1F710E000E02E0135EB431ABD
:100830003EEF530A8EE1F20111928A95E9F70E9488
:10084000380380916400806C8093640080B7806876
:1008500080BF0E94560C0E946A030E942B030E94D4
:100860005B0260E875E280E090E00E947C0C81E031
:1008700090E00E94C7028F3F09F4A4C09E01215757
:100880003E4F49015DE0A52EB12C62E0662E712C31
:10089000C3010E94C702F40181934F01C5010E9468
:1008A000DA02F701819391937F01FFEF6F1A7F0ABC
:1008B00022E0A20EB11C3DE06316710449F741E449
:1008C000E42EF12C57018EE1A81AB1084601C501AA
:1008D0000E94DA02F401819391934F01F2E0AF0E8E
:1008E000B11CAE14BF0499F72EE1C20ED11C3EE13B
:1008F000E30EF11C4BE8E41641E0F40619F78DE62F
:1009000091E00E94C702A82E98EC891711F082E0AE
:10091000A82E81E0809395017894B12CDD24D394A6
:10092000812C912CF12CE12CF2013196C256DE4F34
:10093000F983E883CE59D1402FE731E02C0F3D1FDA
:10094000205F3F4FC056DE4F39832883C05AD140C5
:10095000809195018823D9F0CFB6F8941092950133
:1009600063E089E290E00E947D03982E882309F4D9
:1009700077C084E00E947B02882E80916D008460A5
:1009800080936D000E940203DD24D394CFBE80913A
:10099000C00087FB10F910FFEEC07FB6F8941E7FF1
:1009A0000E94FB020E94B20CF20180838D3039F06C
:1009B00008F072C0883019F08A3009F00CC1F201D9
:1009C00010827DC0FE01E157FE4F4F019E01275965
:1009D0003E4F59012DE0C22ED12C32E0632E712CF6
:1009E000B301F40181914F010E94D002B601F501DB
:1009F000819191915F010E94EA02FFEF6F1A7F0AD5
:100A000022E0C20ED11C3DE06316710449F791E467
:100A1000C92ED12C56018EE1A81AB108B501F701F3
:100A2000808191810E94EA02F2E0AF0EB11CCA14EB
:100A3000DB04A1F722E0E20EF11C3EE1C30ED11C63
:100A40004BE8C41641E0D40629F761E070E080E08D
:100A50000E94D0026DE671E082E00E94D0024FCF8A
:100A6000459880916D008B7F80936D001B7F1F7D6B
:100A70001F7E1092960190E080E00E945B030E942E
:100A8000730C0E946D0C0E9407030E9415030E94C4
:100A90000E03F12CE12C7ACF8F3709F490CF8F3FE2
:100AA00009F099C00E94B20CF20181830E94B20C3D
:100AB000F20182830E94B20CF201838314826EE2FF
:100AC00071E0C2010E94F30C8111106463E371E0D4
:100AD000C2010E94F30C882309F49AC0006260E40A
:100AE00071E0C2010E94F30CCA2C882351F08A2DB8
:100AF0000E94B30AC82EA81621F06DE671E00E948C
:100B0000D00268E471E0C2010E94F30C811102601E
:100B10006DE471E0C2010E94F30C882319F0F1E04A
:100B2000F093960165E571E0C2010E94F30C81111A
:100B30000E94730769E571E0C2010E94F30C811104
:100B400008606EE571E0C2010E94F30C882331F069
:100B500061E070E08FEF0E94D00208600E94000305
:100B6000F201808181508E3F20F484E790E00E9462
:100B7000E40C7FBEAC2C16FF0DC0CFB6F8941F7BE3
:100B8000AE0141575E4FBE0167597E4FC1010E94C1
:100B9000C009CFBE01FF0DC0CFB6F8940D7FAE01E6
:100BA00041575E4FBE0167597E4FC1010E94C60783
:100BB000CFBE03FF35C0F8940E94590388E19EE040
:100BC0000FB6F894A895809360000FBE90936000D4
:100BD0000E947307FFCF0E94070EF20180830E94DC
:100BE000C30CC256DE4F88819981CE59D1400E94F4
:100BF000130E811164CF8EE790E00E94E40C8CE725
:100C000090E00E94E40C87E790E00E94E40CD7CECD
:100C100067E371E0C2010E94F30C81115FCF5FCFE7
:100C200015FF48C0882009F445C0F1E0FD1508F023
:100C300041C0282D2150330BC901EFE8F1E0EC0F42
:100C4000FD1FE20FF31F2081222309F4F4C04FE0BF
:100C5000489F9001499F300D1124F901ED0DF11DC0
:100C60003297EE0FFF1FE20DF31D808191818036D8
:100C7000EAEE9E0709F408C1409192015091930158
:100C800048175907B8F081E08D0DE82FF0E0E250E9
:100C9000F048E20FF31FEE0FFF1FE20DF31DB12C22
:100CA0009B2D980F913128F421913191232B09F438
:100CB000C0C01460809196018823C9F0CFB6F89423
:100CC0001092960115FD12C00E94090380919501B2
:100CD00081110CC0992009F4CFC01460882031F034
:100CE000106280916D008B7F80936D00CFBE12FFEC
:100CF0003DC06FB6F8941B7F9920B9F1DD20A9F1B2
:100D000020E12D1590F110610E9410037724739457
:100D10007D0C7B0C20E130E090E080E04D2D50E038
:100D2000880F991FBA016B0D711D6217730719F4B3
:100D30008160B110BA942150310991F7C0909001AF
:100D4000D0909101C82AD92A459AC6010E945B0316
:100D5000D0929101C0929001109293011092920151
:100D60000E94730C0E94670CD72C6FBE14FF35C015
:100D700080919401882389F15FB7F89410929401CF
:100D800013FB442740F9FE01E158FE4F81E090E05B
:100D9000F12CE12C209190013091910128233923ED
:100DA000232B31F020812F5F2A1508F068C02083A3
:100DB000880F991F3196C056DE4F28813981C05A5D
:100DC000D1402E173F0731F740FB13F98091900176
:100DD00090919101E826F9265FBF13FFB9CDCFB6F8
:100DE000F894177FC7010E945B03F0929101E09293
:100DF0009001E114F10421F445981F7E0E9415032F
:100E000030E13D1558F41F7D0E946D0C0E94730C5B
:100E10001092930110929201DD24D39415FD07C026
:100E20000E940E0380916D00846080936D00CFBEA0
:100E30008FCDB39435CF880F991FE9E6F1E0EC0F21
:100E4000FD1FE80FF91F808191818036FAEE9F0720
:100E5000D9F040919201509193014817590708F435
:100E600029CF31E03D0D892B21F421E0313108F00B
:100E700020E01460B22E1ECF0E940E0337CFE82A66
:100E8000F92A108241E094CF1F7D80916D0084602B
:100E900080936D000FCF8F938FB78F939F93809127
:100EA0009201909193010196909393018093920106
:100EB0008091900190919101009719F081E08093C9
:100EC00094019F918F918FBF8F9118958F9381E09F
:100ED0004A9B06C04B9904C0809396018F91189548
:100EE00080939501FBCF84E194E00E94E40C8DE0B7
:100EF00094E00E94E40C88E094E00E94E40C88EF07
:100F000093E00C94E40C8F929F92AF92BF92CF9299
:100F1000DF92EF92FF921F93CF93DF936B017C01DF
:100F2000142FC22FAC019B01D0E08AE0882E912CB7
:100F3000A12CB12C2115310541055105B1F4F7FE65
:100F400002C0C111C150CD17C0F4412FC701B60175
:100F5000DF91CF911F91FF90EF90DF90CF90BF90E6
:100F6000AF909F908F900C94020DCA01B901A5011A
:100F700094010E94810EDF5FDDCFCD1BCC2329F3CE
:100F800086EF93E00E94E40CC150F8CF2F923F927D
:100F90004F925F926F927F928F929F92AF92BF9289
:100FA000CF92DF92EF92FF920F931F93CF93DF9335
:100FB000CDB7DEB766970FB6F894DEBF0FBECDBFD4
:100FC0005C016B017A0184E00E947B02582E84EC64
:100FD00093E00E94E40C511025C08FEB93E00E9437
:100FE000E40C83E993E00E94E40C8DE893E00E9416
:100FF000E40C66960FB6F894DEBF0FBECDBFDF914E
:10100000CF911F910F91FF90EF90DF90CF90BF9005
:10101000AF909F908F907F906F905F904F903F9098
:101020002F900895652D70E090E080E044E60E94E6
:10103000020D22242A94250C89E893E00E94E40CF6
:1010400023E72216B1F2022D10E0E00EF11EF701A7
:10105000808181113BC086E793E00E94E40CF80197
:10106000EE0FFF1FEC0DFD1D808191818036FAEEA1
:101070009F0739F1BE01655F7F4F0E94240CCE01AE
:101080000B960E94D40C8AE693E00E94E40C86ED55
:1010900092E00E94E40C0E94B20C982E8823D9F3AF
:1010A0000E94C30C83ED92E00E94E40C892D8062C3
:1010B000893609F465C08D3609F43CC18CE092E0B4
:1010C00096CF8EE693E00E94E40CDDCF83E593E0BB
:1010D0000E94E40C8DE393E00E94E40C2FE0229E3A
:1010E00040011124880C991C8A0C9B1C412C512C0A
:1010F0003201439422E044E6C301B2010E94830717
:101100008AE393E00E94E40C22E044E6C301B201CA
:101110000E94830788E393E00E94E40C4FEF441A97
:10112000540A640A740A22E044E6C301B2010E9430
:10113000830784E393E00E94E40CF4018191919190
:101140004F018036FAEE9F07B1F0BE01655F7F4F19
:101150000E94240CCE010B960E94D40C89E293E0ED
:101160000E94E40C20E1421651046104710411F65E
:1011700085E293E08ACF8CE293E00E94E40CEECF0C
:10118000F7018081882309F43EC085EA92E00E943D
:10119000E40C1E8A1D8A19821A821B821C82CE01CF
:1011A00001964C013C01E3E04E2E480E0E94B20C29
:1011B00090ED980F9A3028F08A3011F08D3019F4A4
:1011C00080E0F3018083F30181913F01811179C0B7
:1011D000CE0145969F938F9388E791E09F938F93DD
:1011E0009F928F920E94C30E6D897E89CB010197D9
:1011F0000F900F900F900F900F900F9044244A94EF
:10120000460E0F9730F0F7018081811157CF4424AB
:101210004A948FE592E00E94E40CCE0101964C01C5
:101220008AE0F40111928A95E9F7340179E0372ECA
:10123000380C0E94B20C982F9062943709F046C087
:1012400084E50E94C30C60E6862E6AEE962E87E443
:1012500092E00E94E40C20E682162AEE920609F43F
:1012600059C0BE01655F7F4FC4010E94240CCE01AE
:101270000B960E94D40C8BE392E00E94E40CF701E1
:101280008081882309F44BC0842D90E09C01FFE00D
:101290002F9E200D311D1124220F331FA20EB31ECD
:1012A000F50191828082FEE12F9EB00111246D5DD7
:1012B0007F4F880F991F680F791FC4010E94EA02AF
:1012C000FDCE0E94C30C461071CF82CF90ED980FD7
:1012D0009A3050F08A30B9F08D30A9F08A3321F07D
:1012E000982F9D7F9C3211F4F3018083F30181914B
:1012F0003F0181110AC0C4010E94DD0A4C01019620
:1013000009F4DCCEA4CF80E0EFCF0E94C30C3610EE
:1013100090CFF1CF8FE392E00E94E40CACCF000FAE
:10132000111FF601E00FF11F91828082B801635F07
:101330007F4FC3CF82E192E00E94E40C0E94B20C86
:10134000D82E8823D9F30E94C30C8FE092E00E942C
:10135000E40CF70190818D2D8062863661F4108255
:10136000F7018081891709F4A9CEB8016E5F7F4F1C
:101370000E94D002A3CE863799F781E08083F0CF18
:101380002F923F924F925F926F927F928F929F9295
:10139000AF92BF92CF92DF92EF92FF920F931F9383
:1013A000CF93DF93CDB7DEB72C970FB6F894DEBF9F
:1013B0000FBECDBF4C015B018A010E94730781EF14
:1013C00091E00E94E40C88ED91E00E94E40C8AEB2D
:1013D00091E00E94E40C84E00E947B02D82E8823D6
:1013E00009F491C0682F70E090E080E044E60E942C
:1013F000020D88E991E00E94E40C86E691E0DD2090
:1014000011F08CE691E00E94D40C89E791E00E94F3
:10141000E40C7801412C512C3201439410E000E09F
:101420008D2D8150990B9C878B872EE1222EEB8589
:10143000FC8586E691E0E017F10711F08CE691E07B
:101440000E94D40C22E044E6C301B2010E9483074B
:101450008DE691E00E94E40C6701F701808188230A
:1014600009F456C085E591E00E94E40CFFEFEF1A05
:10147000FF0AF6018081882309F457C0209E60018D
:10148000219ED00C1124C80CD91C312CF60181915D
:1014900091916F018036FAEE9F07E9F585E491E0BE
:1014A0000E94E40C2EE082E491E0321202C08EE34E
:1014B00091E00E94E40C33948FE03812E7CF0F5F85
:1014C0001F4FFFEF4F1A5F0A6F0A7F0A0B3011059B
:1014D00009F0ADCF2C960FB6F894DEBF0FBECDBF8E
:1014E000DF91CF911F910F91FF90EF90DF90CF9000
:1014F000BF90AF909F908F907F906F905F904F9034
:101500003F902F90089588EB91E00E94E40C71CFFA
:101510008DE491E0A9CFBE016F5F7F4F0E94240C44
:10152000CE0101960E94D40CBDCFF801EE0FFF1F33
:10153000EA0DFB1D808191818036EAEE9E0771F0F5
:10154000BE016F5F7F4F0E94240CCE0101960E9466
:10155000D40C82E391E00E94E40CB1CF86E391E0E9
:101560000E94E40CF6CFCF93DF93D82F85EE90E066
:101570000E94E40C89ED90E0D83C11F085EC90E0FD
:101580000E94E40C86E890E00E94E40C0E94B20CF9
:10159000C82F8823D9F30E94C30C83E890E00E94EF
:1015A000E40CC062C53639F0C43709F4D8EC8D2F8D
:1015B000DF91CF910895D2E0FACF1F93CF93DF93BD
:1015C00000D000D000D0CDB7DEB7FC011E821D8256
:1015D0001C821B821A8219821286DC010D90002067
:1015E000E9F711971A2F181B193008F051C0111183
:1015F00050C08FEF9FEF14C19E3209F042C03130CE
:1016000009F441C0242F31E04F5F141348C0332345
:10161000A1F0BF01610F711DAB0142505109DA0108
:101620009C919E3229F490E3DB019C9311961C92CD
:10163000DF01A20FB11D13961C92880F830F9081BA
:101640009A3309F03FC0823009F49DC0833009F419
:101650005EC0813009F0A9C0CE0101969F938F939F
:1016600002969F938F9385E791E09F938F93FF93CB
:10167000EF930E94C30E0FB6F894DEBF0FBECDBF2E
:1016800040C09F32C1F488E294E00E94E40CB1CFE4
:1016900018E0BF0140E024E130E080E05EE2DB01E1
:1016A0009C919C3209F45C93DB019D91BD019A33BE
:1016B00009F0A2CF8F5F9E529D3028F7823009F04B
:1016C000A3CFE1CF9E3209F0B8C0982F9860823046
:1016D00009F459C08330C1F0813009F066C0CE01F1
:1016E00001969F938F9387E791E09F938F93FF934A
:1016F000EF930E94C30E0F900F900F900F900F90DA
:101700000F901E821D8217C0892F82FF29C0CE0133
:1017100001969F938F9302969F938F9384E791E016
:101720009F938F93FF93EF930E94C30E0FB6F8948D
:10173000DEBF0FBECDBF8D819E818A30910508F03E
:1017400079C0892B21F08B819C81CC9730F4298141
:101750003A812436310508F43FC089E194E095CF01
:10176000CE0101969F938F9302969F938F9302963B
:101770009F938F9382E791E09F938F93FF93EF93D3
:101780000E94C30ED3CFCE0103969F938F930296F0
:101790009F938F938BE791E09F938F93FF93EF93AA
:1017A0000E94C30E1A821982C1CFCE0103969F9365
:1017B0008F9388E791E09F938F93FF93EF930E941D
:1017C000C30E1E821D821A8219820F900F900F90F5
:1017D0000F900F900F90AFCF8B819C818C33910530
:1017E00040F06CE370E00E944B0E7E836D839C831F
:1017F0008B836D817E8140E757E1649FC001659FC7
:10180000900D749F900D11246B817C81E4E6E69F1E
:10181000A001E79F500D1124840F951F820F931F85
:1018200026960FB6F894DEBF0FBECDBFDF91CF91E5
:101830001F91089580E69AEEF3CF823009F4A3CF8A
:10184000833009F006CF61CFCF939C01462FC72F7D
:1018500020368AEE380740F5E4E6F0E0C901BF0122
:101860000E944B0E9F938F93C90160E777E10E941E
:101870004B0E9B01BF010E944B0E7F936F933F93D2
:101880002F9381E891E09F938F93CF934F930E9482
:10189000A00E8DB79EB70A960FB6F8949EBF0FBEE6
:1018A0008DBF80E0CF91089581E0FCCF8BE49DE176
:1018B0009093890080938800E1E8F0E0808188605F
:1018C0008083EFE6F0E08081826080830895E1E824
:1018D000F0E08081826080830895E1E8F0E080811B
:1018E000887F8083089581E086BB109285001092E6
:1018F00084000895089508950F931F93CF938B014B
:101900009C01CFB7F89443E0660F771F881F991F9B
:101910004A95D1F760587247844A9F4FA9019801B0
:10192000E4E0220F331F441F551FEA95D1F70E94B0
:101930005F0EBA01A9014150510961097109BB2724
:10194000A72F962F852F8093C5004093C40088E170
:101950008093C10086E08093C200CFBFCF911F91DA
:101960000F91089580E89DE8ABE5B0E00197A109EB
:10197000B10939F02091C00027FFF8CF8091C6004F
:10198000089580E0089540E85DE86BE570E041501F
:1019900051096109710921F09091C00095FFF7CFBD
:1019A0008093C60080E00895CF93DF93EC0180E040
:1019B0009991992311F0882319F0DF91CF9108951F
:1019C000892F0E94C30CF4CFCF93DF93EC01FE016B
:1019D0008491882329F00E94C30C21968823B9F3AF
:1019E000DF91CF910895FC01DB012D91BD01919113
:1019F000211104C081E0911103C008952917A1F3BA
:101A000080E0FBCF4F925F926F927F928F929F9276
:101A1000AF92BF92CF92DF92EF92FF920F931F93FC
:101A2000CF93DF93CDB7DEB7A1970FB6F894DEBFA3
:101A30000FBECDBF6B017C018E010F5F1F4F81E296
:101A4000F80111928A95E9F7483439F110F54234DA
:101A500031F1C114D104E104F10409F09CC086E421
:101A600094E0A1960FB6F894DEBF0FBECDBFDF9114
:101A7000CF911F910F91FF90EF90DF90CF90BF908B
:101A8000AF909F908F907F906F905F904F900C944D
:101A9000E40C423621F04836E1F680E062C0D7011E
:101AA000C601F7FE07C088279927DC018C199D091C
:101AB000AE09BF0940E8842E912CA12CB12C8F3F98
:101AC0009105A105B10581F07CF0812C912CA12C10
:101AD00050E8B52E8F3F9F4FA105B1052CF4812C06
:101AE00030E8932EA12CB12CD701C6018821992171
:101AF000AA21BB21892B8A2B8B2B19F580E30E940D
:101B0000C30CB694A7949794879481149104A1046C
:101B1000B10451F7A1960FB6F894DEBF0FBECDBF4A
:101B2000DF91CF911F910F91FF90EF90DF90CF90B9
:101B3000BF90AF909F908F907F906F905F904F90ED
:101B4000089581E3DCCFF801E80FF11D9C2D9F7013
:101B5000908394E0F594E794D794C7949A95D1F73D
:101B60008F5FC114D104E104F10469F7882359F3AC
:101B700080FD8F5F7801E80EF11CE016F10651F24E
:101B8000F70182917F018A3020F0895C0E94C30CAA
:101B9000F4CF805DFBCFA12CF7FE0AC0F094E09457
:101BA000D094C094C11CD11CE11CF11CAA24A394A4
:101BB0004801B12C8AE0482E512C612C712CB39431
:101BC000C701B601A30192010E94810EF401619345
:101BD0004F0169017A01C114D104E104F10419F043
:101BE000F1E2BF12ECCFAA2021F084E494E00E943D
:101BF000E40C7801EB0CF11C0E151F0509F48ACFDB
:101C0000F70182917F01805D0E94C30CF5CF9FEBAD
:101C1000980F9A3130F0843C21F0863D11F08C3DD4
:101C200009F4806208950F931F93CF93DF938C0183
:101C3000C0E00E94B20C0E94070ED82F8D30B1F088
:101C40008A30A1F0883011F08F3789F4C11108C0B3
:101C5000F80110828C2FDF91CF911F910F91089581
:101C6000C1508BE494E00E94E40CE3CFD0E0F80193
:101C7000EC0FF11DD0838D2F0E94C30CDD2341F0AA
:101C8000CF5FCD31B1F688E494E00E94E40CE2CF5E
:101C9000CC2301F3F8CFAA1BBB1B51E107C0AA1F3D
:101CA000BB1FA617B70710F0A61BB70B881F991FFD
:101CB0005A95A9F780959095BC01CD010895A1E2B0
:101CC0001A2EAA1BBB1BFD010DC0AA1FBB1FEE1FB6
:101CD000FF1FA217B307E407F50720F0A21BB30B01
:101CE000E40BF50B661F771F881F991F1A9469F77D
:101CF00060957095809590959B01AC01BD01CF01D9
:101D00000895052E97FB1EF400940E94980E57FD2F
:101D100007D00E945F0E07FC03D04EF40C94980E7F
:101D200050954095309521953F4F4F4F5F4F089507
:101D300090958095709561957F4F8F4F9F4F089537
:101D4000AEE0B0E0E6EAFEE00C9464140D891E8972
:101D500086E08C831A8309838FEF9FE79E838D83B0
:101D6000AE01475E5F4F6F89788DCE0101960E946C
:101D7000DC0E2F813885020F131FF80110822E967A
:101D8000E4E00C948014AEE0B0E0E9ECFEE00C94EA
:101D9000661485E08C838B899C899A838983AE0144
:101DA000495E5F4F6D897E89CE0101960E94421285
:101DB0002E96E2E00C948214ABE0B0E0E2EEFEE09E
:101DC0000C9456147C013B018A01FC011782168297
:101DD000838181FFC8C1CE0101965C01F701938127
:101DE000F30193FD859193FF81913F01882309F4CD
:101DF00053C1853239F493FD859193FF81913F0161
:101E0000853229F4B70190E00E94AD13E7CF912C01
:101E1000212C312CFFE1F31538F08B3211F190F4C5
:101E2000803209F1833229F137FC3CC020ED280FC4
:101E30002A3050F536FE20C08AE0989E200D1124ED
:101E4000922E06C08D3291F0803371F7689430F88D
:101E5000F30193FD859193FF81913F018111DACFC9
:101E600021C0689431F8689432F8F2CF689433F85E
:101E7000EFCF689434F8ECCFEAE02E9E200D1124C9
:101E8000222E689435F8E4CF8E3229F436FC04C152
:101E9000689436F8DDCF8C3619F4689437F8D8CFCB
:101EA0008836B1F2982F9F7D95549330E0F08336B9
:101EB000A1F18337C1F1833509F063C02801F2E055
:101EC0004F0E511CF801C080D180692D70E036FCA6
:101ED00002C06FEF7FEFC6010E945B134C01689454
:101EE00037F882010AC00C5F1F4FFFE3F983882493
:101EF0008394912C6501E89437F833FE2DC0522C61
:101F00008114910471F5552009F468CFB70180E27E
:101F100090E00E94AD135A94F6CFF8018081898336
:101F20000E5F1F4FE4CF2801F2E04F0E511CF80165
:101F3000C080D180692D70E036FC02C06FEF7FEF6A
:101F4000C6010E9466134C018201D5CFB70180E221
:101F500090E00E94AD132A942814190409F0B0F7F8
:101F6000CECFF60137FC859137FE81916F01B70125
:101F700090E00E94AD1351105A94F1E08F1A91082D
:101F8000BFCF843619F0893609F077C0F80137FEE3
:101F90006BC060817181828193810C5F1F4FF32D33
:101FA000FF763F2E97FF09C09095809570956195BB
:101FB0007F4F8F4F9F4F689437F82AE030E0A5019C
:101FC0000E94F513C82ECA188C2C432C36FE0CC068
:101FD000E89440F8C91440F434FE05C032FC03C054
:101FE000F32DFE7E4F2E892C44FE95C0FE01EC0D94
:101FF000F11D8081803309F087C0242D297E422E77
:10200000842D8870582E43FC95C040FE8FC09C2CB8
:10201000821418F42C0C922C981844FE91C0B7012D
:1020200080E390E00E94AD1342FE09C088E790E093
:1020300041FE02C088E590E0B7010E94AD13C914CB
:1020400008F48AC0CA94D12C9FEFC91AD90ACA0CC5
:10205000DB1CF60182916F01B70190E00E94AD1385
:10206000AC14BD04B1F74FCF60817181072E000C15
:10207000880B990B0E5F1F4F92CFD32CE894D4F8A6
:102080002AE030E0853739F1232D297FD22E8F3693
:1020900001F148F48835A9F0F701868197812B96E4
:1020A000E2E10C947214803749F08837A9F7D4FE26
:1020B00002C06894D2F820E130E00DC06894D4F8F2
:1020C000F6CF34FE03C0822F8660D82E20E132E0A6
:1020D00002C028E030E0F801D7FE0FC060817181B6
:1020E000828193810C5F1F4FA5010E94F513C82EBA
:1020F000CA183D2CE89437F867CF6081718190E071
:1021000080E00E5F1F4FF0CF42FC02C0839478CF77
:102110008394839475CF842D867809F471CFF6CF9C
:10212000B70180E290E00E94AD1383948214C0F363
:10213000512C73CF522C5818821408F46ECFF8CF5C
:10214000842D867809F47BCF8BE241FE80E247FC48
:102150008DE2B70190E071CFB70180E390E00E947B
:10216000AD139A946CCF8FEF9FEF99CF20FD09C0EC
:10217000FC0123FD05C022FF02C0738362835183EB
:102180004083089544FD17C046FD1DC0DB01FC01DE
:10219000AA0FBB1FEE1FFF1F1094D1F76A0F7B1F02
:1021A0008E1F9F1F660F771F881F991F620F711D5B
:1021B000811D911D089533E0660F771F881F991FB9
:1021C0003150D1F7F3CF34E0F7CF0F931F93CF9374
:1021D000DF938C01C8010E947113EC0197FD08C0C8
:1021E0000E944713892BB1F7B801CE010E94DD137D
:1021F000CE01DF91CF911F910F9108958F929F9201
:10220000AF92BF92EF92FF920F931F93CF93DF9302
:102210008C01D62F7A01B22E0E9471139C013327B4
:102220002B32310529F02D323105A9F46894B7F825
:10223000D15061F480E0DF91CF911F910F91FF9019
:10224000EF90BF90AF909F908F900895C8010E942B
:10225000711397FDEFCFCB2DCD7F2B2D2073F9F48C
:102260008033E9F4AA24AA94AD0E89F0C8010E9433
:10227000711397FD0CC0282F2F7D283561F4C2649F
:10228000D25029F0C8010E94711397FF08C0812C19
:10229000912C54011BC0B6FE2BC0C260DA2D812CDC
:1022A000912C540120ED280F283028F1C4FD09C0DD
:1022B0002A3008F1C6FF05C02F7D3FEE320F3630C1
:1022C000C8F0B8010E94DD13C1FFB4CFC7FF08C03A
:1022D000B094A09490948094811C911CA11CB11C7A
:1022E0002C2FB501A401C7010E94B61081E0A3CF35
:1022F000C261D4CF27504C2FC501B4010E94C21037
:102300004B015C01C260D15009F3C8010E947113F6
:1023100097FFC8CFD9CFA0E2B0E0E1E9F1E10C949A
:102320005B145C01962E7A01CE0101966C0180E26D
:10233000F60111928A95E9F7F501B381890130E040
:1023400020E0712C812CA0E041E050E0F801B3FDC9
:102350008591B3FF8191982F8F01811107C010E003
:1023600000E0C801A096EDE00C9477148E3519F4C6
:102370002115310541F1A21713064CF48D3549F1B1
:102380008D3229F4811006C0882483941DC08820D2
:1023900009F465C0E92FE695E695E695EC0DFD2D6F
:1023A000F11D892F8770BA0101C0660F8A95EAF77F
:1023B0008081682B6083791651F0971510F49F5F28
:1023C000E9CF9150E7CFA1E02F5F3F4FBFCF812CE6
:1023D000FBCF882019F08E8180628E83A11120C0EE
:1023E00088248394C5010E94711397FD16C0E82FBD
:1023F000E695E695E695EC0DFD2DF11D208130E08A
:10240000AC014770552702C0359527954A95E2F7EC
:1024100020FD12C0B5010E94DD138820C9F09FCFB6
:10242000F6019E012F5D3F4F80818095808331961C
:10243000E217F307C9F7D4CFE114F10429F0F7014B
:102440008083C70101967C019A94812C9110CACF98
:10245000E114F10409F485CFF701108282CFE82F4F
:10246000E695E695E695EC0DFD2DF11D982F9770FC
:10247000BA0101C0660F9A95EAF79081692B6083D3
:10248000782EA2CFB0E0A0E0E8E4F2E10C94591479
:102490006C01EB015A01FC0117821682512CF601E6
:1024A000E380FE01E3FC8591E3FE8191182FEF01AB
:1024B0008823E9F090E00E944713892B21F0C601A0
:1024C0000E94E510ECCF153241F4FE01E3FC1591BA
:1024D000E3FE1191EF01153269F4C6010E947113F8
:1024E00097FD8EC01817D9F2B6010E94DD13852D15
:1024F00090E08AC000E01A3231F4E3FC1591E3FE6B
:102500001191EF0101E0F12C20ED210F2A3048F16B
:1025100001FF37C0FF2059F31836B1F11C3609F41A
:102520003DC0112321F3612F70E088E690E00E9406
:102530005013892BE1F2912C812C00FD06C0F5018E
:1025400080809180C50102965C011E3679F5F60106
:102550004681578170E060E0202FC4010E94B610D0
:102560009ECF02606F2D70E090E080E040E20E941C
:10257000C210F62EFE01E3FC1591E3FE1191EF016E
:10258000C3CFFF24FA94C8CFFE01E3FC1591E3FE0C
:102590001191EF01183609F0C4CF08600460FE0104
:1025A000E3FC1591E3FE1191EF01BBCF1336C1F4AB
:1025B00001FD02C0FF24F394C6010E94711397FD30
:1025C0001FC08114910429F0F4018083C401019695
:1025D0004C01FA94F110F0CF00FD61CF53945FCF1E
:1025E0001B35B9F49E01A4016F2DC6010E948B1109
:1025F000EC01892B89F7F6018381807309F477CF89
:102600008FEF9FEF511073CFCDB7DEB7EFE00C9493
:102610007514C6010E94E51097FDF2CF1F36A9F18F
:1026200030F4143641F0193639F0006405C0133720
:10263000B9F01537D1F70062202FA4016F2DC60124
:102640000E94FE108111C8CFD6CF8114910429F0C9
:10265000F4016082C40101964C01FA94FF2071F0EC
:10266000C6010E9471133C0197FD08C00E944713E8
:10267000892B59F3B601C3010E94DD138114910423
:1026800009F4AACFF4011082A7CF0061D5CF911130
:102690000C945314803219F089508550C8F708956E
:1026A000FC010590061621F00020D9F7C00108951D
:1026B0003197CF010895FC010590615070400110E1
:1026C000D8F7809590958E0F9F1F0895FC0161505B
:1026D000704001900110D8F7809590958E0F9F1F44
:1026E0000895CF93DF93EC012B8120FF1AC026FFC2
:1026F0000CC02F7B2B838E819F8101969F838E83BD
:102700008A8190E0DF91CF91089522FF18C0E8817F
:10271000F9818081082E000C990B009729F4206222
:102720002B838FEF9FEFEECF3196F983E8832E81D5
:102730003F812F5F3F4F3F832E839927E3CFEA8569
:10274000FB85099597FFF3CF2B81019621F080E25D
:10275000822B8B83E6CF80E1FBCF0F931F93CF9328
:10276000DF93182F092FEB018B8181FD09C01FEF2B
:102770000FEF812F902FDF91CF911F910F9108952F
:1027800082FF14C02E813F818C819D8128173907DB
:102790003CF4E881F981CF01019699838883108305
:1027A0008E819F8101969F838E83E3CFE885F98593
:1027B000812F0995892BA1F3DACFFB01238120FF1B
:1027C00011C026FD0FC08F3F980771F082832F7DC7
:1027D0002064238326813781215031093783268362
:1027E000992708958FEF9FEF0895FA01AA272830BF
:1027F00051F1203181F1E8946F936E7F6E5F7F4FCE
:102800008F4F9F4FAF4FB1E03ED0B4E03CD0670F49
:10281000781F891F9A1FA11D680F791F8A1F911D9C
:10282000A11D6A0F711D811D911DA11D20D009F4EC
:1028300068943F912AE0269F11243019305D31932E
:10284000DEF6CF010895462F4770405D4193B3E017
:102850000FD0C9F7F6CF462F4F70405D4A3318F0BE
:10286000495D31FD4052419302D0A9F7EACFB4E06F
:10287000A6959795879577956795BA95C9F7009727
:102880006105710508959B01AC010A2E06945795C8
:10289000479537952795BA95C9F7620F731F841F1F
:1028A000951FA01D08959927882708952F923F927C
:1028B0004F925F926F927F928F929F92AF92BF9250
:1028C000CF92DF92EF92FF920F931F93CF93DF93FC
:1028D000CDB7DEB7CA1BDB0B0FB6F894DEBF0FBE59
:1028E000CDBF09942A88398848885F846E847D84A6
:1028F0008C849B84AA84B984C884DF80EE80FD80A8
:102900000C811B81AA81B981CE0FD11D0FB6F8941D
:0E291000DEBF0FBECDBFED010895F894FFCFDE
:10291E002F008C00E9004601A30100025D02BA02FD
:10292E0017037403D1030004FA00F401EE02E80366
:10293E00E204DC05D606D007C409B80BA00F6C69FB
:10294E0073740073696D0073696D756C61746500E5
:10295E0069676E6974657200656469740074726982
:10296E006767657200636C73006B696C6C006465FD
:10297E006661756C74001B5B33336D001B5B333704
:10298E006D0025753A25752E25750025753A257528
:10299E0000253032753A253032752E2530327500CD
:00000001FF
