:100000000C9432020C945B020C945B020C945B0225
:100010000C945B020C94C7070C945B020C945B027B
:100020000C945B020C945B020C945B020C94AC0786
:100030000C945B020C945B020C945B020C945B02CC
:100040000C945B020C945B020C945B020C945B02BC
:100050000C945B020C945B020C945B020C945B02AC
:100060000C945B020C945B026364696E6F70737531
:1000700078585B000D0A41444D55583A20000D0A4E
:1000800044757263687363686E6974743A20000D16
:100090000A000A0D001B5B31440020001B5B314449
:1000A000000D0A000D0A4175737761686C3A2028CB
:1000B00045292D416E7AC3BC6E6465722C2028548C
:1000C00029616C6F6E2C2041626272756368206DCD
:1000D000697420616E646572657220546173746521
:1000E0003A2000452D414E5AC39C4E44455220288B
:1000F0003230206D73290054414C4F4E202832205D
:100100007329000D0A4465727A6569742065696E09
:1001100067657374656C6C74657320416E7AC3BCDB
:100120006E646D697474656C0D0A3D3D3D3D3D3DE9
:100130003D3D3D3D3D3D3D3D3D3D3D3D3D3D3D3DEF
:100140003D3D3D3D3D3D3D3D3D3D3D3D0D0A0A00B2
:100150000D0A0A000D0A0A002C2000547269676714
:1001600065720046697865643A200056617269617B
:10017000626C650D0A2020202020202020202020D5
:1001800020200020202020202020202020200020AF
:100190005320202020202020202020204669786520
:1001A000643A20547269676765720D0A0A000D0A85
:1001B0000A536368616C746572706F732E204665B4
:1001C00073742F566172696162656C0A0D00530089
:1001D0004465727A65697469676520536368616C08
:1001E000746572706F736974696F6E3A20003D3D7B
:1001F0003D3D3D3D3D3D3D3D3D3D3D3D3D3D3D3D2F
:100200003D3D3D3D0A0D000A0D416B7475656C6CFA
:10021000652045696E7374656C6C756E67656E0AF2
:100220000D000D0A000D0A000D0A53746570706907
:100230006E74657276616C20286629657374206F10
:10024000646572202876296172696162656C3A2062
:10025000000D0A0A0054726967676572000D0A533F
:1002600065747A6520496E74657276616C6C206184
:1002700075663A20000D0A4E6575657220576572E5
:10028000742028537465703A20303A30302E303064
:10029000202D20393A35392E39392C20742066C367
:1002A000BC722067657472696767657274656E20D9
:1002B00042657472696562293A20000D0A496E74BC
:1002C000657276616C6C6E756D6D65722028312D6E
:1002D00031352C2030206E6963687420C3A46E64AD
:1002E0006572626172293A20000D0A004D6F6475D3
:1002F0007320766572C3A46E6465726E20284D29E2
:100300002C20496E74657276616C6C20766572C3C0
:10031000A46E6465726E20284929206F646572207E
:1003200061626272656368656E2028616E646572E1
:1003300065205461737465293F20000D0A0A000D81
:100340000A005472696767657200293A20002D001F
:10035000202800203020285374617274293A2054D8
:100360007269676765720D0A005661726961626C35
:100370006520496E74657276616C6C653A0D0A0091
:100380000D0A0A0046657374657320496E746572C0
:1003900076616C6C3A20003A0D0A000D0A0A0A0ACE
:1003A0000046657374657320496E74657276616C7E
:1003B0006C20286E6963687420C3A46E64657262E1
:1003C0006172293A205472696767657200533A0D69
:1003D0000A000A0D45696E7374656C6C756E67650D
:1003E0006E20646572206465727A656974696765F8
:1003F0006E20536368616C7465727374656C6C75A0
:100400006E67200020001B5D303B46554F434F2058
:100410005354455007001B5B334A001B5B303B3095
:1004200048001B5B324A00496E76616C6964204665
:100430006F726D617400496E76616C6964206368E7
:10044000617220696E2074696D65737472696E677C
:100450000A002D0030000A0D001B5B3144201B5B9D
:100460003144000014BE0FB6F894A8958091600046
:10047000886180936000109260000FBE11241FBE3F
:10048000CFEFD8E0DEBFCDBF11E0A0E0B1E0E4EBFC
:10049000F9E202C005900D92A839B107D9F721E021
:1004A000A8E9B1E001C01D92AF39B207E1F70E949F
:1004B00008040C94D8140C940000CF93DF9300D060
:1004C000CDB7DEB780B7806880BF84E480937C00BE
:1004D00080917A00856080937A0080917A008068AC
:1004E00080937A0080917A00806480937A00809172
:1004F0007A0086FDFCCF80917800909179009A83F4
:10050000898389819A810F900F90DF91CF9108950F
:10051000CF93DF93CDB7DEB768970FB6F894DEBF01
:100520000FBECDBF98E1E0E0F1E0DE011196019051
:100530000D929A95E1F790917C00987F90937C00C2
:1005400090917C00892B80937C0020E290E080E0F9
:1005500030917A00306430937A0030917A0036FD21
:10056000FCCF4091780050917900840F951F215065
:1005700079F740969C0185E0369527958A95E1F7B5
:10058000FE01319680E0419151912417350720F00A
:100590008F5F8C30C1F780E068960FB6F894DEBFAD
:1005A0000FBECDBFDF91CF9108951F93CF93DF93FF
:1005B00090917C00987F90937C0090917C00892B97
:1005C00080937C0010E2D0E0C0E080917A008064EB
:1005D00080937A0080917A0086FDFCCF609178004C
:1005E00070917900C60FD71F90E080E044E60E942A
:1005F0004D0D8FE890E00E942F0D115031F760965D
:100600008EE790E00E942F0D85E0D695C7958A95DC
:10061000E1F7BE0190E080E044E60E944D0D84E7E2
:1006200090E00E942F0D60917C0070E090E080E0EF
:1006300048E6DF91CF911F910C944D0DF999FECFB3
:1006400092BD81BDF89A80B512BC11BC0895F9998C
:10065000FECF72BD61BD80BDFA9AF99A12BC11BC81
:1006600008951F93CF93DF93EC010E941E03182F70
:10067000CE0101960E941E03912FDF91CF911F9111
:1006800008951F93CF93DF93182FEB01892F0E94BA
:100690002703BE016F5F7F4F812FDF91CF911F91A5
:1006A0000C942703419A089582E086B908954198F1
:1006B00008955C9A089580E189B908955C98089539
:1006C000409A089581E086B9089540980895429A25
:1006D000089584E086B90895429808954298409814
:1006E0005C9841980895429A409A5C9A419A08957C
:1006F00086B18695817030998260329984604C9978
:10070000886008950E945703399A0E945E03549AA4
:100710000E946503389A0E946C033A9A0895439A9E
:10072000239A3B9A229A259A2B982A982D9893E0FF
:1007300020E234E084E123B923B98150E1F733B9F1
:1007400033B99150B9F78BED95E00197F1F700C0FF
:10075000000043988CB581658CBD08954398089539
:10076000439A08952B982D982A989EBD0DB407FEA4
:10077000FDCF8EBD0DB407FEFDCF84E083B983B9F4
:1007800008955B9A5398E8E6F0E080818460808366
:10079000ADE6B0E08C9188608C9352988081846043
:1007A000808345983D9A0895DC01E5B516BC81E04B
:1007B00085BB80EA86BD85E085BD21E030E0C901CA
:1007C00002C0880F991F6A95E2F7BC0140E095E5E9
:1007D00081E0F0EA2FEF290F2E3F38F0483028F063
:1007E000E5BD81E0911180E008952C9130E0262351
:1007F000372351E0121613060CF050E0990F952B99
:10080000A89BFECF85BBF6BD483020F74F5FE2CFF7
:10081000CF93DF93CDB7DEB7C15AD1400FB6F8946E
:10082000DEBF0FBECDBF0FB6F894A89580916000D3
:10083000886180936000109260000FBE86E1E8E15D
:10084000F1E0DE01A759BE4F01900D928A95E1F7C4
:100850009E012F5F3F4F19018AE491E0F9019C014D
:10086000119221503040E1F7CE0181579E4FC6567C
:10087000DE4F99838883CA59D1408BE0C656DE4F3C
:10088000E881F981CA59D14011928A95E9F79E0110
:1008900021583E4FC456DE4F39832883CC59D1406E
:1008A00080E1F90111928A95E9F726513109790120
:1008B0006101A9014A5E5F4FC101F90121913191A6
:1008C000DC016FE02D933D936150E1F74E96E41704
:1008D000F507A1F710E000E02E0135EB431A3EEFDB
:1008E000530A8EE1F20111928A95E9F70E948F0373
:1008F00080916400806C8093640080B7806880BFC2
:100900000E94A10C0E94C1030E9482030E945D020A
:1009100060E875E280E090E00E94C70C81E090E022
:100920000E941E038F3F09F4A4C09E0121573E4F31
:1009300049015DE0A52EB12C62E0662E712CC30149
:100940000E941E03F40181934F01C5010E943103EF
:10095000F701819391937F01FFEF6F1A7F0A22E0E5
:10096000A20EB11C3DE06316710449F741E4E42E88
:10097000F12C57018EE1A81AB1084601C5010E9469
:100980003103F401819391934F01F2E0AF0EB11C5A
:10099000AE14BF0499F72EE1C20ED11C3EE1E30E66
:1009A000F11C4BE8E41641E0F40619F78DE691E0FE
:1009B0000E941E03A82E98EC891711F082E0A82E41
:1009C00081E080939D017894B12CDD24D394812C17
:1009D000912CF12CE12CF2013196C256DE4FF983B5
:1009E000E883CE59D1402FE731E02C0F3D1F205F27
:1009F0003F4FC056DE4F39832883C05AD140809183
:100A00009D018823D9F0CFB6F89410929D0163E040
:100A100089E290E00E94D403982E882309F477C0DD
:100A200084E00E948802882E80916D00846080930B
:100A30006D000E945903DD24D394CFBE8091C00085
:100A400087FB10F910FFF8C07FB6F8941E7F0E9454
:100A500052030E94FD0CF20180838D3039F008F0C2
:100A600072C0883019F08A3009F016C1F201108284
:100A70007DC0FE01E157FE4F4F019E0127593E4FB9
:100A800059012DE0C22ED12C32E0632E712CB3011E
:100A9000F40181914F010E942703B601F501819174
:100AA00091915F010E944103FFEF6F1A7F0A22E0DC
:100AB000C20ED11C3DE06316710449F791E4C92EC2
:100AC000D12C56018EE1A81AB108B501F701808139
:100AD00091810E944103F2E0AF0EB11CCA14DB0405
:100AE000A1F722E0E20EF11C3EE1C30ED11C4BE85F
:100AF000C41641E0D40629F761E070E080E00E946E
:100B000027036DE671E082E00E9427034FCF4598EE
:100B100080916D008B7F80936D001B7F1F7D1F7EFA
:100B200010929E0190E080E00E94B2030E94BE0CF1
:100B30000E94B80C0E945E030E946C030E94650331
:100B4000F12CE12C7ACF8F3709F490CF8F3F09F049
:100B5000A3C00E94FD0CF20181830E94FD0CF201F2
:100B600082830E94FD0CF201838314826EE271E0A5
:100B7000C2010E943E0D8111106463E371E0C20165
:100B80000E943E0D882309F4A4C0006260E471E075
:100B9000C2010E943E0DCA2C882351F08A2D0E946A
:100BA000FE0AC82EA81621F06DE671E00E94270308
:100BB00068E471E0C2010E943E0D811102606DE4A3
:100BC00071E0C2010E943E0D882319F0F1E0F0931C
:100BD0009E0165E571E0C2010E943E0D81110E94F7
:100BE000D40769E571E0C2010E943E0D81110860E1
:100BF0006EE571E0C2010E943E0D882331F061E094
:100C000070E08FEF0E942703086066E671E0C20182
:100C10000E943E0D882319F084E00E94D5020E94B4
:100C20005703F201808181508E3F20F482E990E0E9
:100C30000E942F0D7FBEAC2C16FF0DC0CFB6F894CE
:100C40001F7BAE0141575E4FBE0167597E4FC10108
:100C50000E94180ACFBE01FF0DC0CFB6F8940D7FD9
:100C6000AE0141575E4FBE0167597E4FC1010E94E0
:100C70002708CFBE03FF35C0F8940E94B00388E177
:100C80009EE00FB6F894A895809360000FBE9093F5
:100C900060000E94D407FFCF0E94520EF2018083B1
:100CA0000E940E0DC256DE4F88819981CE59D140E7
:100CB0000E945E0E81115ACF8CE990E00E942F0DA8
:100CC0008AE990E00E942F0D85E990E00E942F0DA7
:100CD000CDCE67E371E0C2010E943E0D811155CF78
:100CE00055CF15FF48C0882009F445C0F1E0FD1537
:100CF00008F041C0282D2150330BC901EFE8F1E085
:100D0000EC0FFD1FE20FF31F2081222309F4F4C032
:100D10004FE0489F9001499F300D1124F901ED0DDE
:100D2000F11D3297EE0FFF1FE20DF31D80819181BF
:100D30008036EAEE9E0709F408C140919A0150916D
:100D40009B0148175907B8F081E08D0DE82FF0E0BE
:100D5000E250F048E20FF31FEE0FFF1FE20DF31D0C
:100D6000B12C9B2D980F913128F421913191232B97
:100D700009F4C0C0146080919E018823C9F0CFB6E9
:100D8000F89410929E0115FD12C00E94600380919C
:100D90009D0181110CC0992009F4CFC014608820F6
:100DA00031F0106280916D008B7F80936D00CFBE1B
:100DB00012FF3DC06FB6F8941B7F9920B9F1DD207A
:100DC000A9F120E12D1590F110610E9467037724AD
:100DD00073947D0C7B0C20E130E090E080E04D2DA1
:100DE00050E0880F991FBA016B0D711D62177307D0
:100DF00019F48160B110BA942150310991F7C09073
:100E00009801D0909901C82AD92A459AC6010E9412
:100E1000B203D0929901C092980110929B01109256
:100E20009A010E94BE0C0E94B20CD72C6FBE14FF18
:100E300035C080919C01882389F15FB7F8941092A6
:100E40009C0113FB442740F9FE01E158FE4F81E06D
:100E500090E0F12CE12C2091980130919901282308
:100E60003923232B31F020812F5F2A1508F068C029
:100E70002083880F991F3196C056DE4F2881398113
:100E8000C05AD1402E173F0731F740FB13F980912C
:100E9000980190919901E826F9265FBF13FFAFCD25
:100EA000CFB6F894177FC7010E94B203F092990160
:100EB000E0929801E114F10421F445981F7E0E940C
:100EC0006C0330E13D1558F41F7D0E94B80C0E9460
:100ED000BE0C10929B0110929A01DD24D39415FD53
:100EE00007C00E94650380916D00846080936D004F
:100EF000CFBE85CDB39435CF880F991FE9E6F1E0D9
:100F0000EC0FFD1FE80FF91F808191818036FAEE0A
:100F10009F07D9F040919A0150919B0148175907BA
:100F200008F429CF31E03D0D892B21F421E0313146
:100F300008F020E01460B22E1ECF0E94650337CF68
:100F4000E82AF92A108241E094CF1F7D80916D003C
:100F5000846080936D000FCF8F938FB78F939F9393
:100F600080919A0190919B01019690939B018093AF
:100F70009A018091980190919901009719F081E070
:100F800080939C019F918F918FBF8F9118958F9324
:100F900081E04A9B06C04B9904C080939E018F91CB
:100FA000189580939D01FBCF82E294E00E942F0D63
:100FB0008BE194E00E942F0D86E194E00E942F0DBA
:100FC00086E094E00C942F0D8F929F92AF92BF9287
:100FD000CF92DF92EF92FF921F93CF93DF936B013B
:100FE0007C01142FC22FAC019B01D0E08AE0882E37
:100FF000912CA12CB12C2115310541055105B1F4DD
:10100000F7FE02C0C111C150CD17C0F4412FC70176
:10101000B601DF91CF911F91FF90EF90DF90CF90BD
:10102000BF90AF909F908F900C944D0DCA01B90165
:10103000A50194010E94CC0EDF5FDDCFCD1BCC2338
:1010400029F384E094E00E942F0DC150F8CF2F9235
:101050003F924F925F926F927F928F929F92AF9248
:10106000BF92CF92DF92EF92FF920F931F93CF9395
:10107000DF93CDB7DEB766970FB6F894DEBF0FBE2D
:10108000CDBF5C016B017A0184E00E948802582E7A
:1010900082ED93E00E942F0D511025C08DEC93E05E
:1010A0000E942F0D81EA93E00E942F0D8BE993E0BF
:1010B0000E942F0D66960FB6F894DEBF0FBECDBF0F
:1010C000DF91CF911F910F91FF90EF90DF90CF9024
:1010D000BF90AF909F908F907F906F905F904F9058
:1010E0003F902F900895652D70E090E080E044E6F9
:1010F0000E944D0D22242A94250C87E993E00E943A
:101100002F0D23E72216B1F2022D10E0E00EF11EA2
:10111000F7018081811132C084E893E00E942F0D95
:10112000F801EE0FFF1FEC0DFD1DBE01655F7F4F47
:10113000808191810E946F0CCE010B960E941F0D41
:1011400080E893E00E942F0D8CEE92E00E942F0D1C
:101150000E94FD0C982E8823D9F30E940E0D89EE73
:1011600092E00E942F0D892D8062893609F460C0BB
:101170008D3609F437C182E292E09ACF89E693E096
:101180000E942F0D83E593E00E942F0DFFE02F9E1C
:1011900040011124880C991C8A0C9B1C412C512C59
:1011A0003201439422E044E6C301B2010E94E40705
:1011B00080E593E00E942F0D22E044E6C301B201D6
:1011C0000E94E4078EE493E00E942F0D2FEF421A55
:1011D000520A620A720A22E044E6C301B2010E9486
:1011E000E4078AE493E00E942F0DF401819191912C
:1011F0004F018036FAEE9F07B1F0BE01655F7F4F69
:101200000E946F0CCE010B960E941F0D8FE393E09E
:101210000E942F0D20E1421651046104710411F661
:101220008BE393E08FCF82E493E00E942F0DEECF0B
:10123000F7018081882309F43EC08BEB92E00E9485
:101240002F0D1E8A1D8A19821A821B821C82CE01D2
:1012500001964C013C01E3E04E2E480E0E94FD0C2D
:1012600090ED980F9A3028F08A3011F08D3019F4F3
:1012700080E0F3018083F30181913F01811179C006
:10128000CE0145969F938F938FE791E09F938F9325
:101290009F928F920E940E0F6D897E89CB010197DC
:1012A0000F900F900F900F900F900F9044244A943E
:1012B000460E0F9730F0F701808181115CCF4424F6
:1012C0004A9485E792E00E942F0DCE0101964C01D1
:1012D0008AE0F40111928A95E9F7340179E0372E1A
:1012E000380C0E94FD0C982F9062943709F046C08C
:1012F00084E50E940E0D60E6862E6AEE962E8DE540
:1013000092E00E942F0D20E682162AEE920609F442
:1013100059C0BE01655F7F4FC4010E946F0CCE01B2
:101320000B960E941F0D81E592E00E942F0DF701A0
:101330008081882309F44BC0842D90E09C01FFE05C
:101340002F9E200D311D1124220F331FA20EB31E1C
:10135000F50191828082FEE12F9EB00111246D5D26
:101360007F4F880F991F680F791FC4010E944103A6
:1013700002CF0E940E0D461071CF82CF90ED980FD4
:101380009A3050F08A30B9F08D30A9F08A3321F0CC
:10139000982F9D7F9C3211F4F3018083F30181919A
:1013A0003F0181110AC0C4010E94280B4C01019623
:1013B00009F4E1CEA4CF80E0EFCF0E940E0D3610ED
:1013C00090CFF1CF85E592E00E942F0DACCF000FBA
:1013D000111FF601E00FF11F91828082B801635F57
:1013E0007F4FC3CF88E292E00E942F0D0E94FD0C38
:1013F000D82E8823D9F30E940E0D85E292E00E9438
:101400002F0DF70190818D2D8062863661F4108258
:10141000F7018081891709F4AECEB8016E5F7F4F66
:101420000E942703A8CE863799F781E08083F0CF0A
:101430003F924F925F926F927F928F929F92AF9264
:10144000BF92CF92DF92EF92FF920F931F93CF93B1
:10145000DF93CDB7DEB72C970FB6F894DEBF0FBE83
:10146000CDBF7C014B016A010E94D40787E092E066
:101470000E942F0D8EEE91E00E942F0D80ED91E0E5
:101480000E942F0D84E00E948802B82E882309F460
:101490008EC0682F70E090E080E044E60E944D0D21
:1014A0008EEA91E00E942F0D8DE691E0BB2011F0B5
:1014B00083E791E00E941F0D8FE891E00E942F0DBD
:1014C00086016701412C512C32014394F12CE12C0F
:1014D0008B2D8150990B9C878B87EB85FC858DE646
:1014E00091E0EE15FF0511F083E791E00E941F0DDA
:1014F00022E044E6C301B2010E94E40783E891E0E0
:101500000E942F0D5801F8018081882309F454C0EE
:101510008BE691E00E942F0D0F5F1F4FF501808138
:10152000882309F456C05601312CF501819191911F
:101530005F018036FAEE9F0709F041C08BE591E02C
:101540000E942F0D2EE088E591E0321202C084E562
:1015500091E00E942F0D33948FE03812E6CF9FEF79
:10156000E91AF90AEFEF4E1A5E0A6E0A7E0AFEE1E8
:10157000CF0ED11C2BE0E216F10409F0AECF2C9671
:101580000FB6F894DEBF0FBECDBFDF91CF911F9194
:101590000F91FF90EF90DF90CF90BF90AF909F9012
:1015A0008F907F906F905F904F903F9008958EEC5A
:1015B00091E00E942F0D74CF83E691E0ABCFBE0186
:1015C0006F5F7F4F0E946F0CCE0101960E941F0D2E
:1015D000B9CFF701EE0FFF1FE80DF91DBE016F5FD8
:1015E0007F4F808191810E946F0CCE0101960E94F5
:1015F0001F0D80E591E00E942F0DB1CFCF93DF93B7
:10160000D82F83E091E00E942F0D87EF90E0D83C27
:1016100011F083EE90E00E942F0D84EA90E00E948A
:101620002F0D0E94FD0CC82F8823D9F30E940E0DA8
:1016300081EA90E00E942F0DC062C53639F0C437B0
:1016400009F4D8EC8D2FDF91CF910895D2E0FACF35
:101650001F93CF93DF9300D000D000D0CDB7DEB77B
:10166000FC011E821D821C821B821A821982128634
:10167000DC010D900020E9F711971A2F181B193083
:1016800008F051C0111150C08FEF9FEF14C19E326E
:1016900009F042C0313009F441C0242F31E04F5FDE
:1016A000141348C03323A1F0BF01610F711DAB01BA
:1016B00042505109DA019C919E3229F490E3DB01FA
:1016C0009C9311961C92DF01A20FB11D13961C92E0
:1016D000880F830F90819A3309F03FC0823009F45C
:1016E0009DC0833009F45EC0813009F0A9C0CE01ED
:1016F00001969F938F9302969F938F938CE791E02F
:101700009F938F93FF93EF930E940E0F0FB6F89461
:10171000DEBF0FBECDBF40C09F32C1F486E394E070
:101720000E942F0DB1CF18E0BF0140E024E130E06E
:1017300080E05EE2DB019C919C3209F45C93DB016A
:101740009D91BD019A3309F0A2CF8F5F9E529D30CB
:1017500028F7823009F0A3CFE1CF9E3209F0B8C05C
:10176000982F9860823009F459C08330C1F08130DD
:1017700009F066C0CE0101969F938F938EE791E0AA
:101780009F938F93FF93EF930E940E0F0F900F90F4
:101790000F900F900F900F901E821D8217C0892FFF
:1017A00082FF29C0CE0101969F938F9302969F934B
:1017B0008F938BE791E09F938F93FF93EF930E941A
:1017C0000E0F0FB6F894DEBF0FBECDBF8D819E8188
:1017D0008A30910508F079C0892B21F08B819C819A
:1017E000CC9730F429813A812436310508F43FC082
:1017F00087E294E095CFCE0101969F938F93029656
:101800009F938F9302969F938F9389E791E09F9385
:101810008F93FF93EF930E940E0FD3CFCE010396C9
:101820009F938F9302969F938F9382E891E09F936B
:101830008F93FF93EF930E940E0F1A821982C1CFEC
:10184000CE0103969F938F938FE791E09F938F93A1
:10185000FF93EF930E940E0F1E821D821A8219823F
:101860000F900F900F900F900F900F90AFCF8B8134
:101870009C818C33910540F06CE370E00E94960EE1
:101880007E836D839C838B836D817E8140E757E1EE
:10189000649FC001659F900D749F900D11246B8112
:1018A0007C81E4E6E69FA001E79F500D1124840FA0
:1018B000951F820F931F26960FB6F894DEBF0FBEBA
:1018C000CDBFDF91CF911F91089580E69AEEF3CFBF
:1018D000823009F4A3CF833009F006CF61CFCF93D4
:1018E0009C01462FC72F20368AEE380740F5E4E6E4
:1018F000F0E0C901BF010E94960E9F938F93C9012A
:1019000060E777E10E94960E9B01BF010E94960E50
:101910007F936F933F932F9388E891E09F938F93EA
:10192000CF934F930E94EB0E8DB79EB70A960FB6DA
:10193000F8949EBF0FBE8DBF80E0CF91089581E0E7
:10194000FCCF8BE49DE19093890080938800E1E8CF
:10195000F0E0808188608083EFE6F0E08081826043
:1019600080830895E1E8F0E08081826080830895BB
:10197000E1E8F0E08081887F8083089581E086BB84
:1019800010928500109284000895089508950F9391
:101990001F93CF938B019C01CFB7F89443E0660F60
:1019A000771F881F991F4A95D1F760587247844A5C
:1019B0009F4FA9019801E4E0220F331F441F551FD8
:1019C000EA95D1F70E94AA0EBA01A9014150510926
:1019D00061097109BB27A72F962F852F8093C5001A
:1019E0004093C40088E18093C10086E08093C200E8
:1019F000CFBFCF911F910F91089580E89DE8ABE58F
:101A0000B0E00197A109B10939F02091C00027FF8A
:101A1000F8CF8091C600089580E0089540E85DE821
:101A20006BE570E0415051096109710921F0909115
:101A3000C00095FFF7CF8093C60080E00895CF9354
:101A4000DF93EC0180E09991992311F0882319F03C
:101A5000DF91CF910895892F0E940E0DF4CFCF937F
:101A6000DF93EC01FE018491882329F00E940E0D82
:101A700021968823B9F3DF91CF910895FC01DB0112
:101A80002D91BD019191211104C081E0911103C0FC
:101A900008952917A1F380E0FBCF4F925F926F92D8
:101AA0007F928F929F92AF92BF92CF92DF92EF92EE
:101AB000FF920F931F93CF93DF93CDB7DEB7A1971C
:101AC0000FB6F894DEBF0FBECDBF6B017C018E0157
:101AD0000F5F1F4F81E2F80111928A95E9F74834B0
:101AE00039F110F5423431F1C114D104E104F104AB
:101AF00009F09CC084E594E0A1960FB6F894DEBF8F
:101B00000FBECDBFDF91CF911F910F91FF90EF904E
:101B1000DF90CF90BF90AF909F908F907F906F900D
:101B20005F904F900C942F0D423621F04836E1F62D
:101B300080E062C0D701C601F7FE07C08827992759
:101B4000DC018C199D09AE09BF0940E8842E912C57
:101B5000A12CB12C8F3F9105A105B10581F07CF03E
:101B6000812C912CA12C50E8B52E8F3F9F4FA105C1
:101B7000B1052CF4812C30E8932EA12CB12CD70187
:101B8000C60188219921AA21BB21892B8A2B8B2B65
:101B900019F580E30E940E0DB694A794979487944C
:101BA00081149104A104B10451F7A1960FB6F894E1
:101BB000DEBF0FBECDBFDF91CF911F910F91FF9080
:101BC000EF90DF90CF90BF90AF909F908F907F90DD
:101BD0006F905F904F90089581E3DCCFF801E80F9C
:101BE000F11D9C2D9F70908394E0F594E794D79419
:101BF000C7949A95D1F78F5FC114D104E104F10421
:101C000069F7882359F380FD8F5F7801E80EF11C96
:101C1000E016F10651F2F70182917F018A3020F03F
:101C2000895C0E940E0DF4CF805DFBCFA12CF7FEE6
:101C30000AC0F094E094D094C094C11CD11CE11C63
:101C4000F11CAA24A3944801B12C8AE0482E512CFF
:101C5000612C712CB394C701B601A30192010E94BB
:101C6000CC0EF40161934F0169017A01C114D104D2
:101C7000E104F10419F0F1E2BF12ECCFAA2021F047
:101C800082E594E00E942F0D7801EB0CF11C0E15FB
:101C90001F0509F48ACFF70182917F01805D0E94C0
:101CA0000E0DF5CF9FEB980F9A3130F0843C21F068
:101CB000863D11F08C3D09F4806208950F931F93C7
:101CC000CF93DF938C01C0E00E94FD0C0E94520E66
:101CD000D82F8D30B1F08A30A1F0883011F08F37D5
:101CE00089F4C11108C0F80110828C2FDF91CF91C7
:101CF0001F910F910895C15089E594E00E942F0D26
:101D0000E3CFD0E0F801EC0FF11DD0838D2F0E94BE
:101D10000E0DDD2341F0CF5FCD31B1F686E594E0C5
:101D20000E942F0DE2CFCC2301F3F8CFAA1BBB1BDF
:101D300051E107C0AA1FBB1FA617B70710F0A61BCB
:101D4000B70B881F991F5A95A9F780959095BC01EC
:101D5000CD010895A1E21A2EAA1BBB1BFD010DC0E7
:101D6000AA1FBB1FEE1FFF1FA217B307E407F5074B
:101D700020F0A21BB30BE40BF50B661F771F881F27
:101D8000991F1A9469F760957095809590959B01BD
:101D9000AC01BD01CF010895052E97FB1EF4009400
:101DA0000E94E30E57FD07D00E94AA0E07FC03D045
:101DB0004EF40C94E30E50954095309521953F4F8D
:101DC0004F4F5F4F089590958095709561957F4F27
:101DD0008F4F9F4F0895AEE0B0E0E1EFFEE00C942E
:101DE000AF140D891E8986E08C831A8309838FEFD7
:101DF0009FE79E838D83AE01475E5F4F6F89788D2D
:101E0000CE0101960E94270F2F813885020F131FE4
:101E1000F80110822E96E4E00C94CB14AEE0B0E012
:101E2000E4E1FFE00C94B11485E08C838B899C89FC
:101E30009A838983AE01495E5F4F6D897E89CE01A9
:101E400001960E948D122E96E2E00C94CD14ABE028
:101E5000B0E0EDE2FFE00C94A1147C013B018A01AB
:101E6000FC0117821682838181FFC8C1CE010196D1
:101E70005C01F7019381F30193FD859193FF8191BB
:101E80003F01882309F453C1853239F493FD8591CC
:101E900093FF81913F01853229F4B70190E00E94C0
:101EA000F813E7CF912C212C312CFFE1F31538F0FA
:101EB0008B3211F190F4803209F1833229F137FC31
:101EC0003CC020ED280F2A3050F536FE20C08AE0B5
:101ED000989E200D1124922E06C08D3291F08033F1
:101EE00071F7689430F8F30193FD859193FF819128
:101EF0003F018111DACF21C0689431F8689432F83B
:101F0000F2CF689433F8EFCF689434F8ECCFEAE07E
:101F10002E9E200D1124222E689435F8E4CF8E32A7
:101F200029F436FC04C1689436F8DDCF8C3619F4F8
:101F3000689437F8D8CF8836B1F2982F9F7D9554A2
:101F40009330E0F08336A1F18337C1F1833509F096
:101F500063C02801F2E04F0E511CF801C080D1800F
:101F6000692D70E036FC02C06FEF7FEFC6010E9462
:101F7000A6134C01689437F882010AC00C5F1F4F0A
:101F8000FFE3F98388248394912C6501E89437F862
:101F900033FE2DC0522C8114910471F5552009F4A3
:101FA00068CFB70180E290E00E94F8135A94F6CF10
:101FB000F801808189830E5F1F4FE4CF2801F2E092
:101FC0004F0E511CF801C080D180692D70E036FCA5
:101FD00002C06FEF7FEFC6010E94B1134C01820176
:101FE000D5CFB70180E290E00E94F8132A9428141C
:101FF000190409F0B0F7CECFF60137FC859137FE12
:1020000081916F01B70190E00E94F81351105A942A
:10201000F1E08F1A9108BFCF843619F0893609F0A4
:1020200077C0F80137FE6BC0608171818281938136
:102030000C5F1F4FF32DFF763F2E97FF09C0909541
:102040008095709561957F4F8F4F9F4F689437F8BB
:102050002AE030E0A5010E944014C82ECA188C2C3A
:10206000432C36FE0CC0E89440F8C91440F434FE0A
:1020700005C032FC03C0F32DFE7E4F2E892C44FE9A
:1020800095C0FE01EC0DF11D8081803309F087C001
:10209000242D297E422E842D8870582E43FC95C015
:1020A00040FE8FC09C2C821418F42C0C922C981893
:1020B00044FE91C0B70180E390E00E94F81342FE15
:1020C00009C088E790E041FE02C088E590E0B701D2
:1020D0000E94F813C91408F48AC0CA94D12C9FEF47
:1020E000C91AD90ACA0CDB1CF60182916F01B7012B
:1020F00090E00E94F813AC14BD04B1F74FCF60819B
:102100007181072E000C880B990B0E5F1F4F92CF29
:10211000D32CE894D4F82AE030E0853739F1232D28
:10212000297FD22E8F3601F148F48835A9F0F701C6
:10213000868197812B96E2E10C94BD14803749F09B
:102140008837A9F7D4FE02C06894D2F820E130E0C5
:102150000DC06894D4F8F6CF34FE03C0822F866099
:10216000D82E20E132E002C028E030E0F801D7FEAE
:102170000FC060817181828193810C5F1F4FA50127
:102180000E944014C82ECA183D2CE89437F867CF37
:102190006081718190E080E00E5F1F4FF0CF42FCC4
:1021A00002C0839478CF8394839475CF842D8678EE
:1021B00009F471CFF6CFB70180E290E00E94F813E6
:1021C00083948214C0F3512C73CF522C581882146C
:1021D00008F46ECFF8CF842D867809F47BCF8BE29C
:1021E00041FE80E247FC8DE2B70190E071CFB7017C
:1021F00080E390E00E94F8139A946CCF8FEF9FEFEA
:1022000099CF20FD09C0FC0123FD05C022FF02C0BB
:102210007383628351834083089544FD17C046FD54
:102220001DC0DB01FC01AA0FBB1FEE1FFF1F109496
:10223000D1F76A0F7B1F8E1F9F1F660F771F881FA6
:10224000991F620F711D811D911D089533E0660F66
:10225000771F881F991F3150D1F7F3CF34E0F7CFA4
:102260000F931F93CF93DF938C01C8010E94BC137F
:10227000EC0197FD08C00E949213892BB1F7B801B9
:10228000CE010E942814CE01DF91CF911F910F91B2
:1022900008958F929F92AF92BF92EF92FF920F9309
:1022A0001F93CF93DF938C01D62F7A01B22E0E9419
:1022B000BC139C0133272B32310529F02D32310517
:1022C000A9F46894B7F8D15061F480E0DF91CF9120
:1022D0001F910F91FF90EF90BF90AF909F908F90C4
:1022E0000895C8010E94BC1397FDEFCFCB2DCD7F81
:1022F0002B2D2073F9F48033E9F4AA24AA94AD0EAF
:1023000089F0C8010E94BC1397FD0CC0282F2F7DB7
:10231000283561F4C264D25029F0C8010E94BC1370
:1023200097FF08C0812C912C54011BC0B6FE2BC016
:10233000C260DA2D812C912C540120ED280F283019
:1023400028F1C4FD09C02A3008F1C6FF05C02F7D61
:102350003FEE320F3630C8F0B8010E942814C1FF9A
:10236000B4CFC7FF08C0B094A09490948094811C0F
:10237000911CA11CB11C2C2FB501A401C7010E9406
:10238000011181E0A3CFC261D4CF27504C2FC501EA
:10239000B4010E940D114B015C01C260D15009F3E0
:1023A000C8010E94BC1397FFC8CFD9CFA0E2B0E00C
:1023B000ECEDF1E10C94A6145C01962E7A01CE01AD
:1023C00001966C0180E2F60111928A95E9F7F50118
:1023D000B381890130E020E0712C812CA0E041E044
:1023E00050E0F801B3FD8591B3FF8191982F8F01E3
:1023F000811107C010E000E0C801A096EDE00C9448
:10240000C2148E3519F42115310541F1A2171306B6
:102410004CF48D3549F18D3229F4811006C08824A1
:1024200083941DC0882009F465C0E92FE695E695E0
:10243000E695EC0DFD2DF11D892F8770BA0101C0C5
:10244000660F8A95EAF78081682B6083791651F0D0
:10245000971510F49F5FE9CF9150E7CFA1E02F5F70
:102460003F4FBFCF812CFBCF882019F08E81806237
:102470008E83A11120C088248394C5010E94BC13BF
:1024800097FD16C0E82FE695E695E695EC0DFD2D37
:10249000F11D208130E0AC014770552702C0359511
:1024A00027954A95E2F720FD12C0B5010E94281435
:1024B0008820C9F09FCFF6019E012F5D3F4F80819C
:1024C000809580833196E217F307C9F7D4CFE114E2
:1024D000F10429F0F7018083C70101967C019A94E9
:1024E000812C9110CACFE114F10409F485CFF701D2
:1024F000108282CFE82FE695E695E695EC0DFD2D4E
:10250000F11D982F9770BA0101C0660F9A95EAF7EE
:102510009081692B6083782EA2CFB0E0A0E0E3E940
:10252000F2E10C94A4146C01EB015A01FC01178236
:102530001682512CF601E380FE01E3FC8591E3FE57
:102540008191182FEF018823E9F090E00E94921307
:10255000892B21F0C6010E943011ECCF153241F4D5
:10256000FE01E3FC1591E3FE1191EF01153269F4D0
:10257000C6010E94BC1397FD8EC01817D9F2B60190
:102580000E942814852D90E08AC000E01A3231F4B0
:10259000E3FC1591E3FE1191EF0101E0F12C20ED38
:1025A000210F2A3048F101FF37C0FF2059F31836B8
:1025B000B1F11C3609F43DC0112321F3612F70E005
:1025C00088E690E00E949B13892BE1F2912C812CEC
:1025D00000FD06C0F50180809180C50102965C0176
:1025E0001E3679F5F6014681578170E060E0202FB4
:1025F000C4010E9401119ECF02606F2D70E090E037
:1026000080E040E20E940D11F62EFE01E3FC1591E0
:10261000E3FE1191EF01C3CFFF24FA94C8CFFE016E
:10262000E3FC1591E3FE1191EF01183609F0C4CFD8
:1026300008600460FE01E3FC1591E3FE1191EF01D7
:10264000BBCF1336C1F401FD02C0FF24F394C601D1
:102650000E94BC1397FD1FC08114910429F0F4015E
:102660008083C40101964C01FA94F110F0CF00FD73
:1026700061CF53945FCF1B35B9F49E01A4016F2D38
:10268000C6010E94D611EC01892B89F7F6018381DE
:10269000807309F477CF8FEF9FEF511073CFCDB7D1
:1026A000DEB7EFE00C94C014C6010E94301197FD14
:1026B000F2CF1F36A9F130F4143641F0193639F053
:1026C000006405C01337B9F01537D1F70062202F29
:1026D000A4016F2DC6010E9449118111C8CFD6CF28
:1026E0008114910429F0F4016082C40101964C0127
:1026F000FA94FF2071F0C6010E94BC133C0197FDC3
:1027000008C00E949213892B59F3B601C3010E949D
:1027100028148114910409F4AACFF4011082A7CFE0
:102720000061D5CF91110C949E14803219F089501C
:102730008550C8F70895FC010590061621F0002089
:10274000D9F7C00108953197CF010895FC01059094
:10275000615070400110D8F7809590958E0F9F1FA3
:102760000895FC016150704001900110D8F78095E8
:1027700090958E0F9F1F0895CF93DF93EC012B81CF
:1027800020FF1AC026FF0CC02F7B2B838E819F81D8
:1027900001969F838E838A8190E0DF91CF91089587
:1027A00022FF18C0E881F9818081082E000C990B66
:1027B000009729F420622B838FEF9FEFEECF3196A5
:1027C000F983E8832E813F812F5F3F4F3F832E8324
:1027D0009927E3CFEA85FB85099597FFF3CF2B81F6
:1027E000019621F080E2822B8B83E6CF80E1FBCF44
:1027F0000F931F93CF93DF93182F092FEB018B813A
:1028000081FD09C01FEF0FEF812F902FDF91CF9136
:102810001F910F91089582FF14C02E813F818C81FA
:102820009D81281739073CF4E881F981CF01019691
:102830009983888310838E819F8101969F838E83E5
:10284000E3CFE885F985812F0995892BA1F3DACFAC
:10285000FB01238120FF11C026FD0FC08F3F980789
:1028600071F082832F7D206423832681378121505C
:10287000310937832683992708958FEF9FEF0895B5
:10288000FA01AA27283051F1203181F1E8946F93A1
:102890006E7F6E5F7F4F8F4F9F4FAF4FB1E03ED047
:1028A000B4E03CD0670F781F891F9A1FA11D680FE5
:1028B000791F8A1F911DA11D6A0F711D811D911D18
:1028C000A11D20D009F468943F912AE0269F11248D
:1028D0003019305D3193DEF6CF010895462F4770F1
:1028E000405D4193B3E00FD0C9F7F6CF462F4F704C
:1028F000405D4A3318F0495D31FD4052419302D0AA
:10290000A9F7EACFB4E0A69597958795779567954F
:10291000BA95C9F700976105710508959B01AC014F
:102920000A2E06945795479537952795BA95C9F776
:10293000620F731F841F951FA01D08959927882774
:1029400008952F923F924F925F926F927F928F9253
:102950009F92AF92BF92CF92DF92EF92FF920F932E
:102960001F93CF93DF93CDB7DEB7CA1BDB0B0FB638
:10297000F894DEBF0FBECDBF09942A8839884888F5
:102980005F846E847D848C849B84AA84B984C8848B
:10299000DF80EE80FD800C811B81AA81B981CE0F82
:1029A000D11D0FB6F894DEBF0FBECDBFED01089567
:0429B000F894FFCFC9
:1029B4002F008C00E9004601A30100025D02BA0267
:1029C40017037403D1030004FA00F401EE02E803D0
:1029D400E204DC05D606D007C409B80BA00F6C6965
:1029E40073740073696D0073696D756C617465004F
:1029F40069676E69746572006564697400747269EC
:102A04006767657200636C73006B696C6C00646566
:102A14006661756C740061646363616C001B5B3395
:102A2400336D001B5B33376D0025753A25752E25F4
:102A3400750025753A257500253032753A253032F2
:082A4400752E253032750000EB
:00000001FF
